{
	"data": {
		"bytecode": {
			"linkReferences": {},
			"object": "60806040526000600860146101000a81548160ff021916908360028111156200002d576200002c6200026e565b5b0217905550604051806020016040528060008152506009908162000052919062000517565b506040518060400160405280600781526020017f697066733a2f2f00000000000000000000000000000000000000000000000000815250600a908162000099919062000517565b5066354a6ba7a18000600b55666a94d74f430000600c556115b3600d556003600e55348015620000c857600080fd5b506040518060400160405280600a81526020017f5368726f6f6d656c6179000000000000000000000000000000000000000000008152506040518060400160405280600a81526020017f5348524f4f4d454c415900000000000000000000000000000000000000000000815250816002908162000146919062000517565b50806003908162000158919062000517565b50620001696200019760201b60201c565b60008190555050506200019162000185620001a060201b60201c565b620001a860201b60201c565b620005fe565b60006001905090565b600033905090565b6000600860009054906101000a900473ffffffffffffffffffffffffffffffffffffffff16905081600860006101000a81548173ffffffffffffffffffffffffffffffffffffffff021916908373ffffffffffffffffffffffffffffffffffffffff1602179055508173ffffffffffffffffffffffffffffffffffffffff168173ffffffffffffffffffffffffffffffffffffffff167f8be0079c531659141344cd1fd0a4f28419497f9722a3daafe3b4186f6b6457e060405160405180910390a35050565b7f4e487b7100000000000000000000000000000000000000000000000000000000600052602160045260246000fd5b600081519050919050565b7f4e487b7100000000000000000000000000000000000000000000000000000000600052604160045260246000fd5b7f4e487b7100000000000000000000000000000000000000000000000000000000600052602260045260246000fd5b600060028204905060018216806200031f57607f821691505b602082108103620003355762000334620002d7565b5b50919050565b60008190508160005260206000209050919050565b60006020601f8301049050919050565b600082821b905092915050565b6000600883026200039f7fffffffffffffffffffffffffffffffffffffffffffffffffffffffffffffffff8262000360565b620003ab868362000360565b95508019841693508086168417925050509392505050565b6000819050919050565b6000819050919050565b6000620003f8620003f2620003ec84620003c3565b620003cd565b620003c3565b9050919050565b6000819050919050565b6200041483620003d7565b6200042c6200042382620003ff565b8484546200036d565b825550505050565b600090565b6200044362000434565b6200045081848462000409565b505050565b5b8181101562000478576200046c60008262000439565b60018101905062000456565b5050565b601f821115620004c75762000491816200033b565b6200049c8462000350565b81016020851015620004ac578190505b620004c4620004bb8562000350565b83018262000455565b50505b505050565b600082821c905092915050565b6000620004ec60001984600802620004cc565b1980831691505092915050565b6000620005078383620004d9565b9150826002028217905092915050565b62000522826200029d565b67ffffffffffffffff8111156200053e576200053d620002a8565b5b6200054a825462000306565b620005578282856200047c565b600060209050601f8311600181146200058f57600084156200057a578287015190505b620005868582620004f9565b865550620005f6565b601f1984166200059f866200033b565b60005b82811015620005c957848901518255600182019150602085019450602081019050620005a2565b86831015620005e95784890151620005e5601f891682620004d9565b8355505b6001600288020188555050505b505050505050565b6140db806200060e6000396000f3fe6080604052600436106102305760003560e01c80638ac972a31161012e578063bd32fb66116100ab578063dc33e6811161006f578063dc33e681146107e6578063de9c4dc814610823578063e985e9c51461083f578063efbd73f41461087c578063f2fde38b146108a557610230565b8063bd32fb66146106ff578063c19d93fb14610728578063c87b56dd14610753578063d5abeb0114610790578063d70a28d1146107bb57610230565b8063a22cb465116100f2578063a22cb4651461063b578063a45ba8e714610664578063aa98e0c61461068f578063b071401b146106ba578063b88d4fde146106e357610230565b80638ac972a3146105615780638da5cb5b1461059e57806394354fd0146105c957806395d89b41146105f4578063a0712d681461061f57610230565b806342842e0e116101bc5780636ad7eea3116101805780636ad7eea31461047c57806370a08231146104b9578063715018a6146104f65780637ec4a6591461050d5780638693da201461053657610230565b806342842e0e146103a65780634fdd43cb146103c257806356de96db146103eb57806362b99ad4146104145780636352211e1461043f57610230565b8063095ea7b311610203578063095ea7b31461030357806318160ddd1461031f57806322284de61461034a57806323b872dd146103735780633ccfd60b1461038f57610230565b806301ffc9a71461023557806306fdde0314610272578063081812fc1461029d57806308a26771146102da575b600080fd5b34801561024157600080fd5b5061025c60048036038101906102579190612a36565b6108ce565b6040516102699190612a7e565b60405180910390f35b34801561027e57600080fd5b50610287610960565b6040516102949190612b29565b60405180910390f35b3480156102a957600080fd5b506102c460048036038101906102bf9190612b81565b6109f2565b6040516102d19190612bef565b60405180910390f35b3480156102e657600080fd5b5061030160048036038101906102fc9190612c36565b610a71565b005b61031d60048036038101906103189190612ca2565b610c42565b005b34801561032b57600080fd5b50610334610d86565b6040516103419190612cf1565b60405180910390f35b34801561035657600080fd5b50610371600480360381019061036c9190612b81565b610d9d565b005b61038d60048036038101906103889190612d0c565b610daf565b005b34801561039b57600080fd5b506103a46110d1565b005b6103c060048036038101906103bb9190612d0c565b6111a2565b005b3480156103ce57600080fd5b506103e960048036038101906103e49190612e94565b6111c2565b005b3480156103f757600080fd5b50610412600480360381019061040d9190612f02565b6111dd565b005b34801561042057600080fd5b50610429611212565b6040516104369190612b29565b60405180910390f35b34801561044b57600080fd5b5061046660048036038101906104619190612b81565b6112a0565b6040516104739190612bef565b60405180910390f35b34801561048857600080fd5b506104a3600480360381019061049e9190612b81565b6112b2565b6040516104b09190612cf1565b60405180910390f35b3480156104c557600080fd5b506104e060048036038101906104db9190612f2f565b61130a565b6040516104ed9190612cf1565b60405180910390f35b34801561050257600080fd5b5061050b6113c2565b005b34801561051957600080fd5b50610534600480360381019061052f9190612e94565b6113d6565b005b34801561054257600080fd5b5061054b6113f1565b6040516105589190612cf1565b60405180910390f35b34801561056d57600080fd5b5061058860048036038101906105839190612b81565b6113f7565b6040516105959190612cf1565b60405180910390f35b3480156105aa57600080fd5b506105b3611448565b6040516105c09190612bef565b60405180910390f35b3480156105d557600080fd5b506105de611472565b6040516105eb9190612cf1565b60405180910390f35b34801561060057600080fd5b50610609611478565b6040516106169190612b29565b60405180910390f35b61063960048036038101906106349190612b81565b61150a565b005b34801561064757600080fd5b50610662600480360381019061065d9190612f5c565b611686565b005b34801561067057600080fd5b50610679611791565b6040516106869190612b29565b60405180910390f35b34801561069b57600080fd5b506106a461181f565b6040516106b19190612fb5565b60405180910390f35b3480156106c657600080fd5b506106e160048036038101906106dc9190612b81565b611825565b005b6106fd60048036038101906106f89190613071565b611837565b005b34801561070b57600080fd5b5061072660048036038101906107219190613120565b6118aa565b005b34801561073457600080fd5b5061073d6118bc565b60405161074a91906131c4565b60405180910390f35b34801561075f57600080fd5b5061077a60048036038101906107759190612b81565b6118cf565b6040516107879190612b29565b60405180910390f35b34801561079c57600080fd5b506107a5611a8b565b6040516107b29190612cf1565b60405180910390f35b3480156107c757600080fd5b506107d0611a91565b6040516107dd9190612cf1565b60405180910390f35b3480156107f257600080fd5b5061080d60048036038101906108089190612f2f565b611a97565b60405161081a9190612cf1565b60405180910390f35b61083d6004803603810190610838919061323f565b611aa9565b005b34801561084b57600080fd5b50610866600480360381019061086191906132b3565b611d12565b6040516108739190612a7e565b60405180910390f35b34801561088857600080fd5b506108a3600480360381019061089e91906132f3565b611da6565b005b3480156108b157600080fd5b506108cc60048036038101906108c79190612f2f565b611e13565b005b60006301ffc9a760e01b827bffffffffffffffffffffffffffffffffffffffffffffffffffffffff1916148061092957506380ac58cd60e01b827bffffffffffffffffffffffffffffffffffffffffffffffffffffffff1916145b806109595750635b5e139f60e01b827bffffffffffffffffffffffffffffffffffffffffffffffffffffffff1916145b9050919050565b60606002805461096f90613362565b80601f016020809104026020016040519081016040528092919081815260200182805461099b90613362565b80156109e85780601f106109bd576101008083540402835291602001916109e8565b820191906000526020600020905b8154815290600101906020018083116109cb57829003601f168201915b5050505050905090565b60006109fd82611e96565b610a33576040517fcf4700e400000000000000000000000000000000000000000000000000000000815260040160405180910390fd5b6006600083815260200190815260200160002060000160009054906101000a900473ffffffffffffffffffffffffffffffffffffffff169050919050565b610a7a82611e96565b610ab9576040517f08c379a0000000000000000000000000000000000000000000000000000000008152600401610ab0906133df565b60405180910390fd5b3373ffffffffffffffffffffffffffffffffffffffff16610ad9836112a0565b73ffffffffffffffffffffffffffffffffffffffff1614610b2f576040517f08c379a0000000000000000000000000000000000000000000000000000000008152600401610b269061344b565b60405180910390fd5b60008115610b8a57610b40836112b2565b905060008103610b85576040517f08c379a0000000000000000000000000000000000000000000000000000000008152600401610b7c906134b7565b60405180910390fd5b610bd9565b610b93836113f7565b905060008103610bd8576040517f08c379a0000000000000000000000000000000000000000000000000000000008152600401610bcf90613523565b60405180910390fd5b5b8115610c10576001600f600085815260200190815260200160002060006101000a81548160ff021916908315150217905550610c3d565b6001600f600083815260200190815260200160002060006101000a81548160ff0219169083151502179055505b505050565b6000610c4d826112a0565b90508073ffffffffffffffffffffffffffffffffffffffff16610c6e611ef5565b73ffffffffffffffffffffffffffffffffffffffff1614610cd157610c9a81610c95611ef5565b611d12565b610cd0576040517fcfb3b94200000000000000000000000000000000000000000000000000000000815260040160405180910390fd5b5b826006600084815260200190815260200160002060000160006101000a81548173ffffffffffffffffffffffffffffffffffffffff021916908373ffffffffffffffffffffffffffffffffffffffff160217905550818373ffffffffffffffffffffffffffffffffffffffff168273ffffffffffffffffffffffffffffffffffffffff167f8c5be1e5ebec7d5bd14f71427d1e84f3dd0314c0f7b2291e5b200ac8c7c3b92560405160405180910390a4505050565b6000610d90611efd565b6001546000540303905090565b610da5611f06565b80600c8190555050565b6000610dba82611f84565b90508373ffffffffffffffffffffffffffffffffffffffff168173ffffffffffffffffffffffffffffffffffffffff1614610e21576040517fa114810000000000000000000000000000000000000000000000000000000000815260040160405180910390fd5b600080610e2d84612050565b91509150610e438187610e3e611ef5565b612077565b610e8f57610e5886610e53611ef5565b611d12565b610e8e576040517f59c896be00000000000000000000000000000000000000000000000000000000815260040160405180910390fd5b5b600073ffffffffffffffffffffffffffffffffffffffff168573ffffffffffffffffffffffffffffffffffffffff1603610ef5576040517fea553b3400000000000000000000000000000000000000000000000000000000815260040160405180910390fd5b610f0286868660016120bb565b8015610f0d57600082555b600560008773ffffffffffffffffffffffffffffffffffffffff1673ffffffffffffffffffffffffffffffffffffffff168152602001908152602001600020600081546001900391905081905550600560008673ffffffffffffffffffffffffffffffffffffffff1673ffffffffffffffffffffffffffffffffffffffff1681526020019081526020016000206000815460010191905081905550610fdb85610fb78888876120c1565b7c0200000000000000000000000000000000000000000000000000000000176120e9565b600460008681526020019081526020016000208190555060007c0200000000000000000000000000000000000000000000000000000000841603611061576000600185019050600060046000838152602001908152602001600020540361105f57600054811461105e578360046000838152602001908152602001600020819055505b5b505b838573ffffffffffffffffffffffffffffffffffffffff168773ffffffffffffffffffffffffffffffffffffffff167fddf252ad1be2c89b69c2b068fc378daa952ba7f163c4a11628f55a4df523b3ef60405160405180910390a46110c98686866001612114565b505050505050565b6110d9611f06565b60006001905073108db270c4f05e49f5b5ac9ca87bdfbd19c5eb4473ffffffffffffffffffffffffffffffffffffffff164760405161111790613574565b60006040518083038185875af1925050503d8060008114611154576040519150601f19603f3d011682016040523d82523d6000602084013e611159565b606091505b5050809150508061119f576040517f08c379a0000000000000000000000000000000000000000000000000000000008152600401611196906135d5565b60405180910390fd5b50565b6111bd83838360405180602001604052806000815250611837565b505050565b6111ca611f06565b80600a90816111d991906137a1565b5050565b6111e5611f06565b80600860146101000a81548160ff0219169083600281111561120a5761120961314d565b5b021790555050565b6009805461121f90613362565b80601f016020809104026020016040519081016040528092919081815260200182805461124b90613362565b80156112985780601f1061126d57610100808354040283529160200191611298565b820191906000526020600020905b81548152906001019060200180831161127b57829003601f168201915b505050505081565b60006112ab82611f84565b9050919050565b6000806112be83611e96565b1561130157600d5483036112d55760019050611300565b6112ea6001846112e591906138a2565b611e96565b156112ff576001836112fc91906138a2565b90505b5b5b80915050919050565b60008073ffffffffffffffffffffffffffffffffffffffff168273ffffffffffffffffffffffffffffffffffffffff1603611371576040517f8f4eb60400000000000000000000000000000000000000000000000000000000815260040160405180910390fd5b67ffffffffffffffff600560008473ffffffffffffffffffffffffffffffffffffffff1673ffffffffffffffffffffffffffffffffffffffff16815260200190815260200160002054169050919050565b6113ca611f06565b6113d4600061211a565b565b6113de611f06565b80600990816113ed91906137a1565b5050565b600c5481565b60008061140383611e96565b1561143f5760018314801561141f575061141e600d54611e96565b5b1561142e57600d54905061143e565b60018361143b91906138d6565b90505b5b80915050919050565b6000600860009054906101000a900473ffffffffffffffffffffffffffffffffffffffff16905090565b600e5481565b60606003805461148790613362565b80601f01602080910402602001604051908101604052809291908181526020018280546114b390613362565b80156115005780601f106114d557610100808354040283529160200191611500565b820191906000526020600020905b8154815290600101906020018083116114e357829003601f168201915b5050505050905090565b8060008111801561151d5750600e548111155b61155c576040517f08c379a000000000000000000000000000000000000000000000000000000000815260040161155390613956565b60405180910390fd5b600d5481611568610d86565b61157291906138a2565b11156115b3576040517f08c379a00000000000000000000000000000000000000000000000000000000081526004016115aa906139c2565b60405180910390fd5b6002808111156115c6576115c561314d565b5b600860149054906101000a900460ff1660028111156115e8576115e761314d565b5b14611628576040517f08c379a000000000000000000000000000000000000000000000000000000000815260040161161f90613a2e565b60405180910390fd5b81600c546116369190613a4e565b341015611678576040517f08c379a000000000000000000000000000000000000000000000000000000000815260040161166f90613adc565b60405180910390fd5b61168233836121e0565b5050565b8060076000611693611ef5565b73ffffffffffffffffffffffffffffffffffffffff1673ffffffffffffffffffffffffffffffffffffffff16815260200190815260200160002060008473ffffffffffffffffffffffffffffffffffffffff1673ffffffffffffffffffffffffffffffffffffffff16815260200190815260200160002060006101000a81548160ff0219169083151502179055508173ffffffffffffffffffffffffffffffffffffffff16611740611ef5565b73ffffffffffffffffffffffffffffffffffffffff167f17307eab39ab6107e8899845ad3d59bd9653f200f220920489ca2b5937696c31836040516117859190612a7e565b60405180910390a35050565b600a805461179e90613362565b80601f01602080910402602001604051908101604052809291908181526020018280546117ca90613362565b80156118175780601f106117ec57610100808354040283529160200191611817565b820191906000526020600020905b8154815290600101906020018083116117fa57829003601f168201915b505050505081565b60105481565b61182d611f06565b80600e8190555050565b611842848484610daf565b60008373ffffffffffffffffffffffffffffffffffffffff163b146118a45761186d848484846121fe565b6118a3576040517fd1a57ed600000000000000000000000000000000000000000000000000000000815260040160405180910390fd5b5b50505050565b6118b2611f06565b8060108190555050565b600860149054906101000a900460ff1681565b60606118da82611e96565b611919576040517f08c379a000000000000000000000000000000000000000000000000000000000815260040161191090613b6e565b60405180910390fd5b600061192361234e565b905060008390506000611935856112b2565b90506000611942866113f7565b9050600082141580156119725750600f600087815260200190815260200160002060009054906101000a900460ff165b156119805762010000831792505b600081141580156119ae5750600f600082815260200190815260200160002060009054906101000a900460ff165b156119bc5762020000831792505b6000845111611a5557600a80546119d290613362565b80601f01602080910402602001604051908101604052809291908181526020018280546119fe90613362565b8015611a4b5780601f10611a2057610100808354040283529160200191611a4b565b820191906000526020600020905b815481529060010190602001808311611a2e57829003601f168201915b5050505050611a80565b83611a5f876123e0565b604051602001611a70929190613c16565b6040516020818303038152906040525b945050505050919050565b600d5481565b600b5481565b6000611aa2826124ae565b9050919050565b83600081118015611abc5750600e548111155b611afb576040517f08c379a0000000000000000000000000000000000000000000000000000000008152600401611af290613956565b60405180910390fd5b600d5481611b07610d86565b611b1191906138a2565b1115611b52576040517f08c379a0000000000000000000000000000000000000000000000000000000008152600401611b49906139c2565b60405180910390fd5b60016002811115611b6657611b6561314d565b5b600860149054906101000a900460ff166002811115611b8857611b8761314d565b5b14611bc8576040517f08c379a0000000000000000000000000000000000000000000000000000000008152600401611bbf90613c91565b60405180910390fd5b8385611bd333611a97565b611bdd91906138a2565b1115611c1e576040517f08c379a0000000000000000000000000000000000000000000000000000000008152600401611c1590613cfd565b60405180910390fd5b611c72611c2b3386612505565b848480806020026020016040519081016040528093929190818152602001838360200280828437600081840152601f19601f82011690508083019250505050505050612538565b611cb1576040517f08c379a0000000000000000000000000000000000000000000000000000000008152600401611ca890613d69565b60405180910390fd5b84600b54611cbf9190613a4e565b341015611d01576040517f08c379a0000000000000000000000000000000000000000000000000000000008152600401611cf890613adc565b60405180910390fd5b611d0b33866121e0565b5050505050565b6000600760008473ffffffffffffffffffffffffffffffffffffffff1673ffffffffffffffffffffffffffffffffffffffff16815260200190815260200160002060008373ffffffffffffffffffffffffffffffffffffffff1673ffffffffffffffffffffffffffffffffffffffff16815260200190815260200160002060009054906101000a900460ff16905092915050565b611dae611f06565b600d5482611dba610d86565b611dc491906138a2565b1115611e05576040517f08c379a0000000000000000000000000000000000000000000000000000000008152600401611dfc906139c2565b60405180910390fd5b611e0f81836121e0565b5050565b611e1b611f06565b600073ffffffffffffffffffffffffffffffffffffffff168173ffffffffffffffffffffffffffffffffffffffff1603611e8a576040517f08c379a0000000000000000000000000000000000000000000000000000000008152600401611e8190613dfb565b60405180910390fd5b611e938161211a565b50565b600081611ea1611efd565b11158015611eb0575060005482105b8015611eee575060007c0100000000000000000000000000000000000000000000000000000000600460008581526020019081526020016000205416145b9050919050565b600033905090565b60006001905090565b611f0e61254f565b73ffffffffffffffffffffffffffffffffffffffff16611f2c611448565b73ffffffffffffffffffffffffffffffffffffffff1614611f82576040517f08c379a0000000000000000000000000000000000000000000000000000000008152600401611f7990613e67565b60405180910390fd5b565b60008082905080611f93611efd565b11612019576000548110156120185760006004600083815260200190815260200160002054905060007c0100000000000000000000000000000000000000000000000000000000821603612016575b6000810361200c576004600083600190039350838152602001908152602001600020549050611fe2565b809250505061204b565b505b5b6040517fdf2d9b4200000000000000000000000000000000000000000000000000000000815260040160405180910390fd5b919050565b60008060006006600085815260200190815260200160002090508092508254915050915091565b600073ffffffffffffffffffffffffffffffffffffffff8316925073ffffffffffffffffffffffffffffffffffffffff821691508382148383141790509392505050565b50505050565b60008060e883901c905060e86120d8868684612557565b62ffffff16901b9150509392505050565b600073ffffffffffffffffffffffffffffffffffffffff83169250814260a01b178317905092915050565b50505050565b6000600860009054906101000a900473ffffffffffffffffffffffffffffffffffffffff16905081600860006101000a81548173ffffffffffffffffffffffffffffffffffffffff021916908373ffffffffffffffffffffffffffffffffffffffff1602179055508173ffffffffffffffffffffffffffffffffffffffff168173ffffffffffffffffffffffffffffffffffffffff167f8be0079c531659141344cd1fd0a4f28419497f9722a3daafe3b4186f6b6457e060405160405180910390a35050565b6121fa828260405180602001604052806000815250612560565b5050565b60008373ffffffffffffffffffffffffffffffffffffffff1663150b7a02612224611ef5565b8786866040518563ffffffff1660e01b81526004016122469493929190613edc565b6020604051808303816000875af192505050801561228257506040513d601f19601f8201168201806040525081019061227f9190613f3d565b60015b6122fb573d80600081146122b2576040519150601f19603f3d011682016040523d82523d6000602084013e6122b7565b606091505b5060008151036122f3576040517fd1a57ed600000000000000000000000000000000000000000000000000000000815260040160405180910390fd5b805181602001fd5b63150b7a0260e01b7bffffffffffffffffffffffffffffffffffffffffffffffffffffffff1916817bffffffffffffffffffffffffffffffffffffffffffffffffffffffff191614915050949350505050565b60606009805461235d90613362565b80601f016020809104026020016040519081016040528092919081815260200182805461238990613362565b80156123d65780601f106123ab576101008083540402835291602001916123d6565b820191906000526020600020905b8154815290600101906020018083116123b957829003601f168201915b5050505050905090565b6060600060016123ef846125fd565b01905060008167ffffffffffffffff81111561240e5761240d612d69565b5b6040519080825280601f01601f1916602001820160405280156124405781602001600182028036833780820191505090505b509050600082602001820190505b6001156124a3578080600190039150507f3031323334353637383961626364656600000000000000000000000000000000600a86061a8153600a858161249757612496613f6a565b5b0494506000850361244e575b819350505050919050565b600067ffffffffffffffff6040600560008573ffffffffffffffffffffffffffffffffffffffff1673ffffffffffffffffffffffffffffffffffffffff16815260200190815260200160002054901c169050919050565b6000828260405160200161251a929190614002565b60405160208183030381529060405280519060200120905092915050565b60006125478260105485612750565b905092915050565b600033905090565b60009392505050565b61256a8383612767565b60008373ffffffffffffffffffffffffffffffffffffffff163b146125f857600080549050600083820390505b6125aa60008683806001019450866121fe565b6125e0576040517fd1a57ed600000000000000000000000000000000000000000000000000000000815260040160405180910390fd5b8181106125975781600054146125f557600080fd5b50505b505050565b600080600090507a184f03e93ff9f4daa797ed6e38ed64bf6a1f010000000000000000831061265b577a184f03e93ff9f4daa797ed6e38ed64bf6a1f010000000000000000838161265157612650613f6a565b5b0492506040810190505b6d04ee2d6d415b85acef81000000008310612698576d04ee2d6d415b85acef8100000000838161268e5761268d613f6a565b5b0492506020810190505b662386f26fc1000083106126c757662386f26fc1000083816126bd576126bc613f6a565b5b0492506010810190505b6305f5e10083106126f0576305f5e10083816126e6576126e5613f6a565b5b0492506008810190505b612710831061271557612710838161270b5761270a613f6a565b5b0492506004810190505b60648310612738576064838161272e5761272d613f6a565b5b0492506002810190505b600a8310612747576001810190505b80915050919050565b60008261275d8584612922565b1490509392505050565b600080549050600082036127a7576040517fb562e8dd00000000000000000000000000000000000000000000000000000000815260040160405180910390fd5b6127b460008483856120bb565b600160406001901b178202600560008573ffffffffffffffffffffffffffffffffffffffff1673ffffffffffffffffffffffffffffffffffffffff1681526020019081526020016000206000828254019250508190555061282b8361281c60008660006120c1565b61282585612978565b176120e9565b6004600083815260200190815260200160002081905550600080838301905073ffffffffffffffffffffffffffffffffffffffff85169150828260007fddf252ad1be2c89b69c2b068fc378daa952ba7f163c4a11628f55a4df523b3ef600080a4600183015b8181146128cc57808360007fddf252ad1be2c89b69c2b068fc378daa952ba7f163c4a11628f55a4df523b3ef600080a4600181019050612891565b5060008203612907576040517f2e07630000000000000000000000000000000000000000000000000000000000815260040160405180910390fd5b80600081905550505061291d6000848385612114565b505050565b60008082905060005b845181101561296d576129588286838151811061294b5761294a61402e565b5b6020026020010151612988565b915080806129659061405d565b91505061292b565b508091505092915050565b60006001821460e11b9050919050565b60008183106129a05761299b82846129b3565b6129ab565b6129aa83836129b3565b5b905092915050565b600082600052816020526040600020905092915050565b6000604051905090565b600080fd5b600080fd5b60007fffffffff0000000000000000000000000000000000000000000000000000000082169050919050565b612a13816129de565b8114612a1e57600080fd5b50565b600081359050612a3081612a0a565b92915050565b600060208284031215612a4c57612a4b6129d4565b5b6000612a5a84828501612a21565b91505092915050565b60008115159050919050565b612a7881612a63565b82525050565b6000602082019050612a936000830184612a6f565b92915050565b600081519050919050565b600082825260208201905092915050565b60005b83811015612ad3578082015181840152602081019050612ab8565b60008484015250505050565b6000601f19601f8301169050919050565b6000612afb82612a99565b612b058185612aa4565b9350612b15818560208601612ab5565b612b1e81612adf565b840191505092915050565b60006020820190508181036000830152612b438184612af0565b905092915050565b6000819050919050565b612b5e81612b4b565b8114612b6957600080fd5b50565b600081359050612b7b81612b55565b92915050565b600060208284031215612b9757612b966129d4565b5b6000612ba584828501612b6c565b91505092915050565b600073ffffffffffffffffffffffffffffffffffffffff82169050919050565b6000612bd982612bae565b9050919050565b612be981612bce565b82525050565b6000602082019050612c046000830184612be0565b92915050565b612c1381612a63565b8114612c1e57600080fd5b50565b600081359050612c3081612c0a565b92915050565b60008060408385031215612c4d57612c4c6129d4565b5b6000612c5b85828601612b6c565b9250506020612c6c85828601612c21565b9150509250929050565b612c7f81612bce565b8114612c8a57600080fd5b50565b600081359050612c9c81612c76565b92915050565b60008060408385031215612cb957612cb86129d4565b5b6000612cc785828601612c8d565b9250506020612cd885828601612b6c565b9150509250929050565b612ceb81612b4b565b82525050565b6000602082019050612d066000830184612ce2565b92915050565b600080600060608486031215612d2557612d246129d4565b5b6000612d3386828701612c8d565b9350506020612d4486828701612c8d565b9250506040612d5586828701612b6c565b9150509250925092565b600080fd5b600080fd5b7f4e487b7100000000000000000000000000000000000000000000000000000000600052604160045260246000fd5b612da182612adf565b810181811067ffffffffffffffff82111715612dc057612dbf612d69565b5b80604052505050565b6000612dd36129ca565b9050612ddf8282612d98565b919050565b600067ffffffffffffffff821115612dff57612dfe612d69565b5b612e0882612adf565b9050602081019050919050565b82818337600083830152505050565b6000612e37612e3284612de4565b612dc9565b905082815260208101848484011115612e5357612e52612d64565b5b612e5e848285612e15565b509392505050565b600082601f830112612e7b57612e7a612d5f565b5b8135612e8b848260208601612e24565b91505092915050565b600060208284031215612eaa57612ea96129d4565b5b600082013567ffffffffffffffff811115612ec857612ec76129d9565b5b612ed484828501612e66565b91505092915050565b60038110612eea57600080fd5b50565b600081359050612efc81612edd565b92915050565b600060208284031215612f1857612f176129d4565b5b6000612f2684828501612eed565b91505092915050565b600060208284031215612f4557612f446129d4565b5b6000612f5384828501612c8d565b91505092915050565b60008060408385031215612f7357612f726129d4565b5b6000612f8185828601612c8d565b9250506020612f9285828601612c21565b9150509250929050565b6000819050919050565b612faf81612f9c565b82525050565b6000602082019050612fca6000830184612fa6565b92915050565b600067ffffffffffffffff821115612feb57612fea612d69565b5b612ff482612adf565b9050602081019050919050565b600061301461300f84612fd0565b612dc9565b9050828152602081018484840111156130305761302f612d64565b5b61303b848285612e15565b509392505050565b600082601f83011261305857613057612d5f565b5b8135613068848260208601613001565b91505092915050565b6000806000806080858703121561308b5761308a6129d4565b5b600061309987828801612c8d565b94505060206130aa87828801612c8d565b93505060406130bb87828801612b6c565b925050606085013567ffffffffffffffff8111156130dc576130db6129d9565b5b6130e887828801613043565b91505092959194509250565b6130fd81612f9c565b811461310857600080fd5b50565b60008135905061311a816130f4565b92915050565b600060208284031215613136576131356129d4565b5b60006131448482850161310b565b91505092915050565b7f4e487b7100000000000000000000000000000000000000000000000000000000600052602160045260246000fd5b6003811061318d5761318c61314d565b5b50565b600081905061319e8261317c565b919050565b60006131ae82613190565b9050919050565b6131be816131a3565b82525050565b60006020820190506131d960008301846131b5565b92915050565b600080fd5b600080fd5b60008083601f8401126131ff576131fe612d5f565b5b8235905067ffffffffffffffff81111561321c5761321b6131df565b5b602083019150836020820283011115613238576132376131e4565b5b9250929050565b60008060008060608587031215613259576132586129d4565b5b600061326787828801612b6c565b945050602061327887828801612b6c565b935050604085013567ffffffffffffffff811115613299576132986129d9565b5b6132a5878288016131e9565b925092505092959194509250565b600080604083850312156132ca576132c96129d4565b5b60006132d885828601612c8d565b92505060206132e985828601612c8d565b9150509250929050565b6000806040838503121561330a576133096129d4565b5b600061331885828601612b6c565b925050602061332985828601612c8d565b9150509250929050565b7f4e487b7100000000000000000000000000000000000000000000000000000000600052602260045260246000fd5b6000600282049050600182168061337a57607f821691505b60208210810361338d5761338c613333565b5b50919050565b7f546f6b656e20646f6573206e6f74206578697374000000000000000000000000600082015250565b60006133c9601483612aa4565b91506133d482613393565b602082019050919050565b600060208201905081810360008301526133f8816133bc565b9050919050565b7f596f7520646f6e2774206f776e207468697320746f6b656e0000000000000000600082015250565b6000613435601883612aa4565b9150613440826133ff565b602082019050919050565b6000602082019050818103600083015261346481613428565b9050919050565b7f4e6f207269676874206e65696768626f72000000000000000000000000000000600082015250565b60006134a1601183612aa4565b91506134ac8261346b565b602082019050919050565b600060208201905081810360008301526134d081613494565b9050919050565b7f4e6f206c656674206e65696768626f7200000000000000000000000000000000600082015250565b600061350d601083612aa4565b9150613518826134d7565b602082019050919050565b6000602082019050818103600083015261353c81613500565b9050919050565b600081905092915050565b50565b600061355e600083613543565b91506135698261354e565b600082019050919050565b600061357f82613551565b9150819050919050565b7f5472616e73666572206661696c65640000000000000000000000000000000000600082015250565b60006135bf600f83612aa4565b91506135ca82613589565b602082019050919050565b600060208201905081810360008301526135ee816135b2565b9050919050565b60008190508160005260206000209050919050565b60006020601f8301049050919050565b600082821b905092915050565b6000600883026136577fffffffffffffffffffffffffffffffffffffffffffffffffffffffffffffffff8261361a565b613661868361361a565b95508019841693508086168417925050509392505050565b6000819050919050565b600061369e61369961369484612b4b565b613679565b612b4b565b9050919050565b6000819050919050565b6136b883613683565b6136cc6136c4826136a5565b848454613627565b825550505050565b600090565b6136e16136d4565b6136ec8184846136af565b505050565b5b81811015613710576137056000826136d9565b6001810190506136f2565b5050565b601f82111561375557613726816135f5565b61372f8461360a565b8101602085101561373e578190505b61375261374a8561360a565b8301826136f1565b50505b505050565b600082821c905092915050565b60006137786000198460080261375a565b1980831691505092915050565b60006137918383613767565b9150826002028217905092915050565b6137aa82612a99565b67ffffffffffffffff8111156137c3576137c2612d69565b5b6137cd8254613362565b6137d8828285613714565b600060209050601f83116001811461380b57600084156137f9578287015190505b6138038582613785565b86555061386b565b601f198416613819866135f5565b60005b828110156138415784890151825560018201915060208501945060208101905061381c565b8683101561385e578489015161385a601f891682613767565b8355505b6001600288020188555050505b505050505050565b7f4e487b7100000000000000000000000000000000000000000000000000000000600052601160045260246000fd5b60006138ad82612b4b565b91506138b883612b4b565b92508282019050808211156138d0576138cf613873565b5b92915050565b60006138e182612b4b565b91506138ec83612b4b565b925082820390508181111561390457613903613873565b5b92915050565b7f496e76616c6964206d696e7420616d6f756e7400000000000000000000000000600082015250565b6000613940601383612aa4565b915061394b8261390a565b602082019050919050565b6000602082019050818103600083015261396f81613933565b9050919050565b7f4d617820737570706c7920657863656564656400000000000000000000000000600082015250565b60006139ac601383612aa4565b91506139b782613976565b602082019050919050565b600060208201905081810360008301526139db8161399f565b9050919050565b7f5075626c6963206d696e742069732064697361626c6564000000000000000000600082015250565b6000613a18601783612aa4565b9150613a23826139e2565b602082019050919050565b60006020820190508181036000830152613a4781613a0b565b9050919050565b6000613a5982612b4b565b9150613a6483612b4b565b9250828202613a7281612b4b565b91508282048414831517613a8957613a88613873565b5b5092915050565b7f496e73756666696369656e742066756e64730000000000000000000000000000600082015250565b6000613ac6601283612aa4565b9150613ad182613a90565b602082019050919050565b60006020820190508181036000830152613af581613ab9565b9050919050565b7f4552433732314d657461646174613a2055524920717565727920666f72206e6f60008201527f6e6578697374656e7420746f6b656e0000000000000000000000000000000000602082015250565b6000613b58602f83612aa4565b9150613b6382613afc565b604082019050919050565b60006020820190508181036000830152613b8781613b4b565b9050919050565b600081905092915050565b6000613ba482612a99565b613bae8185613b8e565b9350613bbe818560208601612ab5565b80840191505092915050565b7f2e6a736f6e000000000000000000000000000000000000000000000000000000600082015250565b6000613c00600583613b8e565b9150613c0b82613bca565b600582019050919050565b6000613c228285613b99565b9150613c2e8284613b99565b9150613c3982613bf3565b91508190509392505050565b7f57686974656c697374206d696e742069732064697361626c6564000000000000600082015250565b6000613c7b601a83612aa4565b9150613c8682613c45565b602082019050919050565b60006020820190508181036000830152613caa81613c6e565b9050919050565b7f43616e2774206d696e742074686174206d616e79000000000000000000000000600082015250565b6000613ce7601483612aa4565b9150613cf282613cb1565b602082019050919050565b60006020820190508181036000830152613d1681613cda565b9050919050565b7f496e76616c69642070726f6f6600000000000000000000000000000000000000600082015250565b6000613d53600d83612aa4565b9150613d5e82613d1d565b602082019050919050565b60006020820190508181036000830152613d8281613d46565b9050919050565b7f4f776e61626c653a206e6577206f776e657220697320746865207a65726f206160008201527f6464726573730000000000000000000000000000000000000000000000000000602082015250565b6000613de5602683612aa4565b9150613df082613d89565b604082019050919050565b60006020820190508181036000830152613e1481613dd8565b9050919050565b7f4f776e61626c653a2063616c6c6572206973206e6f7420746865206f776e6572600082015250565b6000613e51602083612aa4565b9150613e5c82613e1b565b602082019050919050565b60006020820190508181036000830152613e8081613e44565b9050919050565b600081519050919050565b600082825260208201905092915050565b6000613eae82613e87565b613eb88185613e92565b9350613ec8818560208601612ab5565b613ed181612adf565b840191505092915050565b6000608082019050613ef16000830187612be0565b613efe6020830186612be0565b613f0b6040830185612ce2565b8181036060830152613f1d8184613ea3565b905095945050505050565b600081519050613f3781612a0a565b92915050565b600060208284031215613f5357613f526129d4565b5b6000613f6184828501613f28565b91505092915050565b7f4e487b7100000000000000000000000000000000000000000000000000000000600052601260045260246000fd5b60008160601b9050919050565b6000613fb182613f99565b9050919050565b6000613fc382613fa6565b9050919050565b613fdb613fd682612bce565b613fb8565b82525050565b6000819050919050565b613ffc613ff782612b4b565b613fe1565b82525050565b600061400e8285613fca565b60148201915061401e8284613feb565b6020820191508190509392505050565b7f4e487b7100000000000000000000000000000000000000000000000000000000600052603260045260246000fd5b600061406882612b4b565b91507fffffffffffffffffffffffffffffffffffffffffffffffffffffffffffffffff820361409a57614099613873565b5b60018201905091905056fea264697066735822122098549067aaeae6ec6d9e9bd2829913f03691d30eb6d312de4febeca9b8c6798164736f6c63430008110033",
			"opcodes": "PUSH1 0x80 PUSH1 0x40 MSTORE PUSH1 0x0 PUSH1 0x8 PUSH1 0x14 PUSH2 0x100 EXP DUP2 SLOAD DUP2 PUSH1 0xFF MUL NOT AND SWAP1 DUP4 PUSH1 0x2 DUP2 GT ISZERO PUSH3 0x2D JUMPI PUSH3 0x2C PUSH3 0x26E JUMP JUMPDEST JUMPDEST MUL OR SWAP1 SSTORE POP PUSH1 0x40 MLOAD DUP1 PUSH1 0x20 ADD PUSH1 0x40 MSTORE DUP1 PUSH1 0x0 DUP2 MSTORE POP PUSH1 0x9 SWAP1 DUP2 PUSH3 0x52 SWAP2 SWAP1 PUSH3 0x517 JUMP JUMPDEST POP PUSH1 0x40 MLOAD DUP1 PUSH1 0x40 ADD PUSH1 0x40 MSTORE DUP1 PUSH1 0x7 DUP2 MSTORE PUSH1 0x20 ADD PUSH32 0x697066733A2F2F00000000000000000000000000000000000000000000000000 DUP2 MSTORE POP PUSH1 0xA SWAP1 DUP2 PUSH3 0x99 SWAP2 SWAP1 PUSH3 0x517 JUMP JUMPDEST POP PUSH7 0x354A6BA7A18000 PUSH1 0xB SSTORE PUSH7 0x6A94D74F430000 PUSH1 0xC SSTORE PUSH2 0x15B3 PUSH1 0xD SSTORE PUSH1 0x3 PUSH1 0xE SSTORE CALLVALUE DUP1 ISZERO PUSH3 0xC8 JUMPI PUSH1 0x0 DUP1 REVERT JUMPDEST POP PUSH1 0x40 MLOAD DUP1 PUSH1 0x40 ADD PUSH1 0x40 MSTORE DUP1 PUSH1 0xA DUP2 MSTORE PUSH1 0x20 ADD PUSH32 0x5368726F6F6D656C617900000000000000000000000000000000000000000000 DUP2 MSTORE POP PUSH1 0x40 MLOAD DUP1 PUSH1 0x40 ADD PUSH1 0x40 MSTORE DUP1 PUSH1 0xA DUP2 MSTORE PUSH1 0x20 ADD PUSH32 0x5348524F4F4D454C415900000000000000000000000000000000000000000000 DUP2 MSTORE POP DUP2 PUSH1 0x2 SWAP1 DUP2 PUSH3 0x146 SWAP2 SWAP1 PUSH3 0x517 JUMP JUMPDEST POP DUP1 PUSH1 0x3 SWAP1 DUP2 PUSH3 0x158 SWAP2 SWAP1 PUSH3 0x517 JUMP JUMPDEST POP PUSH3 0x169 PUSH3 0x197 PUSH1 0x20 SHL PUSH1 0x20 SHR JUMP JUMPDEST PUSH1 0x0 DUP2 SWAP1 SSTORE POP POP POP PUSH3 0x191 PUSH3 0x185 PUSH3 0x1A0 PUSH1 0x20 SHL PUSH1 0x20 SHR JUMP JUMPDEST PUSH3 0x1A8 PUSH1 0x20 SHL PUSH1 0x20 SHR JUMP JUMPDEST PUSH3 0x5FE JUMP JUMPDEST PUSH1 0x0 PUSH1 0x1 SWAP1 POP SWAP1 JUMP JUMPDEST PUSH1 0x0 CALLER SWAP1 POP SWAP1 JUMP JUMPDEST PUSH1 0x0 PUSH1 0x8 PUSH1 0x0 SWAP1 SLOAD SWAP1 PUSH2 0x100 EXP SWAP1 DIV PUSH20 0xFFFFFFFFFFFFFFFFFFFFFFFFFFFFFFFFFFFFFFFF AND SWAP1 POP DUP2 PUSH1 0x8 PUSH1 0x0 PUSH2 0x100 EXP DUP2 SLOAD DUP2 PUSH20 0xFFFFFFFFFFFFFFFFFFFFFFFFFFFFFFFFFFFFFFFF MUL NOT AND SWAP1 DUP4 PUSH20 0xFFFFFFFFFFFFFFFFFFFFFFFFFFFFFFFFFFFFFFFF AND MUL OR SWAP1 SSTORE POP DUP2 PUSH20 0xFFFFFFFFFFFFFFFFFFFFFFFFFFFFFFFFFFFFFFFF AND DUP2 PUSH20 0xFFFFFFFFFFFFFFFFFFFFFFFFFFFFFFFFFFFFFFFF AND PUSH32 0x8BE0079C531659141344CD1FD0A4F28419497F9722A3DAAFE3B4186F6B6457E0 PUSH1 0x40 MLOAD PUSH1 0x40 MLOAD DUP1 SWAP2 SUB SWAP1 LOG3 POP POP JUMP JUMPDEST PUSH32 0x4E487B7100000000000000000000000000000000000000000000000000000000 PUSH1 0x0 MSTORE PUSH1 0x21 PUSH1 0x4 MSTORE PUSH1 0x24 PUSH1 0x0 REVERT JUMPDEST PUSH1 0x0 DUP2 MLOAD SWAP1 POP SWAP2 SWAP1 POP JUMP JUMPDEST PUSH32 0x4E487B7100000000000000000000000000000000000000000000000000000000 PUSH1 0x0 MSTORE PUSH1 0x41 PUSH1 0x4 MSTORE PUSH1 0x24 PUSH1 0x0 REVERT JUMPDEST PUSH32 0x4E487B7100000000000000000000000000000000000000000000000000000000 PUSH1 0x0 MSTORE PUSH1 0x22 PUSH1 0x4 MSTORE PUSH1 0x24 PUSH1 0x0 REVERT JUMPDEST PUSH1 0x0 PUSH1 0x2 DUP3 DIV SWAP1 POP PUSH1 0x1 DUP3 AND DUP1 PUSH3 0x31F JUMPI PUSH1 0x7F DUP3 AND SWAP2 POP JUMPDEST PUSH1 0x20 DUP3 LT DUP2 SUB PUSH3 0x335 JUMPI PUSH3 0x334 PUSH3 0x2D7 JUMP JUMPDEST JUMPDEST POP SWAP2 SWAP1 POP JUMP JUMPDEST PUSH1 0x0 DUP2 SWAP1 POP DUP2 PUSH1 0x0 MSTORE PUSH1 0x20 PUSH1 0x0 KECCAK256 SWAP1 POP SWAP2 SWAP1 POP JUMP JUMPDEST PUSH1 0x0 PUSH1 0x20 PUSH1 0x1F DUP4 ADD DIV SWAP1 POP SWAP2 SWAP1 POP JUMP JUMPDEST PUSH1 0x0 DUP3 DUP3 SHL SWAP1 POP SWAP3 SWAP2 POP POP JUMP JUMPDEST PUSH1 0x0 PUSH1 0x8 DUP4 MUL PUSH3 0x39F PUSH32 0xFFFFFFFFFFFFFFFFFFFFFFFFFFFFFFFFFFFFFFFFFFFFFFFFFFFFFFFFFFFFFFFF DUP3 PUSH3 0x360 JUMP JUMPDEST PUSH3 0x3AB DUP7 DUP4 PUSH3 0x360 JUMP JUMPDEST SWAP6 POP DUP1 NOT DUP5 AND SWAP4 POP DUP1 DUP7 AND DUP5 OR SWAP3 POP POP POP SWAP4 SWAP3 POP POP POP JUMP JUMPDEST PUSH1 0x0 DUP2 SWAP1 POP SWAP2 SWAP1 POP JUMP JUMPDEST PUSH1 0x0 DUP2 SWAP1 POP SWAP2 SWAP1 POP JUMP JUMPDEST PUSH1 0x0 PUSH3 0x3F8 PUSH3 0x3F2 PUSH3 0x3EC DUP5 PUSH3 0x3C3 JUMP JUMPDEST PUSH3 0x3CD JUMP JUMPDEST PUSH3 0x3C3 JUMP JUMPDEST SWAP1 POP SWAP2 SWAP1 POP JUMP JUMPDEST PUSH1 0x0 DUP2 SWAP1 POP SWAP2 SWAP1 POP JUMP JUMPDEST PUSH3 0x414 DUP4 PUSH3 0x3D7 JUMP JUMPDEST PUSH3 0x42C PUSH3 0x423 DUP3 PUSH3 0x3FF JUMP JUMPDEST DUP5 DUP5 SLOAD PUSH3 0x36D JUMP JUMPDEST DUP3 SSTORE POP POP POP POP JUMP JUMPDEST PUSH1 0x0 SWAP1 JUMP JUMPDEST PUSH3 0x443 PUSH3 0x434 JUMP JUMPDEST PUSH3 0x450 DUP2 DUP5 DUP5 PUSH3 0x409 JUMP JUMPDEST POP POP POP JUMP JUMPDEST JUMPDEST DUP2 DUP2 LT ISZERO PUSH3 0x478 JUMPI PUSH3 0x46C PUSH1 0x0 DUP3 PUSH3 0x439 JUMP JUMPDEST PUSH1 0x1 DUP2 ADD SWAP1 POP PUSH3 0x456 JUMP JUMPDEST POP POP JUMP JUMPDEST PUSH1 0x1F DUP3 GT ISZERO PUSH3 0x4C7 JUMPI PUSH3 0x491 DUP2 PUSH3 0x33B JUMP JUMPDEST PUSH3 0x49C DUP5 PUSH3 0x350 JUMP JUMPDEST DUP2 ADD PUSH1 0x20 DUP6 LT ISZERO PUSH3 0x4AC JUMPI DUP2 SWAP1 POP JUMPDEST PUSH3 0x4C4 PUSH3 0x4BB DUP6 PUSH3 0x350 JUMP JUMPDEST DUP4 ADD DUP3 PUSH3 0x455 JUMP JUMPDEST POP POP JUMPDEST POP POP POP JUMP JUMPDEST PUSH1 0x0 DUP3 DUP3 SHR SWAP1 POP SWAP3 SWAP2 POP POP JUMP JUMPDEST PUSH1 0x0 PUSH3 0x4EC PUSH1 0x0 NOT DUP5 PUSH1 0x8 MUL PUSH3 0x4CC JUMP JUMPDEST NOT DUP1 DUP4 AND SWAP2 POP POP SWAP3 SWAP2 POP POP JUMP JUMPDEST PUSH1 0x0 PUSH3 0x507 DUP4 DUP4 PUSH3 0x4D9 JUMP JUMPDEST SWAP2 POP DUP3 PUSH1 0x2 MUL DUP3 OR SWAP1 POP SWAP3 SWAP2 POP POP JUMP JUMPDEST PUSH3 0x522 DUP3 PUSH3 0x29D JUMP JUMPDEST PUSH8 0xFFFFFFFFFFFFFFFF DUP2 GT ISZERO PUSH3 0x53E JUMPI PUSH3 0x53D PUSH3 0x2A8 JUMP JUMPDEST JUMPDEST PUSH3 0x54A DUP3 SLOAD PUSH3 0x306 JUMP JUMPDEST PUSH3 0x557 DUP3 DUP3 DUP6 PUSH3 0x47C JUMP JUMPDEST PUSH1 0x0 PUSH1 0x20 SWAP1 POP PUSH1 0x1F DUP4 GT PUSH1 0x1 DUP2 EQ PUSH3 0x58F JUMPI PUSH1 0x0 DUP5 ISZERO PUSH3 0x57A JUMPI DUP3 DUP8 ADD MLOAD SWAP1 POP JUMPDEST PUSH3 0x586 DUP6 DUP3 PUSH3 0x4F9 JUMP JUMPDEST DUP7 SSTORE POP PUSH3 0x5F6 JUMP JUMPDEST PUSH1 0x1F NOT DUP5 AND PUSH3 0x59F DUP7 PUSH3 0x33B JUMP JUMPDEST PUSH1 0x0 JUMPDEST DUP3 DUP2 LT ISZERO PUSH3 0x5C9 JUMPI DUP5 DUP10 ADD MLOAD DUP3 SSTORE PUSH1 0x1 DUP3 ADD SWAP2 POP PUSH1 0x20 DUP6 ADD SWAP5 POP PUSH1 0x20 DUP2 ADD SWAP1 POP PUSH3 0x5A2 JUMP JUMPDEST DUP7 DUP4 LT ISZERO PUSH3 0x5E9 JUMPI DUP5 DUP10 ADD MLOAD PUSH3 0x5E5 PUSH1 0x1F DUP10 AND DUP3 PUSH3 0x4D9 JUMP JUMPDEST DUP4 SSTORE POP JUMPDEST PUSH1 0x1 PUSH1 0x2 DUP9 MUL ADD DUP9 SSTORE POP POP POP JUMPDEST POP POP POP POP POP POP JUMP JUMPDEST PUSH2 0x40DB DUP1 PUSH3 0x60E PUSH1 0x0 CODECOPY PUSH1 0x0 RETURN INVALID PUSH1 0x80 PUSH1 0x40 MSTORE PUSH1 0x4 CALLDATASIZE LT PUSH2 0x230 JUMPI PUSH1 0x0 CALLDATALOAD PUSH1 0xE0 SHR DUP1 PUSH4 0x8AC972A3 GT PUSH2 0x12E JUMPI DUP1 PUSH4 0xBD32FB66 GT PUSH2 0xAB JUMPI DUP1 PUSH4 0xDC33E681 GT PUSH2 0x6F JUMPI DUP1 PUSH4 0xDC33E681 EQ PUSH2 0x7E6 JUMPI DUP1 PUSH4 0xDE9C4DC8 EQ PUSH2 0x823 JUMPI DUP1 PUSH4 0xE985E9C5 EQ PUSH2 0x83F JUMPI DUP1 PUSH4 0xEFBD73F4 EQ PUSH2 0x87C JUMPI DUP1 PUSH4 0xF2FDE38B EQ PUSH2 0x8A5 JUMPI PUSH2 0x230 JUMP JUMPDEST DUP1 PUSH4 0xBD32FB66 EQ PUSH2 0x6FF JUMPI DUP1 PUSH4 0xC19D93FB EQ PUSH2 0x728 JUMPI DUP1 PUSH4 0xC87B56DD EQ PUSH2 0x753 JUMPI DUP1 PUSH4 0xD5ABEB01 EQ PUSH2 0x790 JUMPI DUP1 PUSH4 0xD70A28D1 EQ PUSH2 0x7BB JUMPI PUSH2 0x230 JUMP JUMPDEST DUP1 PUSH4 0xA22CB465 GT PUSH2 0xF2 JUMPI DUP1 PUSH4 0xA22CB465 EQ PUSH2 0x63B JUMPI DUP1 PUSH4 0xA45BA8E7 EQ PUSH2 0x664 JUMPI DUP1 PUSH4 0xAA98E0C6 EQ PUSH2 0x68F JUMPI DUP1 PUSH4 0xB071401B EQ PUSH2 0x6BA JUMPI DUP1 PUSH4 0xB88D4FDE EQ PUSH2 0x6E3 JUMPI PUSH2 0x230 JUMP JUMPDEST DUP1 PUSH4 0x8AC972A3 EQ PUSH2 0x561 JUMPI DUP1 PUSH4 0x8DA5CB5B EQ PUSH2 0x59E JUMPI DUP1 PUSH4 0x94354FD0 EQ PUSH2 0x5C9 JUMPI DUP1 PUSH4 0x95D89B41 EQ PUSH2 0x5F4 JUMPI DUP1 PUSH4 0xA0712D68 EQ PUSH2 0x61F JUMPI PUSH2 0x230 JUMP JUMPDEST DUP1 PUSH4 0x42842E0E GT PUSH2 0x1BC JUMPI DUP1 PUSH4 0x6AD7EEA3 GT PUSH2 0x180 JUMPI DUP1 PUSH4 0x6AD7EEA3 EQ PUSH2 0x47C JUMPI DUP1 PUSH4 0x70A08231 EQ PUSH2 0x4B9 JUMPI DUP1 PUSH4 0x715018A6 EQ PUSH2 0x4F6 JUMPI DUP1 PUSH4 0x7EC4A659 EQ PUSH2 0x50D JUMPI DUP1 PUSH4 0x8693DA20 EQ PUSH2 0x536 JUMPI PUSH2 0x230 JUMP JUMPDEST DUP1 PUSH4 0x42842E0E EQ PUSH2 0x3A6 JUMPI DUP1 PUSH4 0x4FDD43CB EQ PUSH2 0x3C2 JUMPI DUP1 PUSH4 0x56DE96DB EQ PUSH2 0x3EB JUMPI DUP1 PUSH4 0x62B99AD4 EQ PUSH2 0x414 JUMPI DUP1 PUSH4 0x6352211E EQ PUSH2 0x43F JUMPI PUSH2 0x230 JUMP JUMPDEST DUP1 PUSH4 0x95EA7B3 GT PUSH2 0x203 JUMPI DUP1 PUSH4 0x95EA7B3 EQ PUSH2 0x303 JUMPI DUP1 PUSH4 0x18160DDD EQ PUSH2 0x31F JUMPI DUP1 PUSH4 0x22284DE6 EQ PUSH2 0x34A JUMPI DUP1 PUSH4 0x23B872DD EQ PUSH2 0x373 JUMPI DUP1 PUSH4 0x3CCFD60B EQ PUSH2 0x38F JUMPI PUSH2 0x230 JUMP JUMPDEST DUP1 PUSH4 0x1FFC9A7 EQ PUSH2 0x235 JUMPI DUP1 PUSH4 0x6FDDE03 EQ PUSH2 0x272 JUMPI DUP1 PUSH4 0x81812FC EQ PUSH2 0x29D JUMPI DUP1 PUSH4 0x8A26771 EQ PUSH2 0x2DA JUMPI JUMPDEST PUSH1 0x0 DUP1 REVERT JUMPDEST CALLVALUE DUP1 ISZERO PUSH2 0x241 JUMPI PUSH1 0x0 DUP1 REVERT JUMPDEST POP PUSH2 0x25C PUSH1 0x4 DUP1 CALLDATASIZE SUB DUP2 ADD SWAP1 PUSH2 0x257 SWAP2 SWAP1 PUSH2 0x2A36 JUMP JUMPDEST PUSH2 0x8CE JUMP JUMPDEST PUSH1 0x40 MLOAD PUSH2 0x269 SWAP2 SWAP1 PUSH2 0x2A7E JUMP JUMPDEST PUSH1 0x40 MLOAD DUP1 SWAP2 SUB SWAP1 RETURN JUMPDEST CALLVALUE DUP1 ISZERO PUSH2 0x27E JUMPI PUSH1 0x0 DUP1 REVERT JUMPDEST POP PUSH2 0x287 PUSH2 0x960 JUMP JUMPDEST PUSH1 0x40 MLOAD PUSH2 0x294 SWAP2 SWAP1 PUSH2 0x2B29 JUMP JUMPDEST PUSH1 0x40 MLOAD DUP1 SWAP2 SUB SWAP1 RETURN JUMPDEST CALLVALUE DUP1 ISZERO PUSH2 0x2A9 JUMPI PUSH1 0x0 DUP1 REVERT JUMPDEST POP PUSH2 0x2C4 PUSH1 0x4 DUP1 CALLDATASIZE SUB DUP2 ADD SWAP1 PUSH2 0x2BF SWAP2 SWAP1 PUSH2 0x2B81 JUMP JUMPDEST PUSH2 0x9F2 JUMP JUMPDEST PUSH1 0x40 MLOAD PUSH2 0x2D1 SWAP2 SWAP1 PUSH2 0x2BEF JUMP JUMPDEST PUSH1 0x40 MLOAD DUP1 SWAP2 SUB SWAP1 RETURN JUMPDEST CALLVALUE DUP1 ISZERO PUSH2 0x2E6 JUMPI PUSH1 0x0 DUP1 REVERT JUMPDEST POP PUSH2 0x301 PUSH1 0x4 DUP1 CALLDATASIZE SUB DUP2 ADD SWAP1 PUSH2 0x2FC SWAP2 SWAP1 PUSH2 0x2C36 JUMP JUMPDEST PUSH2 0xA71 JUMP JUMPDEST STOP JUMPDEST PUSH2 0x31D PUSH1 0x4 DUP1 CALLDATASIZE SUB DUP2 ADD SWAP1 PUSH2 0x318 SWAP2 SWAP1 PUSH2 0x2CA2 JUMP JUMPDEST PUSH2 0xC42 JUMP JUMPDEST STOP JUMPDEST CALLVALUE DUP1 ISZERO PUSH2 0x32B JUMPI PUSH1 0x0 DUP1 REVERT JUMPDEST POP PUSH2 0x334 PUSH2 0xD86 JUMP JUMPDEST PUSH1 0x40 MLOAD PUSH2 0x341 SWAP2 SWAP1 PUSH2 0x2CF1 JUMP JUMPDEST PUSH1 0x40 MLOAD DUP1 SWAP2 SUB SWAP1 RETURN JUMPDEST CALLVALUE DUP1 ISZERO PUSH2 0x356 JUMPI PUSH1 0x0 DUP1 REVERT JUMPDEST POP PUSH2 0x371 PUSH1 0x4 DUP1 CALLDATASIZE SUB DUP2 ADD SWAP1 PUSH2 0x36C SWAP2 SWAP1 PUSH2 0x2B81 JUMP JUMPDEST PUSH2 0xD9D JUMP JUMPDEST STOP JUMPDEST PUSH2 0x38D PUSH1 0x4 DUP1 CALLDATASIZE SUB DUP2 ADD SWAP1 PUSH2 0x388 SWAP2 SWAP1 PUSH2 0x2D0C JUMP JUMPDEST PUSH2 0xDAF JUMP JUMPDEST STOP JUMPDEST CALLVALUE DUP1 ISZERO PUSH2 0x39B JUMPI PUSH1 0x0 DUP1 REVERT JUMPDEST POP PUSH2 0x3A4 PUSH2 0x10D1 JUMP JUMPDEST STOP JUMPDEST PUSH2 0x3C0 PUSH1 0x4 DUP1 CALLDATASIZE SUB DUP2 ADD SWAP1 PUSH2 0x3BB SWAP2 SWAP1 PUSH2 0x2D0C JUMP JUMPDEST PUSH2 0x11A2 JUMP JUMPDEST STOP JUMPDEST CALLVALUE DUP1 ISZERO PUSH2 0x3CE JUMPI PUSH1 0x0 DUP1 REVERT JUMPDEST POP PUSH2 0x3E9 PUSH1 0x4 DUP1 CALLDATASIZE SUB DUP2 ADD SWAP1 PUSH2 0x3E4 SWAP2 SWAP1 PUSH2 0x2E94 JUMP JUMPDEST PUSH2 0x11C2 JUMP JUMPDEST STOP JUMPDEST CALLVALUE DUP1 ISZERO PUSH2 0x3F7 JUMPI PUSH1 0x0 DUP1 REVERT JUMPDEST POP PUSH2 0x412 PUSH1 0x4 DUP1 CALLDATASIZE SUB DUP2 ADD SWAP1 PUSH2 0x40D SWAP2 SWAP1 PUSH2 0x2F02 JUMP JUMPDEST PUSH2 0x11DD JUMP JUMPDEST STOP JUMPDEST CALLVALUE DUP1 ISZERO PUSH2 0x420 JUMPI PUSH1 0x0 DUP1 REVERT JUMPDEST POP PUSH2 0x429 PUSH2 0x1212 JUMP JUMPDEST PUSH1 0x40 MLOAD PUSH2 0x436 SWAP2 SWAP1 PUSH2 0x2B29 JUMP JUMPDEST PUSH1 0x40 MLOAD DUP1 SWAP2 SUB SWAP1 RETURN JUMPDEST CALLVALUE DUP1 ISZERO PUSH2 0x44B JUMPI PUSH1 0x0 DUP1 REVERT JUMPDEST POP PUSH2 0x466 PUSH1 0x4 DUP1 CALLDATASIZE SUB DUP2 ADD SWAP1 PUSH2 0x461 SWAP2 SWAP1 PUSH2 0x2B81 JUMP JUMPDEST PUSH2 0x12A0 JUMP JUMPDEST PUSH1 0x40 MLOAD PUSH2 0x473 SWAP2 SWAP1 PUSH2 0x2BEF JUMP JUMPDEST PUSH1 0x40 MLOAD DUP1 SWAP2 SUB SWAP1 RETURN JUMPDEST CALLVALUE DUP1 ISZERO PUSH2 0x488 JUMPI PUSH1 0x0 DUP1 REVERT JUMPDEST POP PUSH2 0x4A3 PUSH1 0x4 DUP1 CALLDATASIZE SUB DUP2 ADD SWAP1 PUSH2 0x49E SWAP2 SWAP1 PUSH2 0x2B81 JUMP JUMPDEST PUSH2 0x12B2 JUMP JUMPDEST PUSH1 0x40 MLOAD PUSH2 0x4B0 SWAP2 SWAP1 PUSH2 0x2CF1 JUMP JUMPDEST PUSH1 0x40 MLOAD DUP1 SWAP2 SUB SWAP1 RETURN JUMPDEST CALLVALUE DUP1 ISZERO PUSH2 0x4C5 JUMPI PUSH1 0x0 DUP1 REVERT JUMPDEST POP PUSH2 0x4E0 PUSH1 0x4 DUP1 CALLDATASIZE SUB DUP2 ADD SWAP1 PUSH2 0x4DB SWAP2 SWAP1 PUSH2 0x2F2F JUMP JUMPDEST PUSH2 0x130A JUMP JUMPDEST PUSH1 0x40 MLOAD PUSH2 0x4ED SWAP2 SWAP1 PUSH2 0x2CF1 JUMP JUMPDEST PUSH1 0x40 MLOAD DUP1 SWAP2 SUB SWAP1 RETURN JUMPDEST CALLVALUE DUP1 ISZERO PUSH2 0x502 JUMPI PUSH1 0x0 DUP1 REVERT JUMPDEST POP PUSH2 0x50B PUSH2 0x13C2 JUMP JUMPDEST STOP JUMPDEST CALLVALUE DUP1 ISZERO PUSH2 0x519 JUMPI PUSH1 0x0 DUP1 REVERT JUMPDEST POP PUSH2 0x534 PUSH1 0x4 DUP1 CALLDATASIZE SUB DUP2 ADD SWAP1 PUSH2 0x52F SWAP2 SWAP1 PUSH2 0x2E94 JUMP JUMPDEST PUSH2 0x13D6 JUMP JUMPDEST STOP JUMPDEST CALLVALUE DUP1 ISZERO PUSH2 0x542 JUMPI PUSH1 0x0 DUP1 REVERT JUMPDEST POP PUSH2 0x54B PUSH2 0x13F1 JUMP JUMPDEST PUSH1 0x40 MLOAD PUSH2 0x558 SWAP2 SWAP1 PUSH2 0x2CF1 JUMP JUMPDEST PUSH1 0x40 MLOAD DUP1 SWAP2 SUB SWAP1 RETURN JUMPDEST CALLVALUE DUP1 ISZERO PUSH2 0x56D JUMPI PUSH1 0x0 DUP1 REVERT JUMPDEST POP PUSH2 0x588 PUSH1 0x4 DUP1 CALLDATASIZE SUB DUP2 ADD SWAP1 PUSH2 0x583 SWAP2 SWAP1 PUSH2 0x2B81 JUMP JUMPDEST PUSH2 0x13F7 JUMP JUMPDEST PUSH1 0x40 MLOAD PUSH2 0x595 SWAP2 SWAP1 PUSH2 0x2CF1 JUMP JUMPDEST PUSH1 0x40 MLOAD DUP1 SWAP2 SUB SWAP1 RETURN JUMPDEST CALLVALUE DUP1 ISZERO PUSH2 0x5AA JUMPI PUSH1 0x0 DUP1 REVERT JUMPDEST POP PUSH2 0x5B3 PUSH2 0x1448 JUMP JUMPDEST PUSH1 0x40 MLOAD PUSH2 0x5C0 SWAP2 SWAP1 PUSH2 0x2BEF JUMP JUMPDEST PUSH1 0x40 MLOAD DUP1 SWAP2 SUB SWAP1 RETURN JUMPDEST CALLVALUE DUP1 ISZERO PUSH2 0x5D5 JUMPI PUSH1 0x0 DUP1 REVERT JUMPDEST POP PUSH2 0x5DE PUSH2 0x1472 JUMP JUMPDEST PUSH1 0x40 MLOAD PUSH2 0x5EB SWAP2 SWAP1 PUSH2 0x2CF1 JUMP JUMPDEST PUSH1 0x40 MLOAD DUP1 SWAP2 SUB SWAP1 RETURN JUMPDEST CALLVALUE DUP1 ISZERO PUSH2 0x600 JUMPI PUSH1 0x0 DUP1 REVERT JUMPDEST POP PUSH2 0x609 PUSH2 0x1478 JUMP JUMPDEST PUSH1 0x40 MLOAD PUSH2 0x616 SWAP2 SWAP1 PUSH2 0x2B29 JUMP JUMPDEST PUSH1 0x40 MLOAD DUP1 SWAP2 SUB SWAP1 RETURN JUMPDEST PUSH2 0x639 PUSH1 0x4 DUP1 CALLDATASIZE SUB DUP2 ADD SWAP1 PUSH2 0x634 SWAP2 SWAP1 PUSH2 0x2B81 JUMP JUMPDEST PUSH2 0x150A JUMP JUMPDEST STOP JUMPDEST CALLVALUE DUP1 ISZERO PUSH2 0x647 JUMPI PUSH1 0x0 DUP1 REVERT JUMPDEST POP PUSH2 0x662 PUSH1 0x4 DUP1 CALLDATASIZE SUB DUP2 ADD SWAP1 PUSH2 0x65D SWAP2 SWAP1 PUSH2 0x2F5C JUMP JUMPDEST PUSH2 0x1686 JUMP JUMPDEST STOP JUMPDEST CALLVALUE DUP1 ISZERO PUSH2 0x670 JUMPI PUSH1 0x0 DUP1 REVERT JUMPDEST POP PUSH2 0x679 PUSH2 0x1791 JUMP JUMPDEST PUSH1 0x40 MLOAD PUSH2 0x686 SWAP2 SWAP1 PUSH2 0x2B29 JUMP JUMPDEST PUSH1 0x40 MLOAD DUP1 SWAP2 SUB SWAP1 RETURN JUMPDEST CALLVALUE DUP1 ISZERO PUSH2 0x69B JUMPI PUSH1 0x0 DUP1 REVERT JUMPDEST POP PUSH2 0x6A4 PUSH2 0x181F JUMP JUMPDEST PUSH1 0x40 MLOAD PUSH2 0x6B1 SWAP2 SWAP1 PUSH2 0x2FB5 JUMP JUMPDEST PUSH1 0x40 MLOAD DUP1 SWAP2 SUB SWAP1 RETURN JUMPDEST CALLVALUE DUP1 ISZERO PUSH2 0x6C6 JUMPI PUSH1 0x0 DUP1 REVERT JUMPDEST POP PUSH2 0x6E1 PUSH1 0x4 DUP1 CALLDATASIZE SUB DUP2 ADD SWAP1 PUSH2 0x6DC SWAP2 SWAP1 PUSH2 0x2B81 JUMP JUMPDEST PUSH2 0x1825 JUMP JUMPDEST STOP JUMPDEST PUSH2 0x6FD PUSH1 0x4 DUP1 CALLDATASIZE SUB DUP2 ADD SWAP1 PUSH2 0x6F8 SWAP2 SWAP1 PUSH2 0x3071 JUMP JUMPDEST PUSH2 0x1837 JUMP JUMPDEST STOP JUMPDEST CALLVALUE DUP1 ISZERO PUSH2 0x70B JUMPI PUSH1 0x0 DUP1 REVERT JUMPDEST POP PUSH2 0x726 PUSH1 0x4 DUP1 CALLDATASIZE SUB DUP2 ADD SWAP1 PUSH2 0x721 SWAP2 SWAP1 PUSH2 0x3120 JUMP JUMPDEST PUSH2 0x18AA JUMP JUMPDEST STOP JUMPDEST CALLVALUE DUP1 ISZERO PUSH2 0x734 JUMPI PUSH1 0x0 DUP1 REVERT JUMPDEST POP PUSH2 0x73D PUSH2 0x18BC JUMP JUMPDEST PUSH1 0x40 MLOAD PUSH2 0x74A SWAP2 SWAP1 PUSH2 0x31C4 JUMP JUMPDEST PUSH1 0x40 MLOAD DUP1 SWAP2 SUB SWAP1 RETURN JUMPDEST CALLVALUE DUP1 ISZERO PUSH2 0x75F JUMPI PUSH1 0x0 DUP1 REVERT JUMPDEST POP PUSH2 0x77A PUSH1 0x4 DUP1 CALLDATASIZE SUB DUP2 ADD SWAP1 PUSH2 0x775 SWAP2 SWAP1 PUSH2 0x2B81 JUMP JUMPDEST PUSH2 0x18CF JUMP JUMPDEST PUSH1 0x40 MLOAD PUSH2 0x787 SWAP2 SWAP1 PUSH2 0x2B29 JUMP JUMPDEST PUSH1 0x40 MLOAD DUP1 SWAP2 SUB SWAP1 RETURN JUMPDEST CALLVALUE DUP1 ISZERO PUSH2 0x79C JUMPI PUSH1 0x0 DUP1 REVERT JUMPDEST POP PUSH2 0x7A5 PUSH2 0x1A8B JUMP JUMPDEST PUSH1 0x40 MLOAD PUSH2 0x7B2 SWAP2 SWAP1 PUSH2 0x2CF1 JUMP JUMPDEST PUSH1 0x40 MLOAD DUP1 SWAP2 SUB SWAP1 RETURN JUMPDEST CALLVALUE DUP1 ISZERO PUSH2 0x7C7 JUMPI PUSH1 0x0 DUP1 REVERT JUMPDEST POP PUSH2 0x7D0 PUSH2 0x1A91 JUMP JUMPDEST PUSH1 0x40 MLOAD PUSH2 0x7DD SWAP2 SWAP1 PUSH2 0x2CF1 JUMP JUMPDEST PUSH1 0x40 MLOAD DUP1 SWAP2 SUB SWAP1 RETURN JUMPDEST CALLVALUE DUP1 ISZERO PUSH2 0x7F2 JUMPI PUSH1 0x0 DUP1 REVERT JUMPDEST POP PUSH2 0x80D PUSH1 0x4 DUP1 CALLDATASIZE SUB DUP2 ADD SWAP1 PUSH2 0x808 SWAP2 SWAP1 PUSH2 0x2F2F JUMP JUMPDEST PUSH2 0x1A97 JUMP JUMPDEST PUSH1 0x40 MLOAD PUSH2 0x81A SWAP2 SWAP1 PUSH2 0x2CF1 JUMP JUMPDEST PUSH1 0x40 MLOAD DUP1 SWAP2 SUB SWAP1 RETURN JUMPDEST PUSH2 0x83D PUSH1 0x4 DUP1 CALLDATASIZE SUB DUP2 ADD SWAP1 PUSH2 0x838 SWAP2 SWAP1 PUSH2 0x323F JUMP JUMPDEST PUSH2 0x1AA9 JUMP JUMPDEST STOP JUMPDEST CALLVALUE DUP1 ISZERO PUSH2 0x84B JUMPI PUSH1 0x0 DUP1 REVERT JUMPDEST POP PUSH2 0x866 PUSH1 0x4 DUP1 CALLDATASIZE SUB DUP2 ADD SWAP1 PUSH2 0x861 SWAP2 SWAP1 PUSH2 0x32B3 JUMP JUMPDEST PUSH2 0x1D12 JUMP JUMPDEST PUSH1 0x40 MLOAD PUSH2 0x873 SWAP2 SWAP1 PUSH2 0x2A7E JUMP JUMPDEST PUSH1 0x40 MLOAD DUP1 SWAP2 SUB SWAP1 RETURN JUMPDEST CALLVALUE DUP1 ISZERO PUSH2 0x888 JUMPI PUSH1 0x0 DUP1 REVERT JUMPDEST POP PUSH2 0x8A3 PUSH1 0x4 DUP1 CALLDATASIZE SUB DUP2 ADD SWAP1 PUSH2 0x89E SWAP2 SWAP1 PUSH2 0x32F3 JUMP JUMPDEST PUSH2 0x1DA6 JUMP JUMPDEST STOP JUMPDEST CALLVALUE DUP1 ISZERO PUSH2 0x8B1 JUMPI PUSH1 0x0 DUP1 REVERT JUMPDEST POP PUSH2 0x8CC PUSH1 0x4 DUP1 CALLDATASIZE SUB DUP2 ADD SWAP1 PUSH2 0x8C7 SWAP2 SWAP1 PUSH2 0x2F2F JUMP JUMPDEST PUSH2 0x1E13 JUMP JUMPDEST STOP JUMPDEST PUSH1 0x0 PUSH4 0x1FFC9A7 PUSH1 0xE0 SHL DUP3 PUSH28 0xFFFFFFFFFFFFFFFFFFFFFFFFFFFFFFFFFFFFFFFFFFFFFFFFFFFFFFFF NOT AND EQ DUP1 PUSH2 0x929 JUMPI POP PUSH4 0x80AC58CD PUSH1 0xE0 SHL DUP3 PUSH28 0xFFFFFFFFFFFFFFFFFFFFFFFFFFFFFFFFFFFFFFFFFFFFFFFFFFFFFFFF NOT AND EQ JUMPDEST DUP1 PUSH2 0x959 JUMPI POP PUSH4 0x5B5E139F PUSH1 0xE0 SHL DUP3 PUSH28 0xFFFFFFFFFFFFFFFFFFFFFFFFFFFFFFFFFFFFFFFFFFFFFFFFFFFFFFFF NOT AND EQ JUMPDEST SWAP1 POP SWAP2 SWAP1 POP JUMP JUMPDEST PUSH1 0x60 PUSH1 0x2 DUP1 SLOAD PUSH2 0x96F SWAP1 PUSH2 0x3362 JUMP JUMPDEST DUP1 PUSH1 0x1F ADD PUSH1 0x20 DUP1 SWAP2 DIV MUL PUSH1 0x20 ADD PUSH1 0x40 MLOAD SWAP1 DUP2 ADD PUSH1 0x40 MSTORE DUP1 SWAP3 SWAP2 SWAP1 DUP2 DUP2 MSTORE PUSH1 0x20 ADD DUP3 DUP1 SLOAD PUSH2 0x99B SWAP1 PUSH2 0x3362 JUMP JUMPDEST DUP1 ISZERO PUSH2 0x9E8 JUMPI DUP1 PUSH1 0x1F LT PUSH2 0x9BD JUMPI PUSH2 0x100 DUP1 DUP4 SLOAD DIV MUL DUP4 MSTORE SWAP2 PUSH1 0x20 ADD SWAP2 PUSH2 0x9E8 JUMP JUMPDEST DUP3 ADD SWAP2 SWAP1 PUSH1 0x0 MSTORE PUSH1 0x20 PUSH1 0x0 KECCAK256 SWAP1 JUMPDEST DUP2 SLOAD DUP2 MSTORE SWAP1 PUSH1 0x1 ADD SWAP1 PUSH1 0x20 ADD DUP1 DUP4 GT PUSH2 0x9CB JUMPI DUP3 SWAP1 SUB PUSH1 0x1F AND DUP3 ADD SWAP2 JUMPDEST POP POP POP POP POP SWAP1 POP SWAP1 JUMP JUMPDEST PUSH1 0x0 PUSH2 0x9FD DUP3 PUSH2 0x1E96 JUMP JUMPDEST PUSH2 0xA33 JUMPI PUSH1 0x40 MLOAD PUSH32 0xCF4700E400000000000000000000000000000000000000000000000000000000 DUP2 MSTORE PUSH1 0x4 ADD PUSH1 0x40 MLOAD DUP1 SWAP2 SUB SWAP1 REVERT JUMPDEST PUSH1 0x6 PUSH1 0x0 DUP4 DUP2 MSTORE PUSH1 0x20 ADD SWAP1 DUP2 MSTORE PUSH1 0x20 ADD PUSH1 0x0 KECCAK256 PUSH1 0x0 ADD PUSH1 0x0 SWAP1 SLOAD SWAP1 PUSH2 0x100 EXP SWAP1 DIV PUSH20 0xFFFFFFFFFFFFFFFFFFFFFFFFFFFFFFFFFFFFFFFF AND SWAP1 POP SWAP2 SWAP1 POP JUMP JUMPDEST PUSH2 0xA7A DUP3 PUSH2 0x1E96 JUMP JUMPDEST PUSH2 0xAB9 JUMPI PUSH1 0x40 MLOAD PUSH32 0x8C379A000000000000000000000000000000000000000000000000000000000 DUP2 MSTORE PUSH1 0x4 ADD PUSH2 0xAB0 SWAP1 PUSH2 0x33DF JUMP JUMPDEST PUSH1 0x40 MLOAD DUP1 SWAP2 SUB SWAP1 REVERT JUMPDEST CALLER PUSH20 0xFFFFFFFFFFFFFFFFFFFFFFFFFFFFFFFFFFFFFFFF AND PUSH2 0xAD9 DUP4 PUSH2 0x12A0 JUMP JUMPDEST PUSH20 0xFFFFFFFFFFFFFFFFFFFFFFFFFFFFFFFFFFFFFFFF AND EQ PUSH2 0xB2F JUMPI PUSH1 0x40 MLOAD PUSH32 0x8C379A000000000000000000000000000000000000000000000000000000000 DUP2 MSTORE PUSH1 0x4 ADD PUSH2 0xB26 SWAP1 PUSH2 0x344B JUMP JUMPDEST PUSH1 0x40 MLOAD DUP1 SWAP2 SUB SWAP1 REVERT JUMPDEST PUSH1 0x0 DUP2 ISZERO PUSH2 0xB8A JUMPI PUSH2 0xB40 DUP4 PUSH2 0x12B2 JUMP JUMPDEST SWAP1 POP PUSH1 0x0 DUP2 SUB PUSH2 0xB85 JUMPI PUSH1 0x40 MLOAD PUSH32 0x8C379A000000000000000000000000000000000000000000000000000000000 DUP2 MSTORE PUSH1 0x4 ADD PUSH2 0xB7C SWAP1 PUSH2 0x34B7 JUMP JUMPDEST PUSH1 0x40 MLOAD DUP1 SWAP2 SUB SWAP1 REVERT JUMPDEST PUSH2 0xBD9 JUMP JUMPDEST PUSH2 0xB93 DUP4 PUSH2 0x13F7 JUMP JUMPDEST SWAP1 POP PUSH1 0x0 DUP2 SUB PUSH2 0xBD8 JUMPI PUSH1 0x40 MLOAD PUSH32 0x8C379A000000000000000000000000000000000000000000000000000000000 DUP2 MSTORE PUSH1 0x4 ADD PUSH2 0xBCF SWAP1 PUSH2 0x3523 JUMP JUMPDEST PUSH1 0x40 MLOAD DUP1 SWAP2 SUB SWAP1 REVERT JUMPDEST JUMPDEST DUP2 ISZERO PUSH2 0xC10 JUMPI PUSH1 0x1 PUSH1 0xF PUSH1 0x0 DUP6 DUP2 MSTORE PUSH1 0x20 ADD SWAP1 DUP2 MSTORE PUSH1 0x20 ADD PUSH1 0x0 KECCAK256 PUSH1 0x0 PUSH2 0x100 EXP DUP2 SLOAD DUP2 PUSH1 0xFF MUL NOT AND SWAP1 DUP4 ISZERO ISZERO MUL OR SWAP1 SSTORE POP PUSH2 0xC3D JUMP JUMPDEST PUSH1 0x1 PUSH1 0xF PUSH1 0x0 DUP4 DUP2 MSTORE PUSH1 0x20 ADD SWAP1 DUP2 MSTORE PUSH1 0x20 ADD PUSH1 0x0 KECCAK256 PUSH1 0x0 PUSH2 0x100 EXP DUP2 SLOAD DUP2 PUSH1 0xFF MUL NOT AND SWAP1 DUP4 ISZERO ISZERO MUL OR SWAP1 SSTORE POP JUMPDEST POP POP POP JUMP JUMPDEST PUSH1 0x0 PUSH2 0xC4D DUP3 PUSH2 0x12A0 JUMP JUMPDEST SWAP1 POP DUP1 PUSH20 0xFFFFFFFFFFFFFFFFFFFFFFFFFFFFFFFFFFFFFFFF AND PUSH2 0xC6E PUSH2 0x1EF5 JUMP JUMPDEST PUSH20 0xFFFFFFFFFFFFFFFFFFFFFFFFFFFFFFFFFFFFFFFF AND EQ PUSH2 0xCD1 JUMPI PUSH2 0xC9A DUP2 PUSH2 0xC95 PUSH2 0x1EF5 JUMP JUMPDEST PUSH2 0x1D12 JUMP JUMPDEST PUSH2 0xCD0 JUMPI PUSH1 0x40 MLOAD PUSH32 0xCFB3B94200000000000000000000000000000000000000000000000000000000 DUP2 MSTORE PUSH1 0x4 ADD PUSH1 0x40 MLOAD DUP1 SWAP2 SUB SWAP1 REVERT JUMPDEST JUMPDEST DUP3 PUSH1 0x6 PUSH1 0x0 DUP5 DUP2 MSTORE PUSH1 0x20 ADD SWAP1 DUP2 MSTORE PUSH1 0x20 ADD PUSH1 0x0 KECCAK256 PUSH1 0x0 ADD PUSH1 0x0 PUSH2 0x100 EXP DUP2 SLOAD DUP2 PUSH20 0xFFFFFFFFFFFFFFFFFFFFFFFFFFFFFFFFFFFFFFFF MUL NOT AND SWAP1 DUP4 PUSH20 0xFFFFFFFFFFFFFFFFFFFFFFFFFFFFFFFFFFFFFFFF AND MUL OR SWAP1 SSTORE POP DUP2 DUP4 PUSH20 0xFFFFFFFFFFFFFFFFFFFFFFFFFFFFFFFFFFFFFFFF AND DUP3 PUSH20 0xFFFFFFFFFFFFFFFFFFFFFFFFFFFFFFFFFFFFFFFF AND PUSH32 0x8C5BE1E5EBEC7D5BD14F71427D1E84F3DD0314C0F7B2291E5B200AC8C7C3B925 PUSH1 0x40 MLOAD PUSH1 0x40 MLOAD DUP1 SWAP2 SUB SWAP1 LOG4 POP POP POP JUMP JUMPDEST PUSH1 0x0 PUSH2 0xD90 PUSH2 0x1EFD JUMP JUMPDEST PUSH1 0x1 SLOAD PUSH1 0x0 SLOAD SUB SUB SWAP1 POP SWAP1 JUMP JUMPDEST PUSH2 0xDA5 PUSH2 0x1F06 JUMP JUMPDEST DUP1 PUSH1 0xC DUP2 SWAP1 SSTORE POP POP JUMP JUMPDEST PUSH1 0x0 PUSH2 0xDBA DUP3 PUSH2 0x1F84 JUMP JUMPDEST SWAP1 POP DUP4 PUSH20 0xFFFFFFFFFFFFFFFFFFFFFFFFFFFFFFFFFFFFFFFF AND DUP2 PUSH20 0xFFFFFFFFFFFFFFFFFFFFFFFFFFFFFFFFFFFFFFFF AND EQ PUSH2 0xE21 JUMPI PUSH1 0x40 MLOAD PUSH32 0xA114810000000000000000000000000000000000000000000000000000000000 DUP2 MSTORE PUSH1 0x4 ADD PUSH1 0x40 MLOAD DUP1 SWAP2 SUB SWAP1 REVERT JUMPDEST PUSH1 0x0 DUP1 PUSH2 0xE2D DUP5 PUSH2 0x2050 JUMP JUMPDEST SWAP2 POP SWAP2 POP PUSH2 0xE43 DUP2 DUP8 PUSH2 0xE3E PUSH2 0x1EF5 JUMP JUMPDEST PUSH2 0x2077 JUMP JUMPDEST PUSH2 0xE8F JUMPI PUSH2 0xE58 DUP7 PUSH2 0xE53 PUSH2 0x1EF5 JUMP JUMPDEST PUSH2 0x1D12 JUMP JUMPDEST PUSH2 0xE8E JUMPI PUSH1 0x40 MLOAD PUSH32 0x59C896BE00000000000000000000000000000000000000000000000000000000 DUP2 MSTORE PUSH1 0x4 ADD PUSH1 0x40 MLOAD DUP1 SWAP2 SUB SWAP1 REVERT JUMPDEST JUMPDEST PUSH1 0x0 PUSH20 0xFFFFFFFFFFFFFFFFFFFFFFFFFFFFFFFFFFFFFFFF AND DUP6 PUSH20 0xFFFFFFFFFFFFFFFFFFFFFFFFFFFFFFFFFFFFFFFF AND SUB PUSH2 0xEF5 JUMPI PUSH1 0x40 MLOAD PUSH32 0xEA553B3400000000000000000000000000000000000000000000000000000000 DUP2 MSTORE PUSH1 0x4 ADD PUSH1 0x40 MLOAD DUP1 SWAP2 SUB SWAP1 REVERT JUMPDEST PUSH2 0xF02 DUP7 DUP7 DUP7 PUSH1 0x1 PUSH2 0x20BB JUMP JUMPDEST DUP1 ISZERO PUSH2 0xF0D JUMPI PUSH1 0x0 DUP3 SSTORE JUMPDEST PUSH1 0x5 PUSH1 0x0 DUP8 PUSH20 0xFFFFFFFFFFFFFFFFFFFFFFFFFFFFFFFFFFFFFFFF AND PUSH20 0xFFFFFFFFFFFFFFFFFFFFFFFFFFFFFFFFFFFFFFFF AND DUP2 MSTORE PUSH1 0x20 ADD SWAP1 DUP2 MSTORE PUSH1 0x20 ADD PUSH1 0x0 KECCAK256 PUSH1 0x0 DUP2 SLOAD PUSH1 0x1 SWAP1 SUB SWAP2 SWAP1 POP DUP2 SWAP1 SSTORE POP PUSH1 0x5 PUSH1 0x0 DUP7 PUSH20 0xFFFFFFFFFFFFFFFFFFFFFFFFFFFFFFFFFFFFFFFF AND PUSH20 0xFFFFFFFFFFFFFFFFFFFFFFFFFFFFFFFFFFFFFFFF AND DUP2 MSTORE PUSH1 0x20 ADD SWAP1 DUP2 MSTORE PUSH1 0x20 ADD PUSH1 0x0 KECCAK256 PUSH1 0x0 DUP2 SLOAD PUSH1 0x1 ADD SWAP2 SWAP1 POP DUP2 SWAP1 SSTORE POP PUSH2 0xFDB DUP6 PUSH2 0xFB7 DUP9 DUP9 DUP8 PUSH2 0x20C1 JUMP JUMPDEST PUSH29 0x200000000000000000000000000000000000000000000000000000000 OR PUSH2 0x20E9 JUMP JUMPDEST PUSH1 0x4 PUSH1 0x0 DUP7 DUP2 MSTORE PUSH1 0x20 ADD SWAP1 DUP2 MSTORE PUSH1 0x20 ADD PUSH1 0x0 KECCAK256 DUP2 SWAP1 SSTORE POP PUSH1 0x0 PUSH29 0x200000000000000000000000000000000000000000000000000000000 DUP5 AND SUB PUSH2 0x1061 JUMPI PUSH1 0x0 PUSH1 0x1 DUP6 ADD SWAP1 POP PUSH1 0x0 PUSH1 0x4 PUSH1 0x0 DUP4 DUP2 MSTORE PUSH1 0x20 ADD SWAP1 DUP2 MSTORE PUSH1 0x20 ADD PUSH1 0x0 KECCAK256 SLOAD SUB PUSH2 0x105F JUMPI PUSH1 0x0 SLOAD DUP2 EQ PUSH2 0x105E JUMPI DUP4 PUSH1 0x4 PUSH1 0x0 DUP4 DUP2 MSTORE PUSH1 0x20 ADD SWAP1 DUP2 MSTORE PUSH1 0x20 ADD PUSH1 0x0 KECCAK256 DUP2 SWAP1 SSTORE POP JUMPDEST JUMPDEST POP JUMPDEST DUP4 DUP6 PUSH20 0xFFFFFFFFFFFFFFFFFFFFFFFFFFFFFFFFFFFFFFFF AND DUP8 PUSH20 0xFFFFFFFFFFFFFFFFFFFFFFFFFFFFFFFFFFFFFFFF AND PUSH32 0xDDF252AD1BE2C89B69C2B068FC378DAA952BA7F163C4A11628F55A4DF523B3EF PUSH1 0x40 MLOAD PUSH1 0x40 MLOAD DUP1 SWAP2 SUB SWAP1 LOG4 PUSH2 0x10C9 DUP7 DUP7 DUP7 PUSH1 0x1 PUSH2 0x2114 JUMP JUMPDEST POP POP POP POP POP POP JUMP JUMPDEST PUSH2 0x10D9 PUSH2 0x1F06 JUMP JUMPDEST PUSH1 0x0 PUSH1 0x1 SWAP1 POP PUSH20 0x108DB270C4F05E49F5B5AC9CA87BDFBD19C5EB44 PUSH20 0xFFFFFFFFFFFFFFFFFFFFFFFFFFFFFFFFFFFFFFFF AND SELFBALANCE PUSH1 0x40 MLOAD PUSH2 0x1117 SWAP1 PUSH2 0x3574 JUMP JUMPDEST PUSH1 0x0 PUSH1 0x40 MLOAD DUP1 DUP4 SUB DUP2 DUP6 DUP8 GAS CALL SWAP3 POP POP POP RETURNDATASIZE DUP1 PUSH1 0x0 DUP2 EQ PUSH2 0x1154 JUMPI PUSH1 0x40 MLOAD SWAP2 POP PUSH1 0x1F NOT PUSH1 0x3F RETURNDATASIZE ADD AND DUP3 ADD PUSH1 0x40 MSTORE RETURNDATASIZE DUP3 MSTORE RETURNDATASIZE PUSH1 0x0 PUSH1 0x20 DUP5 ADD RETURNDATACOPY PUSH2 0x1159 JUMP JUMPDEST PUSH1 0x60 SWAP2 POP JUMPDEST POP POP DUP1 SWAP2 POP POP DUP1 PUSH2 0x119F JUMPI PUSH1 0x40 MLOAD PUSH32 0x8C379A000000000000000000000000000000000000000000000000000000000 DUP2 MSTORE PUSH1 0x4 ADD PUSH2 0x1196 SWAP1 PUSH2 0x35D5 JUMP JUMPDEST PUSH1 0x40 MLOAD DUP1 SWAP2 SUB SWAP1 REVERT JUMPDEST POP JUMP JUMPDEST PUSH2 0x11BD DUP4 DUP4 DUP4 PUSH1 0x40 MLOAD DUP1 PUSH1 0x20 ADD PUSH1 0x40 MSTORE DUP1 PUSH1 0x0 DUP2 MSTORE POP PUSH2 0x1837 JUMP JUMPDEST POP POP POP JUMP JUMPDEST PUSH2 0x11CA PUSH2 0x1F06 JUMP JUMPDEST DUP1 PUSH1 0xA SWAP1 DUP2 PUSH2 0x11D9 SWAP2 SWAP1 PUSH2 0x37A1 JUMP JUMPDEST POP POP JUMP JUMPDEST PUSH2 0x11E5 PUSH2 0x1F06 JUMP JUMPDEST DUP1 PUSH1 0x8 PUSH1 0x14 PUSH2 0x100 EXP DUP2 SLOAD DUP2 PUSH1 0xFF MUL NOT AND SWAP1 DUP4 PUSH1 0x2 DUP2 GT ISZERO PUSH2 0x120A JUMPI PUSH2 0x1209 PUSH2 0x314D JUMP JUMPDEST JUMPDEST MUL OR SWAP1 SSTORE POP POP JUMP JUMPDEST PUSH1 0x9 DUP1 SLOAD PUSH2 0x121F SWAP1 PUSH2 0x3362 JUMP JUMPDEST DUP1 PUSH1 0x1F ADD PUSH1 0x20 DUP1 SWAP2 DIV MUL PUSH1 0x20 ADD PUSH1 0x40 MLOAD SWAP1 DUP2 ADD PUSH1 0x40 MSTORE DUP1 SWAP3 SWAP2 SWAP1 DUP2 DUP2 MSTORE PUSH1 0x20 ADD DUP3 DUP1 SLOAD PUSH2 0x124B SWAP1 PUSH2 0x3362 JUMP JUMPDEST DUP1 ISZERO PUSH2 0x1298 JUMPI DUP1 PUSH1 0x1F LT PUSH2 0x126D JUMPI PUSH2 0x100 DUP1 DUP4 SLOAD DIV MUL DUP4 MSTORE SWAP2 PUSH1 0x20 ADD SWAP2 PUSH2 0x1298 JUMP JUMPDEST DUP3 ADD SWAP2 SWAP1 PUSH1 0x0 MSTORE PUSH1 0x20 PUSH1 0x0 KECCAK256 SWAP1 JUMPDEST DUP2 SLOAD DUP2 MSTORE SWAP1 PUSH1 0x1 ADD SWAP1 PUSH1 0x20 ADD DUP1 DUP4 GT PUSH2 0x127B JUMPI DUP3 SWAP1 SUB PUSH1 0x1F AND DUP3 ADD SWAP2 JUMPDEST POP POP POP POP POP DUP2 JUMP JUMPDEST PUSH1 0x0 PUSH2 0x12AB DUP3 PUSH2 0x1F84 JUMP JUMPDEST SWAP1 POP SWAP2 SWAP1 POP JUMP JUMPDEST PUSH1 0x0 DUP1 PUSH2 0x12BE DUP4 PUSH2 0x1E96 JUMP JUMPDEST ISZERO PUSH2 0x1301 JUMPI PUSH1 0xD SLOAD DUP4 SUB PUSH2 0x12D5 JUMPI PUSH1 0x1 SWAP1 POP PUSH2 0x1300 JUMP JUMPDEST PUSH2 0x12EA PUSH1 0x1 DUP5 PUSH2 0x12E5 SWAP2 SWAP1 PUSH2 0x38A2 JUMP JUMPDEST PUSH2 0x1E96 JUMP JUMPDEST ISZERO PUSH2 0x12FF JUMPI PUSH1 0x1 DUP4 PUSH2 0x12FC SWAP2 SWAP1 PUSH2 0x38A2 JUMP JUMPDEST SWAP1 POP JUMPDEST JUMPDEST JUMPDEST DUP1 SWAP2 POP POP SWAP2 SWAP1 POP JUMP JUMPDEST PUSH1 0x0 DUP1 PUSH20 0xFFFFFFFFFFFFFFFFFFFFFFFFFFFFFFFFFFFFFFFF AND DUP3 PUSH20 0xFFFFFFFFFFFFFFFFFFFFFFFFFFFFFFFFFFFFFFFF AND SUB PUSH2 0x1371 JUMPI PUSH1 0x40 MLOAD PUSH32 0x8F4EB60400000000000000000000000000000000000000000000000000000000 DUP2 MSTORE PUSH1 0x4 ADD PUSH1 0x40 MLOAD DUP1 SWAP2 SUB SWAP1 REVERT JUMPDEST PUSH8 0xFFFFFFFFFFFFFFFF PUSH1 0x5 PUSH1 0x0 DUP5 PUSH20 0xFFFFFFFFFFFFFFFFFFFFFFFFFFFFFFFFFFFFFFFF AND PUSH20 0xFFFFFFFFFFFFFFFFFFFFFFFFFFFFFFFFFFFFFFFF AND DUP2 MSTORE PUSH1 0x20 ADD SWAP1 DUP2 MSTORE PUSH1 0x20 ADD PUSH1 0x0 KECCAK256 SLOAD AND SWAP1 POP SWAP2 SWAP1 POP JUMP JUMPDEST PUSH2 0x13CA PUSH2 0x1F06 JUMP JUMPDEST PUSH2 0x13D4 PUSH1 0x0 PUSH2 0x211A JUMP JUMPDEST JUMP JUMPDEST PUSH2 0x13DE PUSH2 0x1F06 JUMP JUMPDEST DUP1 PUSH1 0x9 SWAP1 DUP2 PUSH2 0x13ED SWAP2 SWAP1 PUSH2 0x37A1 JUMP JUMPDEST POP POP JUMP JUMPDEST PUSH1 0xC SLOAD DUP2 JUMP JUMPDEST PUSH1 0x0 DUP1 PUSH2 0x1403 DUP4 PUSH2 0x1E96 JUMP JUMPDEST ISZERO PUSH2 0x143F JUMPI PUSH1 0x1 DUP4 EQ DUP1 ISZERO PUSH2 0x141F JUMPI POP PUSH2 0x141E PUSH1 0xD SLOAD PUSH2 0x1E96 JUMP JUMPDEST JUMPDEST ISZERO PUSH2 0x142E JUMPI PUSH1 0xD SLOAD SWAP1 POP PUSH2 0x143E JUMP JUMPDEST PUSH1 0x1 DUP4 PUSH2 0x143B SWAP2 SWAP1 PUSH2 0x38D6 JUMP JUMPDEST SWAP1 POP JUMPDEST JUMPDEST DUP1 SWAP2 POP POP SWAP2 SWAP1 POP JUMP JUMPDEST PUSH1 0x0 PUSH1 0x8 PUSH1 0x0 SWAP1 SLOAD SWAP1 PUSH2 0x100 EXP SWAP1 DIV PUSH20 0xFFFFFFFFFFFFFFFFFFFFFFFFFFFFFFFFFFFFFFFF AND SWAP1 POP SWAP1 JUMP JUMPDEST PUSH1 0xE SLOAD DUP2 JUMP JUMPDEST PUSH1 0x60 PUSH1 0x3 DUP1 SLOAD PUSH2 0x1487 SWAP1 PUSH2 0x3362 JUMP JUMPDEST DUP1 PUSH1 0x1F ADD PUSH1 0x20 DUP1 SWAP2 DIV MUL PUSH1 0x20 ADD PUSH1 0x40 MLOAD SWAP1 DUP2 ADD PUSH1 0x40 MSTORE DUP1 SWAP3 SWAP2 SWAP1 DUP2 DUP2 MSTORE PUSH1 0x20 ADD DUP3 DUP1 SLOAD PUSH2 0x14B3 SWAP1 PUSH2 0x3362 JUMP JUMPDEST DUP1 ISZERO PUSH2 0x1500 JUMPI DUP1 PUSH1 0x1F LT PUSH2 0x14D5 JUMPI PUSH2 0x100 DUP1 DUP4 SLOAD DIV MUL DUP4 MSTORE SWAP2 PUSH1 0x20 ADD SWAP2 PUSH2 0x1500 JUMP JUMPDEST DUP3 ADD SWAP2 SWAP1 PUSH1 0x0 MSTORE PUSH1 0x20 PUSH1 0x0 KECCAK256 SWAP1 JUMPDEST DUP2 SLOAD DUP2 MSTORE SWAP1 PUSH1 0x1 ADD SWAP1 PUSH1 0x20 ADD DUP1 DUP4 GT PUSH2 0x14E3 JUMPI DUP3 SWAP1 SUB PUSH1 0x1F AND DUP3 ADD SWAP2 JUMPDEST POP POP POP POP POP SWAP1 POP SWAP1 JUMP JUMPDEST DUP1 PUSH1 0x0 DUP2 GT DUP1 ISZERO PUSH2 0x151D JUMPI POP PUSH1 0xE SLOAD DUP2 GT ISZERO JUMPDEST PUSH2 0x155C JUMPI PUSH1 0x40 MLOAD PUSH32 0x8C379A000000000000000000000000000000000000000000000000000000000 DUP2 MSTORE PUSH1 0x4 ADD PUSH2 0x1553 SWAP1 PUSH2 0x3956 JUMP JUMPDEST PUSH1 0x40 MLOAD DUP1 SWAP2 SUB SWAP1 REVERT JUMPDEST PUSH1 0xD SLOAD DUP2 PUSH2 0x1568 PUSH2 0xD86 JUMP JUMPDEST PUSH2 0x1572 SWAP2 SWAP1 PUSH2 0x38A2 JUMP JUMPDEST GT ISZERO PUSH2 0x15B3 JUMPI PUSH1 0x40 MLOAD PUSH32 0x8C379A000000000000000000000000000000000000000000000000000000000 DUP2 MSTORE PUSH1 0x4 ADD PUSH2 0x15AA SWAP1 PUSH2 0x39C2 JUMP JUMPDEST PUSH1 0x40 MLOAD DUP1 SWAP2 SUB SWAP1 REVERT JUMPDEST PUSH1 0x2 DUP1 DUP2 GT ISZERO PUSH2 0x15C6 JUMPI PUSH2 0x15C5 PUSH2 0x314D JUMP JUMPDEST JUMPDEST PUSH1 0x8 PUSH1 0x14 SWAP1 SLOAD SWAP1 PUSH2 0x100 EXP SWAP1 DIV PUSH1 0xFF AND PUSH1 0x2 DUP2 GT ISZERO PUSH2 0x15E8 JUMPI PUSH2 0x15E7 PUSH2 0x314D JUMP JUMPDEST JUMPDEST EQ PUSH2 0x1628 JUMPI PUSH1 0x40 MLOAD PUSH32 0x8C379A000000000000000000000000000000000000000000000000000000000 DUP2 MSTORE PUSH1 0x4 ADD PUSH2 0x161F SWAP1 PUSH2 0x3A2E JUMP JUMPDEST PUSH1 0x40 MLOAD DUP1 SWAP2 SUB SWAP1 REVERT JUMPDEST DUP2 PUSH1 0xC SLOAD PUSH2 0x1636 SWAP2 SWAP1 PUSH2 0x3A4E JUMP JUMPDEST CALLVALUE LT ISZERO PUSH2 0x1678 JUMPI PUSH1 0x40 MLOAD PUSH32 0x8C379A000000000000000000000000000000000000000000000000000000000 DUP2 MSTORE PUSH1 0x4 ADD PUSH2 0x166F SWAP1 PUSH2 0x3ADC JUMP JUMPDEST PUSH1 0x40 MLOAD DUP1 SWAP2 SUB SWAP1 REVERT JUMPDEST PUSH2 0x1682 CALLER DUP4 PUSH2 0x21E0 JUMP JUMPDEST POP POP JUMP JUMPDEST DUP1 PUSH1 0x7 PUSH1 0x0 PUSH2 0x1693 PUSH2 0x1EF5 JUMP JUMPDEST PUSH20 0xFFFFFFFFFFFFFFFFFFFFFFFFFFFFFFFFFFFFFFFF AND PUSH20 0xFFFFFFFFFFFFFFFFFFFFFFFFFFFFFFFFFFFFFFFF AND DUP2 MSTORE PUSH1 0x20 ADD SWAP1 DUP2 MSTORE PUSH1 0x20 ADD PUSH1 0x0 KECCAK256 PUSH1 0x0 DUP5 PUSH20 0xFFFFFFFFFFFFFFFFFFFFFFFFFFFFFFFFFFFFFFFF AND PUSH20 0xFFFFFFFFFFFFFFFFFFFFFFFFFFFFFFFFFFFFFFFF AND DUP2 MSTORE PUSH1 0x20 ADD SWAP1 DUP2 MSTORE PUSH1 0x20 ADD PUSH1 0x0 KECCAK256 PUSH1 0x0 PUSH2 0x100 EXP DUP2 SLOAD DUP2 PUSH1 0xFF MUL NOT AND SWAP1 DUP4 ISZERO ISZERO MUL OR SWAP1 SSTORE POP DUP2 PUSH20 0xFFFFFFFFFFFFFFFFFFFFFFFFFFFFFFFFFFFFFFFF AND PUSH2 0x1740 PUSH2 0x1EF5 JUMP JUMPDEST PUSH20 0xFFFFFFFFFFFFFFFFFFFFFFFFFFFFFFFFFFFFFFFF AND PUSH32 0x17307EAB39AB6107E8899845AD3D59BD9653F200F220920489CA2B5937696C31 DUP4 PUSH1 0x40 MLOAD PUSH2 0x1785 SWAP2 SWAP1 PUSH2 0x2A7E JUMP JUMPDEST PUSH1 0x40 MLOAD DUP1 SWAP2 SUB SWAP1 LOG3 POP POP JUMP JUMPDEST PUSH1 0xA DUP1 SLOAD PUSH2 0x179E SWAP1 PUSH2 0x3362 JUMP JUMPDEST DUP1 PUSH1 0x1F ADD PUSH1 0x20 DUP1 SWAP2 DIV MUL PUSH1 0x20 ADD PUSH1 0x40 MLOAD SWAP1 DUP2 ADD PUSH1 0x40 MSTORE DUP1 SWAP3 SWAP2 SWAP1 DUP2 DUP2 MSTORE PUSH1 0x20 ADD DUP3 DUP1 SLOAD PUSH2 0x17CA SWAP1 PUSH2 0x3362 JUMP JUMPDEST DUP1 ISZERO PUSH2 0x1817 JUMPI DUP1 PUSH1 0x1F LT PUSH2 0x17EC JUMPI PUSH2 0x100 DUP1 DUP4 SLOAD DIV MUL DUP4 MSTORE SWAP2 PUSH1 0x20 ADD SWAP2 PUSH2 0x1817 JUMP JUMPDEST DUP3 ADD SWAP2 SWAP1 PUSH1 0x0 MSTORE PUSH1 0x20 PUSH1 0x0 KECCAK256 SWAP1 JUMPDEST DUP2 SLOAD DUP2 MSTORE SWAP1 PUSH1 0x1 ADD SWAP1 PUSH1 0x20 ADD DUP1 DUP4 GT PUSH2 0x17FA JUMPI DUP3 SWAP1 SUB PUSH1 0x1F AND DUP3 ADD SWAP2 JUMPDEST POP POP POP POP POP DUP2 JUMP JUMPDEST PUSH1 0x10 SLOAD DUP2 JUMP JUMPDEST PUSH2 0x182D PUSH2 0x1F06 JUMP JUMPDEST DUP1 PUSH1 0xE DUP2 SWAP1 SSTORE POP POP JUMP JUMPDEST PUSH2 0x1842 DUP5 DUP5 DUP5 PUSH2 0xDAF JUMP JUMPDEST PUSH1 0x0 DUP4 PUSH20 0xFFFFFFFFFFFFFFFFFFFFFFFFFFFFFFFFFFFFFFFF AND EXTCODESIZE EQ PUSH2 0x18A4 JUMPI PUSH2 0x186D DUP5 DUP5 DUP5 DUP5 PUSH2 0x21FE JUMP JUMPDEST PUSH2 0x18A3 JUMPI PUSH1 0x40 MLOAD PUSH32 0xD1A57ED600000000000000000000000000000000000000000000000000000000 DUP2 MSTORE PUSH1 0x4 ADD PUSH1 0x40 MLOAD DUP1 SWAP2 SUB SWAP1 REVERT JUMPDEST JUMPDEST POP POP POP POP JUMP JUMPDEST PUSH2 0x18B2 PUSH2 0x1F06 JUMP JUMPDEST DUP1 PUSH1 0x10 DUP2 SWAP1 SSTORE POP POP JUMP JUMPDEST PUSH1 0x8 PUSH1 0x14 SWAP1 SLOAD SWAP1 PUSH2 0x100 EXP SWAP1 DIV PUSH1 0xFF AND DUP2 JUMP JUMPDEST PUSH1 0x60 PUSH2 0x18DA DUP3 PUSH2 0x1E96 JUMP JUMPDEST PUSH2 0x1919 JUMPI PUSH1 0x40 MLOAD PUSH32 0x8C379A000000000000000000000000000000000000000000000000000000000 DUP2 MSTORE PUSH1 0x4 ADD PUSH2 0x1910 SWAP1 PUSH2 0x3B6E JUMP JUMPDEST PUSH1 0x40 MLOAD DUP1 SWAP2 SUB SWAP1 REVERT JUMPDEST PUSH1 0x0 PUSH2 0x1923 PUSH2 0x234E JUMP JUMPDEST SWAP1 POP PUSH1 0x0 DUP4 SWAP1 POP PUSH1 0x0 PUSH2 0x1935 DUP6 PUSH2 0x12B2 JUMP JUMPDEST SWAP1 POP PUSH1 0x0 PUSH2 0x1942 DUP7 PUSH2 0x13F7 JUMP JUMPDEST SWAP1 POP PUSH1 0x0 DUP3 EQ ISZERO DUP1 ISZERO PUSH2 0x1972 JUMPI POP PUSH1 0xF PUSH1 0x0 DUP8 DUP2 MSTORE PUSH1 0x20 ADD SWAP1 DUP2 MSTORE PUSH1 0x20 ADD PUSH1 0x0 KECCAK256 PUSH1 0x0 SWAP1 SLOAD SWAP1 PUSH2 0x100 EXP SWAP1 DIV PUSH1 0xFF AND JUMPDEST ISZERO PUSH2 0x1980 JUMPI PUSH3 0x10000 DUP4 OR SWAP3 POP JUMPDEST PUSH1 0x0 DUP2 EQ ISZERO DUP1 ISZERO PUSH2 0x19AE JUMPI POP PUSH1 0xF PUSH1 0x0 DUP3 DUP2 MSTORE PUSH1 0x20 ADD SWAP1 DUP2 MSTORE PUSH1 0x20 ADD PUSH1 0x0 KECCAK256 PUSH1 0x0 SWAP1 SLOAD SWAP1 PUSH2 0x100 EXP SWAP1 DIV PUSH1 0xFF AND JUMPDEST ISZERO PUSH2 0x19BC JUMPI PUSH3 0x20000 DUP4 OR SWAP3 POP JUMPDEST PUSH1 0x0 DUP5 MLOAD GT PUSH2 0x1A55 JUMPI PUSH1 0xA DUP1 SLOAD PUSH2 0x19D2 SWAP1 PUSH2 0x3362 JUMP JUMPDEST DUP1 PUSH1 0x1F ADD PUSH1 0x20 DUP1 SWAP2 DIV MUL PUSH1 0x20 ADD PUSH1 0x40 MLOAD SWAP1 DUP2 ADD PUSH1 0x40 MSTORE DUP1 SWAP3 SWAP2 SWAP1 DUP2 DUP2 MSTORE PUSH1 0x20 ADD DUP3 DUP1 SLOAD PUSH2 0x19FE SWAP1 PUSH2 0x3362 JUMP JUMPDEST DUP1 ISZERO PUSH2 0x1A4B JUMPI DUP1 PUSH1 0x1F LT PUSH2 0x1A20 JUMPI PUSH2 0x100 DUP1 DUP4 SLOAD DIV MUL DUP4 MSTORE SWAP2 PUSH1 0x20 ADD SWAP2 PUSH2 0x1A4B JUMP JUMPDEST DUP3 ADD SWAP2 SWAP1 PUSH1 0x0 MSTORE PUSH1 0x20 PUSH1 0x0 KECCAK256 SWAP1 JUMPDEST DUP2 SLOAD DUP2 MSTORE SWAP1 PUSH1 0x1 ADD SWAP1 PUSH1 0x20 ADD DUP1 DUP4 GT PUSH2 0x1A2E JUMPI DUP3 SWAP1 SUB PUSH1 0x1F AND DUP3 ADD SWAP2 JUMPDEST POP POP POP POP POP PUSH2 0x1A80 JUMP JUMPDEST DUP4 PUSH2 0x1A5F DUP8 PUSH2 0x23E0 JUMP JUMPDEST PUSH1 0x40 MLOAD PUSH1 0x20 ADD PUSH2 0x1A70 SWAP3 SWAP2 SWAP1 PUSH2 0x3C16 JUMP JUMPDEST PUSH1 0x40 MLOAD PUSH1 0x20 DUP2 DUP4 SUB SUB DUP2 MSTORE SWAP1 PUSH1 0x40 MSTORE JUMPDEST SWAP5 POP POP POP POP POP SWAP2 SWAP1 POP JUMP JUMPDEST PUSH1 0xD SLOAD DUP2 JUMP JUMPDEST PUSH1 0xB SLOAD DUP2 JUMP JUMPDEST PUSH1 0x0 PUSH2 0x1AA2 DUP3 PUSH2 0x24AE JUMP JUMPDEST SWAP1 POP SWAP2 SWAP1 POP JUMP JUMPDEST DUP4 PUSH1 0x0 DUP2 GT DUP1 ISZERO PUSH2 0x1ABC JUMPI POP PUSH1 0xE SLOAD DUP2 GT ISZERO JUMPDEST PUSH2 0x1AFB JUMPI PUSH1 0x40 MLOAD PUSH32 0x8C379A000000000000000000000000000000000000000000000000000000000 DUP2 MSTORE PUSH1 0x4 ADD PUSH2 0x1AF2 SWAP1 PUSH2 0x3956 JUMP JUMPDEST PUSH1 0x40 MLOAD DUP1 SWAP2 SUB SWAP1 REVERT JUMPDEST PUSH1 0xD SLOAD DUP2 PUSH2 0x1B07 PUSH2 0xD86 JUMP JUMPDEST PUSH2 0x1B11 SWAP2 SWAP1 PUSH2 0x38A2 JUMP JUMPDEST GT ISZERO PUSH2 0x1B52 JUMPI PUSH1 0x40 MLOAD PUSH32 0x8C379A000000000000000000000000000000000000000000000000000000000 DUP2 MSTORE PUSH1 0x4 ADD PUSH2 0x1B49 SWAP1 PUSH2 0x39C2 JUMP JUMPDEST PUSH1 0x40 MLOAD DUP1 SWAP2 SUB SWAP1 REVERT JUMPDEST PUSH1 0x1 PUSH1 0x2 DUP2 GT ISZERO PUSH2 0x1B66 JUMPI PUSH2 0x1B65 PUSH2 0x314D JUMP JUMPDEST JUMPDEST PUSH1 0x8 PUSH1 0x14 SWAP1 SLOAD SWAP1 PUSH2 0x100 EXP SWAP1 DIV PUSH1 0xFF AND PUSH1 0x2 DUP2 GT ISZERO PUSH2 0x1B88 JUMPI PUSH2 0x1B87 PUSH2 0x314D JUMP JUMPDEST JUMPDEST EQ PUSH2 0x1BC8 JUMPI PUSH1 0x40 MLOAD PUSH32 0x8C379A000000000000000000000000000000000000000000000000000000000 DUP2 MSTORE PUSH1 0x4 ADD PUSH2 0x1BBF SWAP1 PUSH2 0x3C91 JUMP JUMPDEST PUSH1 0x40 MLOAD DUP1 SWAP2 SUB SWAP1 REVERT JUMPDEST DUP4 DUP6 PUSH2 0x1BD3 CALLER PUSH2 0x1A97 JUMP JUMPDEST PUSH2 0x1BDD SWAP2 SWAP1 PUSH2 0x38A2 JUMP JUMPDEST GT ISZERO PUSH2 0x1C1E JUMPI PUSH1 0x40 MLOAD PUSH32 0x8C379A000000000000000000000000000000000000000000000000000000000 DUP2 MSTORE PUSH1 0x4 ADD PUSH2 0x1C15 SWAP1 PUSH2 0x3CFD JUMP JUMPDEST PUSH1 0x40 MLOAD DUP1 SWAP2 SUB SWAP1 REVERT JUMPDEST PUSH2 0x1C72 PUSH2 0x1C2B CALLER DUP7 PUSH2 0x2505 JUMP JUMPDEST DUP5 DUP5 DUP1 DUP1 PUSH1 0x20 MUL PUSH1 0x20 ADD PUSH1 0x40 MLOAD SWAP1 DUP2 ADD PUSH1 0x40 MSTORE DUP1 SWAP4 SWAP3 SWAP2 SWAP1 DUP2 DUP2 MSTORE PUSH1 0x20 ADD DUP4 DUP4 PUSH1 0x20 MUL DUP1 DUP3 DUP5 CALLDATACOPY PUSH1 0x0 DUP2 DUP5 ADD MSTORE PUSH1 0x1F NOT PUSH1 0x1F DUP3 ADD AND SWAP1 POP DUP1 DUP4 ADD SWAP3 POP POP POP POP POP POP POP PUSH2 0x2538 JUMP JUMPDEST PUSH2 0x1CB1 JUMPI PUSH1 0x40 MLOAD PUSH32 0x8C379A000000000000000000000000000000000000000000000000000000000 DUP2 MSTORE PUSH1 0x4 ADD PUSH2 0x1CA8 SWAP1 PUSH2 0x3D69 JUMP JUMPDEST PUSH1 0x40 MLOAD DUP1 SWAP2 SUB SWAP1 REVERT JUMPDEST DUP5 PUSH1 0xB SLOAD PUSH2 0x1CBF SWAP2 SWAP1 PUSH2 0x3A4E JUMP JUMPDEST CALLVALUE LT ISZERO PUSH2 0x1D01 JUMPI PUSH1 0x40 MLOAD PUSH32 0x8C379A000000000000000000000000000000000000000000000000000000000 DUP2 MSTORE PUSH1 0x4 ADD PUSH2 0x1CF8 SWAP1 PUSH2 0x3ADC JUMP JUMPDEST PUSH1 0x40 MLOAD DUP1 SWAP2 SUB SWAP1 REVERT JUMPDEST PUSH2 0x1D0B CALLER DUP7 PUSH2 0x21E0 JUMP JUMPDEST POP POP POP POP POP JUMP JUMPDEST PUSH1 0x0 PUSH1 0x7 PUSH1 0x0 DUP5 PUSH20 0xFFFFFFFFFFFFFFFFFFFFFFFFFFFFFFFFFFFFFFFF AND PUSH20 0xFFFFFFFFFFFFFFFFFFFFFFFFFFFFFFFFFFFFFFFF AND DUP2 MSTORE PUSH1 0x20 ADD SWAP1 DUP2 MSTORE PUSH1 0x20 ADD PUSH1 0x0 KECCAK256 PUSH1 0x0 DUP4 PUSH20 0xFFFFFFFFFFFFFFFFFFFFFFFFFFFFFFFFFFFFFFFF AND PUSH20 0xFFFFFFFFFFFFFFFFFFFFFFFFFFFFFFFFFFFFFFFF AND DUP2 MSTORE PUSH1 0x20 ADD SWAP1 DUP2 MSTORE PUSH1 0x20 ADD PUSH1 0x0 KECCAK256 PUSH1 0x0 SWAP1 SLOAD SWAP1 PUSH2 0x100 EXP SWAP1 DIV PUSH1 0xFF AND SWAP1 POP SWAP3 SWAP2 POP POP JUMP JUMPDEST PUSH2 0x1DAE PUSH2 0x1F06 JUMP JUMPDEST PUSH1 0xD SLOAD DUP3 PUSH2 0x1DBA PUSH2 0xD86 JUMP JUMPDEST PUSH2 0x1DC4 SWAP2 SWAP1 PUSH2 0x38A2 JUMP JUMPDEST GT ISZERO PUSH2 0x1E05 JUMPI PUSH1 0x40 MLOAD PUSH32 0x8C379A000000000000000000000000000000000000000000000000000000000 DUP2 MSTORE PUSH1 0x4 ADD PUSH2 0x1DFC SWAP1 PUSH2 0x39C2 JUMP JUMPDEST PUSH1 0x40 MLOAD DUP1 SWAP2 SUB SWAP1 REVERT JUMPDEST PUSH2 0x1E0F DUP2 DUP4 PUSH2 0x21E0 JUMP JUMPDEST POP POP JUMP JUMPDEST PUSH2 0x1E1B PUSH2 0x1F06 JUMP JUMPDEST PUSH1 0x0 PUSH20 0xFFFFFFFFFFFFFFFFFFFFFFFFFFFFFFFFFFFFFFFF AND DUP2 PUSH20 0xFFFFFFFFFFFFFFFFFFFFFFFFFFFFFFFFFFFFFFFF AND SUB PUSH2 0x1E8A JUMPI PUSH1 0x40 MLOAD PUSH32 0x8C379A000000000000000000000000000000000000000000000000000000000 DUP2 MSTORE PUSH1 0x4 ADD PUSH2 0x1E81 SWAP1 PUSH2 0x3DFB JUMP JUMPDEST PUSH1 0x40 MLOAD DUP1 SWAP2 SUB SWAP1 REVERT JUMPDEST PUSH2 0x1E93 DUP2 PUSH2 0x211A JUMP JUMPDEST POP JUMP JUMPDEST PUSH1 0x0 DUP2 PUSH2 0x1EA1 PUSH2 0x1EFD JUMP JUMPDEST GT ISZERO DUP1 ISZERO PUSH2 0x1EB0 JUMPI POP PUSH1 0x0 SLOAD DUP3 LT JUMPDEST DUP1 ISZERO PUSH2 0x1EEE JUMPI POP PUSH1 0x0 PUSH29 0x100000000000000000000000000000000000000000000000000000000 PUSH1 0x4 PUSH1 0x0 DUP6 DUP2 MSTORE PUSH1 0x20 ADD SWAP1 DUP2 MSTORE PUSH1 0x20 ADD PUSH1 0x0 KECCAK256 SLOAD AND EQ JUMPDEST SWAP1 POP SWAP2 SWAP1 POP JUMP JUMPDEST PUSH1 0x0 CALLER SWAP1 POP SWAP1 JUMP JUMPDEST PUSH1 0x0 PUSH1 0x1 SWAP1 POP SWAP1 JUMP JUMPDEST PUSH2 0x1F0E PUSH2 0x254F JUMP JUMPDEST PUSH20 0xFFFFFFFFFFFFFFFFFFFFFFFFFFFFFFFFFFFFFFFF AND PUSH2 0x1F2C PUSH2 0x1448 JUMP JUMPDEST PUSH20 0xFFFFFFFFFFFFFFFFFFFFFFFFFFFFFFFFFFFFFFFF AND EQ PUSH2 0x1F82 JUMPI PUSH1 0x40 MLOAD PUSH32 0x8C379A000000000000000000000000000000000000000000000000000000000 DUP2 MSTORE PUSH1 0x4 ADD PUSH2 0x1F79 SWAP1 PUSH2 0x3E67 JUMP JUMPDEST PUSH1 0x40 MLOAD DUP1 SWAP2 SUB SWAP1 REVERT JUMPDEST JUMP JUMPDEST PUSH1 0x0 DUP1 DUP3 SWAP1 POP DUP1 PUSH2 0x1F93 PUSH2 0x1EFD JUMP JUMPDEST GT PUSH2 0x2019 JUMPI PUSH1 0x0 SLOAD DUP2 LT ISZERO PUSH2 0x2018 JUMPI PUSH1 0x0 PUSH1 0x4 PUSH1 0x0 DUP4 DUP2 MSTORE PUSH1 0x20 ADD SWAP1 DUP2 MSTORE PUSH1 0x20 ADD PUSH1 0x0 KECCAK256 SLOAD SWAP1 POP PUSH1 0x0 PUSH29 0x100000000000000000000000000000000000000000000000000000000 DUP3 AND SUB PUSH2 0x2016 JUMPI JUMPDEST PUSH1 0x0 DUP2 SUB PUSH2 0x200C JUMPI PUSH1 0x4 PUSH1 0x0 DUP4 PUSH1 0x1 SWAP1 SUB SWAP4 POP DUP4 DUP2 MSTORE PUSH1 0x20 ADD SWAP1 DUP2 MSTORE PUSH1 0x20 ADD PUSH1 0x0 KECCAK256 SLOAD SWAP1 POP PUSH2 0x1FE2 JUMP JUMPDEST DUP1 SWAP3 POP POP POP PUSH2 0x204B JUMP JUMPDEST POP JUMPDEST JUMPDEST PUSH1 0x40 MLOAD PUSH32 0xDF2D9B4200000000000000000000000000000000000000000000000000000000 DUP2 MSTORE PUSH1 0x4 ADD PUSH1 0x40 MLOAD DUP1 SWAP2 SUB SWAP1 REVERT JUMPDEST SWAP2 SWAP1 POP JUMP JUMPDEST PUSH1 0x0 DUP1 PUSH1 0x0 PUSH1 0x6 PUSH1 0x0 DUP6 DUP2 MSTORE PUSH1 0x20 ADD SWAP1 DUP2 MSTORE PUSH1 0x20 ADD PUSH1 0x0 KECCAK256 SWAP1 POP DUP1 SWAP3 POP DUP3 SLOAD SWAP2 POP POP SWAP2 POP SWAP2 JUMP JUMPDEST PUSH1 0x0 PUSH20 0xFFFFFFFFFFFFFFFFFFFFFFFFFFFFFFFFFFFFFFFF DUP4 AND SWAP3 POP PUSH20 0xFFFFFFFFFFFFFFFFFFFFFFFFFFFFFFFFFFFFFFFF DUP3 AND SWAP2 POP DUP4 DUP3 EQ DUP4 DUP4 EQ OR SWAP1 POP SWAP4 SWAP3 POP POP POP JUMP JUMPDEST POP POP POP POP JUMP JUMPDEST PUSH1 0x0 DUP1 PUSH1 0xE8 DUP4 SWAP1 SHR SWAP1 POP PUSH1 0xE8 PUSH2 0x20D8 DUP7 DUP7 DUP5 PUSH2 0x2557 JUMP JUMPDEST PUSH3 0xFFFFFF AND SWAP1 SHL SWAP2 POP POP SWAP4 SWAP3 POP POP POP JUMP JUMPDEST PUSH1 0x0 PUSH20 0xFFFFFFFFFFFFFFFFFFFFFFFFFFFFFFFFFFFFFFFF DUP4 AND SWAP3 POP DUP2 TIMESTAMP PUSH1 0xA0 SHL OR DUP4 OR SWAP1 POP SWAP3 SWAP2 POP POP JUMP JUMPDEST POP POP POP POP JUMP JUMPDEST PUSH1 0x0 PUSH1 0x8 PUSH1 0x0 SWAP1 SLOAD SWAP1 PUSH2 0x100 EXP SWAP1 DIV PUSH20 0xFFFFFFFFFFFFFFFFFFFFFFFFFFFFFFFFFFFFFFFF AND SWAP1 POP DUP2 PUSH1 0x8 PUSH1 0x0 PUSH2 0x100 EXP DUP2 SLOAD DUP2 PUSH20 0xFFFFFFFFFFFFFFFFFFFFFFFFFFFFFFFFFFFFFFFF MUL NOT AND SWAP1 DUP4 PUSH20 0xFFFFFFFFFFFFFFFFFFFFFFFFFFFFFFFFFFFFFFFF AND MUL OR SWAP1 SSTORE POP DUP2 PUSH20 0xFFFFFFFFFFFFFFFFFFFFFFFFFFFFFFFFFFFFFFFF AND DUP2 PUSH20 0xFFFFFFFFFFFFFFFFFFFFFFFFFFFFFFFFFFFFFFFF AND PUSH32 0x8BE0079C531659141344CD1FD0A4F28419497F9722A3DAAFE3B4186F6B6457E0 PUSH1 0x40 MLOAD PUSH1 0x40 MLOAD DUP1 SWAP2 SUB SWAP1 LOG3 POP POP JUMP JUMPDEST PUSH2 0x21FA DUP3 DUP3 PUSH1 0x40 MLOAD DUP1 PUSH1 0x20 ADD PUSH1 0x40 MSTORE DUP1 PUSH1 0x0 DUP2 MSTORE POP PUSH2 0x2560 JUMP JUMPDEST POP POP JUMP JUMPDEST PUSH1 0x0 DUP4 PUSH20 0xFFFFFFFFFFFFFFFFFFFFFFFFFFFFFFFFFFFFFFFF AND PUSH4 0x150B7A02 PUSH2 0x2224 PUSH2 0x1EF5 JUMP JUMPDEST DUP8 DUP7 DUP7 PUSH1 0x40 MLOAD DUP6 PUSH4 0xFFFFFFFF AND PUSH1 0xE0 SHL DUP2 MSTORE PUSH1 0x4 ADD PUSH2 0x2246 SWAP5 SWAP4 SWAP3 SWAP2 SWAP1 PUSH2 0x3EDC JUMP JUMPDEST PUSH1 0x20 PUSH1 0x40 MLOAD DUP1 DUP4 SUB DUP2 PUSH1 0x0 DUP8 GAS CALL SWAP3 POP POP POP DUP1 ISZERO PUSH2 0x2282 JUMPI POP PUSH1 0x40 MLOAD RETURNDATASIZE PUSH1 0x1F NOT PUSH1 0x1F DUP3 ADD AND DUP3 ADD DUP1 PUSH1 0x40 MSTORE POP DUP2 ADD SWAP1 PUSH2 0x227F SWAP2 SWAP1 PUSH2 0x3F3D JUMP JUMPDEST PUSH1 0x1 JUMPDEST PUSH2 0x22FB JUMPI RETURNDATASIZE DUP1 PUSH1 0x0 DUP2 EQ PUSH2 0x22B2 JUMPI PUSH1 0x40 MLOAD SWAP2 POP PUSH1 0x1F NOT PUSH1 0x3F RETURNDATASIZE ADD AND DUP3 ADD PUSH1 0x40 MSTORE RETURNDATASIZE DUP3 MSTORE RETURNDATASIZE PUSH1 0x0 PUSH1 0x20 DUP5 ADD RETURNDATACOPY PUSH2 0x22B7 JUMP JUMPDEST PUSH1 0x60 SWAP2 POP JUMPDEST POP PUSH1 0x0 DUP2 MLOAD SUB PUSH2 0x22F3 JUMPI PUSH1 0x40 MLOAD PUSH32 0xD1A57ED600000000000000000000000000000000000000000000000000000000 DUP2 MSTORE PUSH1 0x4 ADD PUSH1 0x40 MLOAD DUP1 SWAP2 SUB SWAP1 REVERT JUMPDEST DUP1 MLOAD DUP2 PUSH1 0x20 ADD REVERT JUMPDEST PUSH4 0x150B7A02 PUSH1 0xE0 SHL PUSH28 0xFFFFFFFFFFFFFFFFFFFFFFFFFFFFFFFFFFFFFFFFFFFFFFFFFFFFFFFF NOT AND DUP2 PUSH28 0xFFFFFFFFFFFFFFFFFFFFFFFFFFFFFFFFFFFFFFFFFFFFFFFFFFFFFFFF NOT AND EQ SWAP2 POP POP SWAP5 SWAP4 POP POP POP POP JUMP JUMPDEST PUSH1 0x60 PUSH1 0x9 DUP1 SLOAD PUSH2 0x235D SWAP1 PUSH2 0x3362 JUMP JUMPDEST DUP1 PUSH1 0x1F ADD PUSH1 0x20 DUP1 SWAP2 DIV MUL PUSH1 0x20 ADD PUSH1 0x40 MLOAD SWAP1 DUP2 ADD PUSH1 0x40 MSTORE DUP1 SWAP3 SWAP2 SWAP1 DUP2 DUP2 MSTORE PUSH1 0x20 ADD DUP3 DUP1 SLOAD PUSH2 0x2389 SWAP1 PUSH2 0x3362 JUMP JUMPDEST DUP1 ISZERO PUSH2 0x23D6 JUMPI DUP1 PUSH1 0x1F LT PUSH2 0x23AB JUMPI PUSH2 0x100 DUP1 DUP4 SLOAD DIV MUL DUP4 MSTORE SWAP2 PUSH1 0x20 ADD SWAP2 PUSH2 0x23D6 JUMP JUMPDEST DUP3 ADD SWAP2 SWAP1 PUSH1 0x0 MSTORE PUSH1 0x20 PUSH1 0x0 KECCAK256 SWAP1 JUMPDEST DUP2 SLOAD DUP2 MSTORE SWAP1 PUSH1 0x1 ADD SWAP1 PUSH1 0x20 ADD DUP1 DUP4 GT PUSH2 0x23B9 JUMPI DUP3 SWAP1 SUB PUSH1 0x1F AND DUP3 ADD SWAP2 JUMPDEST POP POP POP POP POP SWAP1 POP SWAP1 JUMP JUMPDEST PUSH1 0x60 PUSH1 0x0 PUSH1 0x1 PUSH2 0x23EF DUP5 PUSH2 0x25FD JUMP JUMPDEST ADD SWAP1 POP PUSH1 0x0 DUP2 PUSH8 0xFFFFFFFFFFFFFFFF DUP2 GT ISZERO PUSH2 0x240E JUMPI PUSH2 0x240D PUSH2 0x2D69 JUMP JUMPDEST JUMPDEST PUSH1 0x40 MLOAD SWAP1 DUP1 DUP3 MSTORE DUP1 PUSH1 0x1F ADD PUSH1 0x1F NOT AND PUSH1 0x20 ADD DUP3 ADD PUSH1 0x40 MSTORE DUP1 ISZERO PUSH2 0x2440 JUMPI DUP2 PUSH1 0x20 ADD PUSH1 0x1 DUP3 MUL DUP1 CALLDATASIZE DUP4 CALLDATACOPY DUP1 DUP3 ADD SWAP2 POP POP SWAP1 POP JUMPDEST POP SWAP1 POP PUSH1 0x0 DUP3 PUSH1 0x20 ADD DUP3 ADD SWAP1 POP JUMPDEST PUSH1 0x1 ISZERO PUSH2 0x24A3 JUMPI DUP1 DUP1 PUSH1 0x1 SWAP1 SUB SWAP2 POP POP PUSH32 0x3031323334353637383961626364656600000000000000000000000000000000 PUSH1 0xA DUP7 MOD BYTE DUP2 MSTORE8 PUSH1 0xA DUP6 DUP2 PUSH2 0x2497 JUMPI PUSH2 0x2496 PUSH2 0x3F6A JUMP JUMPDEST JUMPDEST DIV SWAP5 POP PUSH1 0x0 DUP6 SUB PUSH2 0x244E JUMPI JUMPDEST DUP2 SWAP4 POP POP POP POP SWAP2 SWAP1 POP JUMP JUMPDEST PUSH1 0x0 PUSH8 0xFFFFFFFFFFFFFFFF PUSH1 0x40 PUSH1 0x5 PUSH1 0x0 DUP6 PUSH20 0xFFFFFFFFFFFFFFFFFFFFFFFFFFFFFFFFFFFFFFFF AND PUSH20 0xFFFFFFFFFFFFFFFFFFFFFFFFFFFFFFFFFFFFFFFF AND DUP2 MSTORE PUSH1 0x20 ADD SWAP1 DUP2 MSTORE PUSH1 0x20 ADD PUSH1 0x0 KECCAK256 SLOAD SWAP1 SHR AND SWAP1 POP SWAP2 SWAP1 POP JUMP JUMPDEST PUSH1 0x0 DUP3 DUP3 PUSH1 0x40 MLOAD PUSH1 0x20 ADD PUSH2 0x251A SWAP3 SWAP2 SWAP1 PUSH2 0x4002 JUMP JUMPDEST PUSH1 0x40 MLOAD PUSH1 0x20 DUP2 DUP4 SUB SUB DUP2 MSTORE SWAP1 PUSH1 0x40 MSTORE DUP1 MLOAD SWAP1 PUSH1 0x20 ADD KECCAK256 SWAP1 POP SWAP3 SWAP2 POP POP JUMP JUMPDEST PUSH1 0x0 PUSH2 0x2547 DUP3 PUSH1 0x10 SLOAD DUP6 PUSH2 0x2750 JUMP JUMPDEST SWAP1 POP SWAP3 SWAP2 POP POP JUMP JUMPDEST PUSH1 0x0 CALLER SWAP1 POP SWAP1 JUMP JUMPDEST PUSH1 0x0 SWAP4 SWAP3 POP POP POP JUMP JUMPDEST PUSH2 0x256A DUP4 DUP4 PUSH2 0x2767 JUMP JUMPDEST PUSH1 0x0 DUP4 PUSH20 0xFFFFFFFFFFFFFFFFFFFFFFFFFFFFFFFFFFFFFFFF AND EXTCODESIZE EQ PUSH2 0x25F8 JUMPI PUSH1 0x0 DUP1 SLOAD SWAP1 POP PUSH1 0x0 DUP4 DUP3 SUB SWAP1 POP JUMPDEST PUSH2 0x25AA PUSH1 0x0 DUP7 DUP4 DUP1 PUSH1 0x1 ADD SWAP5 POP DUP7 PUSH2 0x21FE JUMP JUMPDEST PUSH2 0x25E0 JUMPI PUSH1 0x40 MLOAD PUSH32 0xD1A57ED600000000000000000000000000000000000000000000000000000000 DUP2 MSTORE PUSH1 0x4 ADD PUSH1 0x40 MLOAD DUP1 SWAP2 SUB SWAP1 REVERT JUMPDEST DUP2 DUP2 LT PUSH2 0x2597 JUMPI DUP2 PUSH1 0x0 SLOAD EQ PUSH2 0x25F5 JUMPI PUSH1 0x0 DUP1 REVERT JUMPDEST POP POP JUMPDEST POP POP POP JUMP JUMPDEST PUSH1 0x0 DUP1 PUSH1 0x0 SWAP1 POP PUSH27 0x184F03E93FF9F4DAA797ED6E38ED64BF6A1F010000000000000000 DUP4 LT PUSH2 0x265B JUMPI PUSH27 0x184F03E93FF9F4DAA797ED6E38ED64BF6A1F010000000000000000 DUP4 DUP2 PUSH2 0x2651 JUMPI PUSH2 0x2650 PUSH2 0x3F6A JUMP JUMPDEST JUMPDEST DIV SWAP3 POP PUSH1 0x40 DUP2 ADD SWAP1 POP JUMPDEST PUSH14 0x4EE2D6D415B85ACEF8100000000 DUP4 LT PUSH2 0x2698 JUMPI PUSH14 0x4EE2D6D415B85ACEF8100000000 DUP4 DUP2 PUSH2 0x268E JUMPI PUSH2 0x268D PUSH2 0x3F6A JUMP JUMPDEST JUMPDEST DIV SWAP3 POP PUSH1 0x20 DUP2 ADD SWAP1 POP JUMPDEST PUSH7 0x2386F26FC10000 DUP4 LT PUSH2 0x26C7 JUMPI PUSH7 0x2386F26FC10000 DUP4 DUP2 PUSH2 0x26BD JUMPI PUSH2 0x26BC PUSH2 0x3F6A JUMP JUMPDEST JUMPDEST DIV SWAP3 POP PUSH1 0x10 DUP2 ADD SWAP1 POP JUMPDEST PUSH4 0x5F5E100 DUP4 LT PUSH2 0x26F0 JUMPI PUSH4 0x5F5E100 DUP4 DUP2 PUSH2 0x26E6 JUMPI PUSH2 0x26E5 PUSH2 0x3F6A JUMP JUMPDEST JUMPDEST DIV SWAP3 POP PUSH1 0x8 DUP2 ADD SWAP1 POP JUMPDEST PUSH2 0x2710 DUP4 LT PUSH2 0x2715 JUMPI PUSH2 0x2710 DUP4 DUP2 PUSH2 0x270B JUMPI PUSH2 0x270A PUSH2 0x3F6A JUMP JUMPDEST JUMPDEST DIV SWAP3 POP PUSH1 0x4 DUP2 ADD SWAP1 POP JUMPDEST PUSH1 0x64 DUP4 LT PUSH2 0x2738 JUMPI PUSH1 0x64 DUP4 DUP2 PUSH2 0x272E JUMPI PUSH2 0x272D PUSH2 0x3F6A JUMP JUMPDEST JUMPDEST DIV SWAP3 POP PUSH1 0x2 DUP2 ADD SWAP1 POP JUMPDEST PUSH1 0xA DUP4 LT PUSH2 0x2747 JUMPI PUSH1 0x1 DUP2 ADD SWAP1 POP JUMPDEST DUP1 SWAP2 POP POP SWAP2 SWAP1 POP JUMP JUMPDEST PUSH1 0x0 DUP3 PUSH2 0x275D DUP6 DUP5 PUSH2 0x2922 JUMP JUMPDEST EQ SWAP1 POP SWAP4 SWAP3 POP POP POP JUMP JUMPDEST PUSH1 0x0 DUP1 SLOAD SWAP1 POP PUSH1 0x0 DUP3 SUB PUSH2 0x27A7 JUMPI PUSH1 0x40 MLOAD PUSH32 0xB562E8DD00000000000000000000000000000000000000000000000000000000 DUP2 MSTORE PUSH1 0x4 ADD PUSH1 0x40 MLOAD DUP1 SWAP2 SUB SWAP1 REVERT JUMPDEST PUSH2 0x27B4 PUSH1 0x0 DUP5 DUP4 DUP6 PUSH2 0x20BB JUMP JUMPDEST PUSH1 0x1 PUSH1 0x40 PUSH1 0x1 SWAP1 SHL OR DUP3 MUL PUSH1 0x5 PUSH1 0x0 DUP6 PUSH20 0xFFFFFFFFFFFFFFFFFFFFFFFFFFFFFFFFFFFFFFFF AND PUSH20 0xFFFFFFFFFFFFFFFFFFFFFFFFFFFFFFFFFFFFFFFF AND DUP2 MSTORE PUSH1 0x20 ADD SWAP1 DUP2 MSTORE PUSH1 0x20 ADD PUSH1 0x0 KECCAK256 PUSH1 0x0 DUP3 DUP3 SLOAD ADD SWAP3 POP POP DUP2 SWAP1 SSTORE POP PUSH2 0x282B DUP4 PUSH2 0x281C PUSH1 0x0 DUP7 PUSH1 0x0 PUSH2 0x20C1 JUMP JUMPDEST PUSH2 0x2825 DUP6 PUSH2 0x2978 JUMP JUMPDEST OR PUSH2 0x20E9 JUMP JUMPDEST PUSH1 0x4 PUSH1 0x0 DUP4 DUP2 MSTORE PUSH1 0x20 ADD SWAP1 DUP2 MSTORE PUSH1 0x20 ADD PUSH1 0x0 KECCAK256 DUP2 SWAP1 SSTORE POP PUSH1 0x0 DUP1 DUP4 DUP4 ADD SWAP1 POP PUSH20 0xFFFFFFFFFFFFFFFFFFFFFFFFFFFFFFFFFFFFFFFF DUP6 AND SWAP2 POP DUP3 DUP3 PUSH1 0x0 PUSH32 0xDDF252AD1BE2C89B69C2B068FC378DAA952BA7F163C4A11628F55A4DF523B3EF PUSH1 0x0 DUP1 LOG4 PUSH1 0x1 DUP4 ADD JUMPDEST DUP2 DUP2 EQ PUSH2 0x28CC JUMPI DUP1 DUP4 PUSH1 0x0 PUSH32 0xDDF252AD1BE2C89B69C2B068FC378DAA952BA7F163C4A11628F55A4DF523B3EF PUSH1 0x0 DUP1 LOG4 PUSH1 0x1 DUP2 ADD SWAP1 POP PUSH2 0x2891 JUMP JUMPDEST POP PUSH1 0x0 DUP3 SUB PUSH2 0x2907 JUMPI PUSH1 0x40 MLOAD PUSH32 0x2E07630000000000000000000000000000000000000000000000000000000000 DUP2 MSTORE PUSH1 0x4 ADD PUSH1 0x40 MLOAD DUP1 SWAP2 SUB SWAP1 REVERT JUMPDEST DUP1 PUSH1 0x0 DUP2 SWAP1 SSTORE POP POP POP PUSH2 0x291D PUSH1 0x0 DUP5 DUP4 DUP6 PUSH2 0x2114 JUMP JUMPDEST POP POP POP JUMP JUMPDEST PUSH1 0x0 DUP1 DUP3 SWAP1 POP PUSH1 0x0 JUMPDEST DUP5 MLOAD DUP2 LT ISZERO PUSH2 0x296D JUMPI PUSH2 0x2958 DUP3 DUP7 DUP4 DUP2 MLOAD DUP2 LT PUSH2 0x294B JUMPI PUSH2 0x294A PUSH2 0x402E JUMP JUMPDEST JUMPDEST PUSH1 0x20 MUL PUSH1 0x20 ADD ADD MLOAD PUSH2 0x2988 JUMP JUMPDEST SWAP2 POP DUP1 DUP1 PUSH2 0x2965 SWAP1 PUSH2 0x405D JUMP JUMPDEST SWAP2 POP POP PUSH2 0x292B JUMP JUMPDEST POP DUP1 SWAP2 POP POP SWAP3 SWAP2 POP POP JUMP JUMPDEST PUSH1 0x0 PUSH1 0x1 DUP3 EQ PUSH1 0xE1 SHL SWAP1 POP SWAP2 SWAP1 POP JUMP JUMPDEST PUSH1 0x0 DUP2 DUP4 LT PUSH2 0x29A0 JUMPI PUSH2 0x299B DUP3 DUP5 PUSH2 0x29B3 JUMP JUMPDEST PUSH2 0x29AB JUMP JUMPDEST PUSH2 0x29AA DUP4 DUP4 PUSH2 0x29B3 JUMP JUMPDEST JUMPDEST SWAP1 POP SWAP3 SWAP2 POP POP JUMP JUMPDEST PUSH1 0x0 DUP3 PUSH1 0x0 MSTORE DUP2 PUSH1 0x20 MSTORE PUSH1 0x40 PUSH1 0x0 KECCAK256 SWAP1 POP SWAP3 SWAP2 POP POP JUMP JUMPDEST PUSH1 0x0 PUSH1 0x40 MLOAD SWAP1 POP SWAP1 JUMP JUMPDEST PUSH1 0x0 DUP1 REVERT JUMPDEST PUSH1 0x0 DUP1 REVERT JUMPDEST PUSH1 0x0 PUSH32 0xFFFFFFFF00000000000000000000000000000000000000000000000000000000 DUP3 AND SWAP1 POP SWAP2 SWAP1 POP JUMP JUMPDEST PUSH2 0x2A13 DUP2 PUSH2 0x29DE JUMP JUMPDEST DUP2 EQ PUSH2 0x2A1E JUMPI PUSH1 0x0 DUP1 REVERT JUMPDEST POP JUMP JUMPDEST PUSH1 0x0 DUP2 CALLDATALOAD SWAP1 POP PUSH2 0x2A30 DUP2 PUSH2 0x2A0A JUMP JUMPDEST SWAP3 SWAP2 POP POP JUMP JUMPDEST PUSH1 0x0 PUSH1 0x20 DUP3 DUP5 SUB SLT ISZERO PUSH2 0x2A4C JUMPI PUSH2 0x2A4B PUSH2 0x29D4 JUMP JUMPDEST JUMPDEST PUSH1 0x0 PUSH2 0x2A5A DUP5 DUP3 DUP6 ADD PUSH2 0x2A21 JUMP JUMPDEST SWAP2 POP POP SWAP3 SWAP2 POP POP JUMP JUMPDEST PUSH1 0x0 DUP2 ISZERO ISZERO SWAP1 POP SWAP2 SWAP1 POP JUMP JUMPDEST PUSH2 0x2A78 DUP2 PUSH2 0x2A63 JUMP JUMPDEST DUP3 MSTORE POP POP JUMP JUMPDEST PUSH1 0x0 PUSH1 0x20 DUP3 ADD SWAP1 POP PUSH2 0x2A93 PUSH1 0x0 DUP4 ADD DUP5 PUSH2 0x2A6F JUMP JUMPDEST SWAP3 SWAP2 POP POP JUMP JUMPDEST PUSH1 0x0 DUP2 MLOAD SWAP1 POP SWAP2 SWAP1 POP JUMP JUMPDEST PUSH1 0x0 DUP3 DUP3 MSTORE PUSH1 0x20 DUP3 ADD SWAP1 POP SWAP3 SWAP2 POP POP JUMP JUMPDEST PUSH1 0x0 JUMPDEST DUP4 DUP2 LT ISZERO PUSH2 0x2AD3 JUMPI DUP1 DUP3 ADD MLOAD DUP2 DUP5 ADD MSTORE PUSH1 0x20 DUP2 ADD SWAP1 POP PUSH2 0x2AB8 JUMP JUMPDEST PUSH1 0x0 DUP5 DUP5 ADD MSTORE POP POP POP POP JUMP JUMPDEST PUSH1 0x0 PUSH1 0x1F NOT PUSH1 0x1F DUP4 ADD AND SWAP1 POP SWAP2 SWAP1 POP JUMP JUMPDEST PUSH1 0x0 PUSH2 0x2AFB DUP3 PUSH2 0x2A99 JUMP JUMPDEST PUSH2 0x2B05 DUP2 DUP6 PUSH2 0x2AA4 JUMP JUMPDEST SWAP4 POP PUSH2 0x2B15 DUP2 DUP6 PUSH1 0x20 DUP7 ADD PUSH2 0x2AB5 JUMP JUMPDEST PUSH2 0x2B1E DUP2 PUSH2 0x2ADF JUMP JUMPDEST DUP5 ADD SWAP2 POP POP SWAP3 SWAP2 POP POP JUMP JUMPDEST PUSH1 0x0 PUSH1 0x20 DUP3 ADD SWAP1 POP DUP2 DUP2 SUB PUSH1 0x0 DUP4 ADD MSTORE PUSH2 0x2B43 DUP2 DUP5 PUSH2 0x2AF0 JUMP JUMPDEST SWAP1 POP SWAP3 SWAP2 POP POP JUMP JUMPDEST PUSH1 0x0 DUP2 SWAP1 POP SWAP2 SWAP1 POP JUMP JUMPDEST PUSH2 0x2B5E DUP2 PUSH2 0x2B4B JUMP JUMPDEST DUP2 EQ PUSH2 0x2B69 JUMPI PUSH1 0x0 DUP1 REVERT JUMPDEST POP JUMP JUMPDEST PUSH1 0x0 DUP2 CALLDATALOAD SWAP1 POP PUSH2 0x2B7B DUP2 PUSH2 0x2B55 JUMP JUMPDEST SWAP3 SWAP2 POP POP JUMP JUMPDEST PUSH1 0x0 PUSH1 0x20 DUP3 DUP5 SUB SLT ISZERO PUSH2 0x2B97 JUMPI PUSH2 0x2B96 PUSH2 0x29D4 JUMP JUMPDEST JUMPDEST PUSH1 0x0 PUSH2 0x2BA5 DUP5 DUP3 DUP6 ADD PUSH2 0x2B6C JUMP JUMPDEST SWAP2 POP POP SWAP3 SWAP2 POP POP JUMP JUMPDEST PUSH1 0x0 PUSH20 0xFFFFFFFFFFFFFFFFFFFFFFFFFFFFFFFFFFFFFFFF DUP3 AND SWAP1 POP SWAP2 SWAP1 POP JUMP JUMPDEST PUSH1 0x0 PUSH2 0x2BD9 DUP3 PUSH2 0x2BAE JUMP JUMPDEST SWAP1 POP SWAP2 SWAP1 POP JUMP JUMPDEST PUSH2 0x2BE9 DUP2 PUSH2 0x2BCE JUMP JUMPDEST DUP3 MSTORE POP POP JUMP JUMPDEST PUSH1 0x0 PUSH1 0x20 DUP3 ADD SWAP1 POP PUSH2 0x2C04 PUSH1 0x0 DUP4 ADD DUP5 PUSH2 0x2BE0 JUMP JUMPDEST SWAP3 SWAP2 POP POP JUMP JUMPDEST PUSH2 0x2C13 DUP2 PUSH2 0x2A63 JUMP JUMPDEST DUP2 EQ PUSH2 0x2C1E JUMPI PUSH1 0x0 DUP1 REVERT JUMPDEST POP JUMP JUMPDEST PUSH1 0x0 DUP2 CALLDATALOAD SWAP1 POP PUSH2 0x2C30 DUP2 PUSH2 0x2C0A JUMP JUMPDEST SWAP3 SWAP2 POP POP JUMP JUMPDEST PUSH1 0x0 DUP1 PUSH1 0x40 DUP4 DUP6 SUB SLT ISZERO PUSH2 0x2C4D JUMPI PUSH2 0x2C4C PUSH2 0x29D4 JUMP JUMPDEST JUMPDEST PUSH1 0x0 PUSH2 0x2C5B DUP6 DUP3 DUP7 ADD PUSH2 0x2B6C JUMP JUMPDEST SWAP3 POP POP PUSH1 0x20 PUSH2 0x2C6C DUP6 DUP3 DUP7 ADD PUSH2 0x2C21 JUMP JUMPDEST SWAP2 POP POP SWAP3 POP SWAP3 SWAP1 POP JUMP JUMPDEST PUSH2 0x2C7F DUP2 PUSH2 0x2BCE JUMP JUMPDEST DUP2 EQ PUSH2 0x2C8A JUMPI PUSH1 0x0 DUP1 REVERT JUMPDEST POP JUMP JUMPDEST PUSH1 0x0 DUP2 CALLDATALOAD SWAP1 POP PUSH2 0x2C9C DUP2 PUSH2 0x2C76 JUMP JUMPDEST SWAP3 SWAP2 POP POP JUMP JUMPDEST PUSH1 0x0 DUP1 PUSH1 0x40 DUP4 DUP6 SUB SLT ISZERO PUSH2 0x2CB9 JUMPI PUSH2 0x2CB8 PUSH2 0x29D4 JUMP JUMPDEST JUMPDEST PUSH1 0x0 PUSH2 0x2CC7 DUP6 DUP3 DUP7 ADD PUSH2 0x2C8D JUMP JUMPDEST SWAP3 POP POP PUSH1 0x20 PUSH2 0x2CD8 DUP6 DUP3 DUP7 ADD PUSH2 0x2B6C JUMP JUMPDEST SWAP2 POP POP SWAP3 POP SWAP3 SWAP1 POP JUMP JUMPDEST PUSH2 0x2CEB DUP2 PUSH2 0x2B4B JUMP JUMPDEST DUP3 MSTORE POP POP JUMP JUMPDEST PUSH1 0x0 PUSH1 0x20 DUP3 ADD SWAP1 POP PUSH2 0x2D06 PUSH1 0x0 DUP4 ADD DUP5 PUSH2 0x2CE2 JUMP JUMPDEST SWAP3 SWAP2 POP POP JUMP JUMPDEST PUSH1 0x0 DUP1 PUSH1 0x0 PUSH1 0x60 DUP5 DUP7 SUB SLT ISZERO PUSH2 0x2D25 JUMPI PUSH2 0x2D24 PUSH2 0x29D4 JUMP JUMPDEST JUMPDEST PUSH1 0x0 PUSH2 0x2D33 DUP7 DUP3 DUP8 ADD PUSH2 0x2C8D JUMP JUMPDEST SWAP4 POP POP PUSH1 0x20 PUSH2 0x2D44 DUP7 DUP3 DUP8 ADD PUSH2 0x2C8D JUMP JUMPDEST SWAP3 POP POP PUSH1 0x40 PUSH2 0x2D55 DUP7 DUP3 DUP8 ADD PUSH2 0x2B6C JUMP JUMPDEST SWAP2 POP POP SWAP3 POP SWAP3 POP SWAP3 JUMP JUMPDEST PUSH1 0x0 DUP1 REVERT JUMPDEST PUSH1 0x0 DUP1 REVERT JUMPDEST PUSH32 0x4E487B7100000000000000000000000000000000000000000000000000000000 PUSH1 0x0 MSTORE PUSH1 0x41 PUSH1 0x4 MSTORE PUSH1 0x24 PUSH1 0x0 REVERT JUMPDEST PUSH2 0x2DA1 DUP3 PUSH2 0x2ADF JUMP JUMPDEST DUP2 ADD DUP2 DUP2 LT PUSH8 0xFFFFFFFFFFFFFFFF DUP3 GT OR ISZERO PUSH2 0x2DC0 JUMPI PUSH2 0x2DBF PUSH2 0x2D69 JUMP JUMPDEST JUMPDEST DUP1 PUSH1 0x40 MSTORE POP POP POP JUMP JUMPDEST PUSH1 0x0 PUSH2 0x2DD3 PUSH2 0x29CA JUMP JUMPDEST SWAP1 POP PUSH2 0x2DDF DUP3 DUP3 PUSH2 0x2D98 JUMP JUMPDEST SWAP2 SWAP1 POP JUMP JUMPDEST PUSH1 0x0 PUSH8 0xFFFFFFFFFFFFFFFF DUP3 GT ISZERO PUSH2 0x2DFF JUMPI PUSH2 0x2DFE PUSH2 0x2D69 JUMP JUMPDEST JUMPDEST PUSH2 0x2E08 DUP3 PUSH2 0x2ADF JUMP JUMPDEST SWAP1 POP PUSH1 0x20 DUP2 ADD SWAP1 POP SWAP2 SWAP1 POP JUMP JUMPDEST DUP3 DUP2 DUP4 CALLDATACOPY PUSH1 0x0 DUP4 DUP4 ADD MSTORE POP POP POP JUMP JUMPDEST PUSH1 0x0 PUSH2 0x2E37 PUSH2 0x2E32 DUP5 PUSH2 0x2DE4 JUMP JUMPDEST PUSH2 0x2DC9 JUMP JUMPDEST SWAP1 POP DUP3 DUP2 MSTORE PUSH1 0x20 DUP2 ADD DUP5 DUP5 DUP5 ADD GT ISZERO PUSH2 0x2E53 JUMPI PUSH2 0x2E52 PUSH2 0x2D64 JUMP JUMPDEST JUMPDEST PUSH2 0x2E5E DUP5 DUP3 DUP6 PUSH2 0x2E15 JUMP JUMPDEST POP SWAP4 SWAP3 POP POP POP JUMP JUMPDEST PUSH1 0x0 DUP3 PUSH1 0x1F DUP4 ADD SLT PUSH2 0x2E7B JUMPI PUSH2 0x2E7A PUSH2 0x2D5F JUMP JUMPDEST JUMPDEST DUP2 CALLDATALOAD PUSH2 0x2E8B DUP5 DUP3 PUSH1 0x20 DUP7 ADD PUSH2 0x2E24 JUMP JUMPDEST SWAP2 POP POP SWAP3 SWAP2 POP POP JUMP JUMPDEST PUSH1 0x0 PUSH1 0x20 DUP3 DUP5 SUB SLT ISZERO PUSH2 0x2EAA JUMPI PUSH2 0x2EA9 PUSH2 0x29D4 JUMP JUMPDEST JUMPDEST PUSH1 0x0 DUP3 ADD CALLDATALOAD PUSH8 0xFFFFFFFFFFFFFFFF DUP2 GT ISZERO PUSH2 0x2EC8 JUMPI PUSH2 0x2EC7 PUSH2 0x29D9 JUMP JUMPDEST JUMPDEST PUSH2 0x2ED4 DUP5 DUP3 DUP6 ADD PUSH2 0x2E66 JUMP JUMPDEST SWAP2 POP POP SWAP3 SWAP2 POP POP JUMP JUMPDEST PUSH1 0x3 DUP2 LT PUSH2 0x2EEA JUMPI PUSH1 0x0 DUP1 REVERT JUMPDEST POP JUMP JUMPDEST PUSH1 0x0 DUP2 CALLDATALOAD SWAP1 POP PUSH2 0x2EFC DUP2 PUSH2 0x2EDD JUMP JUMPDEST SWAP3 SWAP2 POP POP JUMP JUMPDEST PUSH1 0x0 PUSH1 0x20 DUP3 DUP5 SUB SLT ISZERO PUSH2 0x2F18 JUMPI PUSH2 0x2F17 PUSH2 0x29D4 JUMP JUMPDEST JUMPDEST PUSH1 0x0 PUSH2 0x2F26 DUP5 DUP3 DUP6 ADD PUSH2 0x2EED JUMP JUMPDEST SWAP2 POP POP SWAP3 SWAP2 POP POP JUMP JUMPDEST PUSH1 0x0 PUSH1 0x20 DUP3 DUP5 SUB SLT ISZERO PUSH2 0x2F45 JUMPI PUSH2 0x2F44 PUSH2 0x29D4 JUMP JUMPDEST JUMPDEST PUSH1 0x0 PUSH2 0x2F53 DUP5 DUP3 DUP6 ADD PUSH2 0x2C8D JUMP JUMPDEST SWAP2 POP POP SWAP3 SWAP2 POP POP JUMP JUMPDEST PUSH1 0x0 DUP1 PUSH1 0x40 DUP4 DUP6 SUB SLT ISZERO PUSH2 0x2F73 JUMPI PUSH2 0x2F72 PUSH2 0x29D4 JUMP JUMPDEST JUMPDEST PUSH1 0x0 PUSH2 0x2F81 DUP6 DUP3 DUP7 ADD PUSH2 0x2C8D JUMP JUMPDEST SWAP3 POP POP PUSH1 0x20 PUSH2 0x2F92 DUP6 DUP3 DUP7 ADD PUSH2 0x2C21 JUMP JUMPDEST SWAP2 POP POP SWAP3 POP SWAP3 SWAP1 POP JUMP JUMPDEST PUSH1 0x0 DUP2 SWAP1 POP SWAP2 SWAP1 POP JUMP JUMPDEST PUSH2 0x2FAF DUP2 PUSH2 0x2F9C JUMP JUMPDEST DUP3 MSTORE POP POP JUMP JUMPDEST PUSH1 0x0 PUSH1 0x20 DUP3 ADD SWAP1 POP PUSH2 0x2FCA PUSH1 0x0 DUP4 ADD DUP5 PUSH2 0x2FA6 JUMP JUMPDEST SWAP3 SWAP2 POP POP JUMP JUMPDEST PUSH1 0x0 PUSH8 0xFFFFFFFFFFFFFFFF DUP3 GT ISZERO PUSH2 0x2FEB JUMPI PUSH2 0x2FEA PUSH2 0x2D69 JUMP JUMPDEST JUMPDEST PUSH2 0x2FF4 DUP3 PUSH2 0x2ADF JUMP JUMPDEST SWAP1 POP PUSH1 0x20 DUP2 ADD SWAP1 POP SWAP2 SWAP1 POP JUMP JUMPDEST PUSH1 0x0 PUSH2 0x3014 PUSH2 0x300F DUP5 PUSH2 0x2FD0 JUMP JUMPDEST PUSH2 0x2DC9 JUMP JUMPDEST SWAP1 POP DUP3 DUP2 MSTORE PUSH1 0x20 DUP2 ADD DUP5 DUP5 DUP5 ADD GT ISZERO PUSH2 0x3030 JUMPI PUSH2 0x302F PUSH2 0x2D64 JUMP JUMPDEST JUMPDEST PUSH2 0x303B DUP5 DUP3 DUP6 PUSH2 0x2E15 JUMP JUMPDEST POP SWAP4 SWAP3 POP POP POP JUMP JUMPDEST PUSH1 0x0 DUP3 PUSH1 0x1F DUP4 ADD SLT PUSH2 0x3058 JUMPI PUSH2 0x3057 PUSH2 0x2D5F JUMP JUMPDEST JUMPDEST DUP2 CALLDATALOAD PUSH2 0x3068 DUP5 DUP3 PUSH1 0x20 DUP7 ADD PUSH2 0x3001 JUMP JUMPDEST SWAP2 POP POP SWAP3 SWAP2 POP POP JUMP JUMPDEST PUSH1 0x0 DUP1 PUSH1 0x0 DUP1 PUSH1 0x80 DUP6 DUP8 SUB SLT ISZERO PUSH2 0x308B JUMPI PUSH2 0x308A PUSH2 0x29D4 JUMP JUMPDEST JUMPDEST PUSH1 0x0 PUSH2 0x3099 DUP8 DUP3 DUP9 ADD PUSH2 0x2C8D JUMP JUMPDEST SWAP5 POP POP PUSH1 0x20 PUSH2 0x30AA DUP8 DUP3 DUP9 ADD PUSH2 0x2C8D JUMP JUMPDEST SWAP4 POP POP PUSH1 0x40 PUSH2 0x30BB DUP8 DUP3 DUP9 ADD PUSH2 0x2B6C JUMP JUMPDEST SWAP3 POP POP PUSH1 0x60 DUP6 ADD CALLDATALOAD PUSH8 0xFFFFFFFFFFFFFFFF DUP2 GT ISZERO PUSH2 0x30DC JUMPI PUSH2 0x30DB PUSH2 0x29D9 JUMP JUMPDEST JUMPDEST PUSH2 0x30E8 DUP8 DUP3 DUP9 ADD PUSH2 0x3043 JUMP JUMPDEST SWAP2 POP POP SWAP3 SWAP6 SWAP2 SWAP5 POP SWAP3 POP JUMP JUMPDEST PUSH2 0x30FD DUP2 PUSH2 0x2F9C JUMP JUMPDEST DUP2 EQ PUSH2 0x3108 JUMPI PUSH1 0x0 DUP1 REVERT JUMPDEST POP JUMP JUMPDEST PUSH1 0x0 DUP2 CALLDATALOAD SWAP1 POP PUSH2 0x311A DUP2 PUSH2 0x30F4 JUMP JUMPDEST SWAP3 SWAP2 POP POP JUMP JUMPDEST PUSH1 0x0 PUSH1 0x20 DUP3 DUP5 SUB SLT ISZERO PUSH2 0x3136 JUMPI PUSH2 0x3135 PUSH2 0x29D4 JUMP JUMPDEST JUMPDEST PUSH1 0x0 PUSH2 0x3144 DUP5 DUP3 DUP6 ADD PUSH2 0x310B JUMP JUMPDEST SWAP2 POP POP SWAP3 SWAP2 POP POP JUMP JUMPDEST PUSH32 0x4E487B7100000000000000000000000000000000000000000000000000000000 PUSH1 0x0 MSTORE PUSH1 0x21 PUSH1 0x4 MSTORE PUSH1 0x24 PUSH1 0x0 REVERT JUMPDEST PUSH1 0x3 DUP2 LT PUSH2 0x318D JUMPI PUSH2 0x318C PUSH2 0x314D JUMP JUMPDEST JUMPDEST POP JUMP JUMPDEST PUSH1 0x0 DUP2 SWAP1 POP PUSH2 0x319E DUP3 PUSH2 0x317C JUMP JUMPDEST SWAP2 SWAP1 POP JUMP JUMPDEST PUSH1 0x0 PUSH2 0x31AE DUP3 PUSH2 0x3190 JUMP JUMPDEST SWAP1 POP SWAP2 SWAP1 POP JUMP JUMPDEST PUSH2 0x31BE DUP2 PUSH2 0x31A3 JUMP JUMPDEST DUP3 MSTORE POP POP JUMP JUMPDEST PUSH1 0x0 PUSH1 0x20 DUP3 ADD SWAP1 POP PUSH2 0x31D9 PUSH1 0x0 DUP4 ADD DUP5 PUSH2 0x31B5 JUMP JUMPDEST SWAP3 SWAP2 POP POP JUMP JUMPDEST PUSH1 0x0 DUP1 REVERT JUMPDEST PUSH1 0x0 DUP1 REVERT JUMPDEST PUSH1 0x0 DUP1 DUP4 PUSH1 0x1F DUP5 ADD SLT PUSH2 0x31FF JUMPI PUSH2 0x31FE PUSH2 0x2D5F JUMP JUMPDEST JUMPDEST DUP3 CALLDATALOAD SWAP1 POP PUSH8 0xFFFFFFFFFFFFFFFF DUP2 GT ISZERO PUSH2 0x321C JUMPI PUSH2 0x321B PUSH2 0x31DF JUMP JUMPDEST JUMPDEST PUSH1 0x20 DUP4 ADD SWAP2 POP DUP4 PUSH1 0x20 DUP3 MUL DUP4 ADD GT ISZERO PUSH2 0x3238 JUMPI PUSH2 0x3237 PUSH2 0x31E4 JUMP JUMPDEST JUMPDEST SWAP3 POP SWAP3 SWAP1 POP JUMP JUMPDEST PUSH1 0x0 DUP1 PUSH1 0x0 DUP1 PUSH1 0x60 DUP6 DUP8 SUB SLT ISZERO PUSH2 0x3259 JUMPI PUSH2 0x3258 PUSH2 0x29D4 JUMP JUMPDEST JUMPDEST PUSH1 0x0 PUSH2 0x3267 DUP8 DUP3 DUP9 ADD PUSH2 0x2B6C JUMP JUMPDEST SWAP5 POP POP PUSH1 0x20 PUSH2 0x3278 DUP8 DUP3 DUP9 ADD PUSH2 0x2B6C JUMP JUMPDEST SWAP4 POP POP PUSH1 0x40 DUP6 ADD CALLDATALOAD PUSH8 0xFFFFFFFFFFFFFFFF DUP2 GT ISZERO PUSH2 0x3299 JUMPI PUSH2 0x3298 PUSH2 0x29D9 JUMP JUMPDEST JUMPDEST PUSH2 0x32A5 DUP8 DUP3 DUP9 ADD PUSH2 0x31E9 JUMP JUMPDEST SWAP3 POP SWAP3 POP POP SWAP3 SWAP6 SWAP2 SWAP5 POP SWAP3 POP JUMP JUMPDEST PUSH1 0x0 DUP1 PUSH1 0x40 DUP4 DUP6 SUB SLT ISZERO PUSH2 0x32CA JUMPI PUSH2 0x32C9 PUSH2 0x29D4 JUMP JUMPDEST JUMPDEST PUSH1 0x0 PUSH2 0x32D8 DUP6 DUP3 DUP7 ADD PUSH2 0x2C8D JUMP JUMPDEST SWAP3 POP POP PUSH1 0x20 PUSH2 0x32E9 DUP6 DUP3 DUP7 ADD PUSH2 0x2C8D JUMP JUMPDEST SWAP2 POP POP SWAP3 POP SWAP3 SWAP1 POP JUMP JUMPDEST PUSH1 0x0 DUP1 PUSH1 0x40 DUP4 DUP6 SUB SLT ISZERO PUSH2 0x330A JUMPI PUSH2 0x3309 PUSH2 0x29D4 JUMP JUMPDEST JUMPDEST PUSH1 0x0 PUSH2 0x3318 DUP6 DUP3 DUP7 ADD PUSH2 0x2B6C JUMP JUMPDEST SWAP3 POP POP PUSH1 0x20 PUSH2 0x3329 DUP6 DUP3 DUP7 ADD PUSH2 0x2C8D JUMP JUMPDEST SWAP2 POP POP SWAP3 POP SWAP3 SWAP1 POP JUMP JUMPDEST PUSH32 0x4E487B7100000000000000000000000000000000000000000000000000000000 PUSH1 0x0 MSTORE PUSH1 0x22 PUSH1 0x4 MSTORE PUSH1 0x24 PUSH1 0x0 REVERT JUMPDEST PUSH1 0x0 PUSH1 0x2 DUP3 DIV SWAP1 POP PUSH1 0x1 DUP3 AND DUP1 PUSH2 0x337A JUMPI PUSH1 0x7F DUP3 AND SWAP2 POP JUMPDEST PUSH1 0x20 DUP3 LT DUP2 SUB PUSH2 0x338D JUMPI PUSH2 0x338C PUSH2 0x3333 JUMP JUMPDEST JUMPDEST POP SWAP2 SWAP1 POP JUMP JUMPDEST PUSH32 0x546F6B656E20646F6573206E6F74206578697374000000000000000000000000 PUSH1 0x0 DUP3 ADD MSTORE POP JUMP JUMPDEST PUSH1 0x0 PUSH2 0x33C9 PUSH1 0x14 DUP4 PUSH2 0x2AA4 JUMP JUMPDEST SWAP2 POP PUSH2 0x33D4 DUP3 PUSH2 0x3393 JUMP JUMPDEST PUSH1 0x20 DUP3 ADD SWAP1 POP SWAP2 SWAP1 POP JUMP JUMPDEST PUSH1 0x0 PUSH1 0x20 DUP3 ADD SWAP1 POP DUP2 DUP2 SUB PUSH1 0x0 DUP4 ADD MSTORE PUSH2 0x33F8 DUP2 PUSH2 0x33BC JUMP JUMPDEST SWAP1 POP SWAP2 SWAP1 POP JUMP JUMPDEST PUSH32 0x596F7520646F6E2774206F776E207468697320746F6B656E0000000000000000 PUSH1 0x0 DUP3 ADD MSTORE POP JUMP JUMPDEST PUSH1 0x0 PUSH2 0x3435 PUSH1 0x18 DUP4 PUSH2 0x2AA4 JUMP JUMPDEST SWAP2 POP PUSH2 0x3440 DUP3 PUSH2 0x33FF JUMP JUMPDEST PUSH1 0x20 DUP3 ADD SWAP1 POP SWAP2 SWAP1 POP JUMP JUMPDEST PUSH1 0x0 PUSH1 0x20 DUP3 ADD SWAP1 POP DUP2 DUP2 SUB PUSH1 0x0 DUP4 ADD MSTORE PUSH2 0x3464 DUP2 PUSH2 0x3428 JUMP JUMPDEST SWAP1 POP SWAP2 SWAP1 POP JUMP JUMPDEST PUSH32 0x4E6F207269676874206E65696768626F72000000000000000000000000000000 PUSH1 0x0 DUP3 ADD MSTORE POP JUMP JUMPDEST PUSH1 0x0 PUSH2 0x34A1 PUSH1 0x11 DUP4 PUSH2 0x2AA4 JUMP JUMPDEST SWAP2 POP PUSH2 0x34AC DUP3 PUSH2 0x346B JUMP JUMPDEST PUSH1 0x20 DUP3 ADD SWAP1 POP SWAP2 SWAP1 POP JUMP JUMPDEST PUSH1 0x0 PUSH1 0x20 DUP3 ADD SWAP1 POP DUP2 DUP2 SUB PUSH1 0x0 DUP4 ADD MSTORE PUSH2 0x34D0 DUP2 PUSH2 0x3494 JUMP JUMPDEST SWAP1 POP SWAP2 SWAP1 POP JUMP JUMPDEST PUSH32 0x4E6F206C656674206E65696768626F7200000000000000000000000000000000 PUSH1 0x0 DUP3 ADD MSTORE POP JUMP JUMPDEST PUSH1 0x0 PUSH2 0x350D PUSH1 0x10 DUP4 PUSH2 0x2AA4 JUMP JUMPDEST SWAP2 POP PUSH2 0x3518 DUP3 PUSH2 0x34D7 JUMP JUMPDEST PUSH1 0x20 DUP3 ADD SWAP1 POP SWAP2 SWAP1 POP JUMP JUMPDEST PUSH1 0x0 PUSH1 0x20 DUP3 ADD SWAP1 POP DUP2 DUP2 SUB PUSH1 0x0 DUP4 ADD MSTORE PUSH2 0x353C DUP2 PUSH2 0x3500 JUMP JUMPDEST SWAP1 POP SWAP2 SWAP1 POP JUMP JUMPDEST PUSH1 0x0 DUP2 SWAP1 POP SWAP3 SWAP2 POP POP JUMP JUMPDEST POP JUMP JUMPDEST PUSH1 0x0 PUSH2 0x355E PUSH1 0x0 DUP4 PUSH2 0x3543 JUMP JUMPDEST SWAP2 POP PUSH2 0x3569 DUP3 PUSH2 0x354E JUMP JUMPDEST PUSH1 0x0 DUP3 ADD SWAP1 POP SWAP2 SWAP1 POP JUMP JUMPDEST PUSH1 0x0 PUSH2 0x357F DUP3 PUSH2 0x3551 JUMP JUMPDEST SWAP2 POP DUP2 SWAP1 POP SWAP2 SWAP1 POP JUMP JUMPDEST PUSH32 0x5472616E73666572206661696C65640000000000000000000000000000000000 PUSH1 0x0 DUP3 ADD MSTORE POP JUMP JUMPDEST PUSH1 0x0 PUSH2 0x35BF PUSH1 0xF DUP4 PUSH2 0x2AA4 JUMP JUMPDEST SWAP2 POP PUSH2 0x35CA DUP3 PUSH2 0x3589 JUMP JUMPDEST PUSH1 0x20 DUP3 ADD SWAP1 POP SWAP2 SWAP1 POP JUMP JUMPDEST PUSH1 0x0 PUSH1 0x20 DUP3 ADD SWAP1 POP DUP2 DUP2 SUB PUSH1 0x0 DUP4 ADD MSTORE PUSH2 0x35EE DUP2 PUSH2 0x35B2 JUMP JUMPDEST SWAP1 POP SWAP2 SWAP1 POP JUMP JUMPDEST PUSH1 0x0 DUP2 SWAP1 POP DUP2 PUSH1 0x0 MSTORE PUSH1 0x20 PUSH1 0x0 KECCAK256 SWAP1 POP SWAP2 SWAP1 POP JUMP JUMPDEST PUSH1 0x0 PUSH1 0x20 PUSH1 0x1F DUP4 ADD DIV SWAP1 POP SWAP2 SWAP1 POP JUMP JUMPDEST PUSH1 0x0 DUP3 DUP3 SHL SWAP1 POP SWAP3 SWAP2 POP POP JUMP JUMPDEST PUSH1 0x0 PUSH1 0x8 DUP4 MUL PUSH2 0x3657 PUSH32 0xFFFFFFFFFFFFFFFFFFFFFFFFFFFFFFFFFFFFFFFFFFFFFFFFFFFFFFFFFFFFFFFF DUP3 PUSH2 0x361A JUMP JUMPDEST PUSH2 0x3661 DUP7 DUP4 PUSH2 0x361A JUMP JUMPDEST SWAP6 POP DUP1 NOT DUP5 AND SWAP4 POP DUP1 DUP7 AND DUP5 OR SWAP3 POP POP POP SWAP4 SWAP3 POP POP POP JUMP JUMPDEST PUSH1 0x0 DUP2 SWAP1 POP SWAP2 SWAP1 POP JUMP JUMPDEST PUSH1 0x0 PUSH2 0x369E PUSH2 0x3699 PUSH2 0x3694 DUP5 PUSH2 0x2B4B JUMP JUMPDEST PUSH2 0x3679 JUMP JUMPDEST PUSH2 0x2B4B JUMP JUMPDEST SWAP1 POP SWAP2 SWAP1 POP JUMP JUMPDEST PUSH1 0x0 DUP2 SWAP1 POP SWAP2 SWAP1 POP JUMP JUMPDEST PUSH2 0x36B8 DUP4 PUSH2 0x3683 JUMP JUMPDEST PUSH2 0x36CC PUSH2 0x36C4 DUP3 PUSH2 0x36A5 JUMP JUMPDEST DUP5 DUP5 SLOAD PUSH2 0x3627 JUMP JUMPDEST DUP3 SSTORE POP POP POP POP JUMP JUMPDEST PUSH1 0x0 SWAP1 JUMP JUMPDEST PUSH2 0x36E1 PUSH2 0x36D4 JUMP JUMPDEST PUSH2 0x36EC DUP2 DUP5 DUP5 PUSH2 0x36AF JUMP JUMPDEST POP POP POP JUMP JUMPDEST JUMPDEST DUP2 DUP2 LT ISZERO PUSH2 0x3710 JUMPI PUSH2 0x3705 PUSH1 0x0 DUP3 PUSH2 0x36D9 JUMP JUMPDEST PUSH1 0x1 DUP2 ADD SWAP1 POP PUSH2 0x36F2 JUMP JUMPDEST POP POP JUMP JUMPDEST PUSH1 0x1F DUP3 GT ISZERO PUSH2 0x3755 JUMPI PUSH2 0x3726 DUP2 PUSH2 0x35F5 JUMP JUMPDEST PUSH2 0x372F DUP5 PUSH2 0x360A JUMP JUMPDEST DUP2 ADD PUSH1 0x20 DUP6 LT ISZERO PUSH2 0x373E JUMPI DUP2 SWAP1 POP JUMPDEST PUSH2 0x3752 PUSH2 0x374A DUP6 PUSH2 0x360A JUMP JUMPDEST DUP4 ADD DUP3 PUSH2 0x36F1 JUMP JUMPDEST POP POP JUMPDEST POP POP POP JUMP JUMPDEST PUSH1 0x0 DUP3 DUP3 SHR SWAP1 POP SWAP3 SWAP2 POP POP JUMP JUMPDEST PUSH1 0x0 PUSH2 0x3778 PUSH1 0x0 NOT DUP5 PUSH1 0x8 MUL PUSH2 0x375A JUMP JUMPDEST NOT DUP1 DUP4 AND SWAP2 POP POP SWAP3 SWAP2 POP POP JUMP JUMPDEST PUSH1 0x0 PUSH2 0x3791 DUP4 DUP4 PUSH2 0x3767 JUMP JUMPDEST SWAP2 POP DUP3 PUSH1 0x2 MUL DUP3 OR SWAP1 POP SWAP3 SWAP2 POP POP JUMP JUMPDEST PUSH2 0x37AA DUP3 PUSH2 0x2A99 JUMP JUMPDEST PUSH8 0xFFFFFFFFFFFFFFFF DUP2 GT ISZERO PUSH2 0x37C3 JUMPI PUSH2 0x37C2 PUSH2 0x2D69 JUMP JUMPDEST JUMPDEST PUSH2 0x37CD DUP3 SLOAD PUSH2 0x3362 JUMP JUMPDEST PUSH2 0x37D8 DUP3 DUP3 DUP6 PUSH2 0x3714 JUMP JUMPDEST PUSH1 0x0 PUSH1 0x20 SWAP1 POP PUSH1 0x1F DUP4 GT PUSH1 0x1 DUP2 EQ PUSH2 0x380B JUMPI PUSH1 0x0 DUP5 ISZERO PUSH2 0x37F9 JUMPI DUP3 DUP8 ADD MLOAD SWAP1 POP JUMPDEST PUSH2 0x3803 DUP6 DUP3 PUSH2 0x3785 JUMP JUMPDEST DUP7 SSTORE POP PUSH2 0x386B JUMP JUMPDEST PUSH1 0x1F NOT DUP5 AND PUSH2 0x3819 DUP7 PUSH2 0x35F5 JUMP JUMPDEST PUSH1 0x0 JUMPDEST DUP3 DUP2 LT ISZERO PUSH2 0x3841 JUMPI DUP5 DUP10 ADD MLOAD DUP3 SSTORE PUSH1 0x1 DUP3 ADD SWAP2 POP PUSH1 0x20 DUP6 ADD SWAP5 POP PUSH1 0x20 DUP2 ADD SWAP1 POP PUSH2 0x381C JUMP JUMPDEST DUP7 DUP4 LT ISZERO PUSH2 0x385E JUMPI DUP5 DUP10 ADD MLOAD PUSH2 0x385A PUSH1 0x1F DUP10 AND DUP3 PUSH2 0x3767 JUMP JUMPDEST DUP4 SSTORE POP JUMPDEST PUSH1 0x1 PUSH1 0x2 DUP9 MUL ADD DUP9 SSTORE POP POP POP JUMPDEST POP POP POP POP POP POP JUMP JUMPDEST PUSH32 0x4E487B7100000000000000000000000000000000000000000000000000000000 PUSH1 0x0 MSTORE PUSH1 0x11 PUSH1 0x4 MSTORE PUSH1 0x24 PUSH1 0x0 REVERT JUMPDEST PUSH1 0x0 PUSH2 0x38AD DUP3 PUSH2 0x2B4B JUMP JUMPDEST SWAP2 POP PUSH2 0x38B8 DUP4 PUSH2 0x2B4B JUMP JUMPDEST SWAP3 POP DUP3 DUP3 ADD SWAP1 POP DUP1 DUP3 GT ISZERO PUSH2 0x38D0 JUMPI PUSH2 0x38CF PUSH2 0x3873 JUMP JUMPDEST JUMPDEST SWAP3 SWAP2 POP POP JUMP JUMPDEST PUSH1 0x0 PUSH2 0x38E1 DUP3 PUSH2 0x2B4B JUMP JUMPDEST SWAP2 POP PUSH2 0x38EC DUP4 PUSH2 0x2B4B JUMP JUMPDEST SWAP3 POP DUP3 DUP3 SUB SWAP1 POP DUP2 DUP2 GT ISZERO PUSH2 0x3904 JUMPI PUSH2 0x3903 PUSH2 0x3873 JUMP JUMPDEST JUMPDEST SWAP3 SWAP2 POP POP JUMP JUMPDEST PUSH32 0x496E76616C6964206D696E7420616D6F756E7400000000000000000000000000 PUSH1 0x0 DUP3 ADD MSTORE POP JUMP JUMPDEST PUSH1 0x0 PUSH2 0x3940 PUSH1 0x13 DUP4 PUSH2 0x2AA4 JUMP JUMPDEST SWAP2 POP PUSH2 0x394B DUP3 PUSH2 0x390A JUMP JUMPDEST PUSH1 0x20 DUP3 ADD SWAP1 POP SWAP2 SWAP1 POP JUMP JUMPDEST PUSH1 0x0 PUSH1 0x20 DUP3 ADD SWAP1 POP DUP2 DUP2 SUB PUSH1 0x0 DUP4 ADD MSTORE PUSH2 0x396F DUP2 PUSH2 0x3933 JUMP JUMPDEST SWAP1 POP SWAP2 SWAP1 POP JUMP JUMPDEST PUSH32 0x4D617820737570706C7920657863656564656400000000000000000000000000 PUSH1 0x0 DUP3 ADD MSTORE POP JUMP JUMPDEST PUSH1 0x0 PUSH2 0x39AC PUSH1 0x13 DUP4 PUSH2 0x2AA4 JUMP JUMPDEST SWAP2 POP PUSH2 0x39B7 DUP3 PUSH2 0x3976 JUMP JUMPDEST PUSH1 0x20 DUP3 ADD SWAP1 POP SWAP2 SWAP1 POP JUMP JUMPDEST PUSH1 0x0 PUSH1 0x20 DUP3 ADD SWAP1 POP DUP2 DUP2 SUB PUSH1 0x0 DUP4 ADD MSTORE PUSH2 0x39DB DUP2 PUSH2 0x399F JUMP JUMPDEST SWAP1 POP SWAP2 SWAP1 POP JUMP JUMPDEST PUSH32 0x5075626C6963206D696E742069732064697361626C6564000000000000000000 PUSH1 0x0 DUP3 ADD MSTORE POP JUMP JUMPDEST PUSH1 0x0 PUSH2 0x3A18 PUSH1 0x17 DUP4 PUSH2 0x2AA4 JUMP JUMPDEST SWAP2 POP PUSH2 0x3A23 DUP3 PUSH2 0x39E2 JUMP JUMPDEST PUSH1 0x20 DUP3 ADD SWAP1 POP SWAP2 SWAP1 POP JUMP JUMPDEST PUSH1 0x0 PUSH1 0x20 DUP3 ADD SWAP1 POP DUP2 DUP2 SUB PUSH1 0x0 DUP4 ADD MSTORE PUSH2 0x3A47 DUP2 PUSH2 0x3A0B JUMP JUMPDEST SWAP1 POP SWAP2 SWAP1 POP JUMP JUMPDEST PUSH1 0x0 PUSH2 0x3A59 DUP3 PUSH2 0x2B4B JUMP JUMPDEST SWAP2 POP PUSH2 0x3A64 DUP4 PUSH2 0x2B4B JUMP JUMPDEST SWAP3 POP DUP3 DUP3 MUL PUSH2 0x3A72 DUP2 PUSH2 0x2B4B JUMP JUMPDEST SWAP2 POP DUP3 DUP3 DIV DUP5 EQ DUP4 ISZERO OR PUSH2 0x3A89 JUMPI PUSH2 0x3A88 PUSH2 0x3873 JUMP JUMPDEST JUMPDEST POP SWAP3 SWAP2 POP POP JUMP JUMPDEST PUSH32 0x496E73756666696369656E742066756E64730000000000000000000000000000 PUSH1 0x0 DUP3 ADD MSTORE POP JUMP JUMPDEST PUSH1 0x0 PUSH2 0x3AC6 PUSH1 0x12 DUP4 PUSH2 0x2AA4 JUMP JUMPDEST SWAP2 POP PUSH2 0x3AD1 DUP3 PUSH2 0x3A90 JUMP JUMPDEST PUSH1 0x20 DUP3 ADD SWAP1 POP SWAP2 SWAP1 POP JUMP JUMPDEST PUSH1 0x0 PUSH1 0x20 DUP3 ADD SWAP1 POP DUP2 DUP2 SUB PUSH1 0x0 DUP4 ADD MSTORE PUSH2 0x3AF5 DUP2 PUSH2 0x3AB9 JUMP JUMPDEST SWAP1 POP SWAP2 SWAP1 POP JUMP JUMPDEST PUSH32 0x4552433732314D657461646174613A2055524920717565727920666F72206E6F PUSH1 0x0 DUP3 ADD MSTORE PUSH32 0x6E6578697374656E7420746F6B656E0000000000000000000000000000000000 PUSH1 0x20 DUP3 ADD MSTORE POP JUMP JUMPDEST PUSH1 0x0 PUSH2 0x3B58 PUSH1 0x2F DUP4 PUSH2 0x2AA4 JUMP JUMPDEST SWAP2 POP PUSH2 0x3B63 DUP3 PUSH2 0x3AFC JUMP JUMPDEST PUSH1 0x40 DUP3 ADD SWAP1 POP SWAP2 SWAP1 POP JUMP JUMPDEST PUSH1 0x0 PUSH1 0x20 DUP3 ADD SWAP1 POP DUP2 DUP2 SUB PUSH1 0x0 DUP4 ADD MSTORE PUSH2 0x3B87 DUP2 PUSH2 0x3B4B JUMP JUMPDEST SWAP1 POP SWAP2 SWAP1 POP JUMP JUMPDEST PUSH1 0x0 DUP2 SWAP1 POP SWAP3 SWAP2 POP POP JUMP JUMPDEST PUSH1 0x0 PUSH2 0x3BA4 DUP3 PUSH2 0x2A99 JUMP JUMPDEST PUSH2 0x3BAE DUP2 DUP6 PUSH2 0x3B8E JUMP JUMPDEST SWAP4 POP PUSH2 0x3BBE DUP2 DUP6 PUSH1 0x20 DUP7 ADD PUSH2 0x2AB5 JUMP JUMPDEST DUP1 DUP5 ADD SWAP2 POP POP SWAP3 SWAP2 POP POP JUMP JUMPDEST PUSH32 0x2E6A736F6E000000000000000000000000000000000000000000000000000000 PUSH1 0x0 DUP3 ADD MSTORE POP JUMP JUMPDEST PUSH1 0x0 PUSH2 0x3C00 PUSH1 0x5 DUP4 PUSH2 0x3B8E JUMP JUMPDEST SWAP2 POP PUSH2 0x3C0B DUP3 PUSH2 0x3BCA JUMP JUMPDEST PUSH1 0x5 DUP3 ADD SWAP1 POP SWAP2 SWAP1 POP JUMP JUMPDEST PUSH1 0x0 PUSH2 0x3C22 DUP3 DUP6 PUSH2 0x3B99 JUMP JUMPDEST SWAP2 POP PUSH2 0x3C2E DUP3 DUP5 PUSH2 0x3B99 JUMP JUMPDEST SWAP2 POP PUSH2 0x3C39 DUP3 PUSH2 0x3BF3 JUMP JUMPDEST SWAP2 POP DUP2 SWAP1 POP SWAP4 SWAP3 POP POP POP JUMP JUMPDEST PUSH32 0x57686974656C697374206D696E742069732064697361626C6564000000000000 PUSH1 0x0 DUP3 ADD MSTORE POP JUMP JUMPDEST PUSH1 0x0 PUSH2 0x3C7B PUSH1 0x1A DUP4 PUSH2 0x2AA4 JUMP JUMPDEST SWAP2 POP PUSH2 0x3C86 DUP3 PUSH2 0x3C45 JUMP JUMPDEST PUSH1 0x20 DUP3 ADD SWAP1 POP SWAP2 SWAP1 POP JUMP JUMPDEST PUSH1 0x0 PUSH1 0x20 DUP3 ADD SWAP1 POP DUP2 DUP2 SUB PUSH1 0x0 DUP4 ADD MSTORE PUSH2 0x3CAA DUP2 PUSH2 0x3C6E JUMP JUMPDEST SWAP1 POP SWAP2 SWAP1 POP JUMP JUMPDEST PUSH32 0x43616E2774206D696E742074686174206D616E79000000000000000000000000 PUSH1 0x0 DUP3 ADD MSTORE POP JUMP JUMPDEST PUSH1 0x0 PUSH2 0x3CE7 PUSH1 0x14 DUP4 PUSH2 0x2AA4 JUMP JUMPDEST SWAP2 POP PUSH2 0x3CF2 DUP3 PUSH2 0x3CB1 JUMP JUMPDEST PUSH1 0x20 DUP3 ADD SWAP1 POP SWAP2 SWAP1 POP JUMP JUMPDEST PUSH1 0x0 PUSH1 0x20 DUP3 ADD SWAP1 POP DUP2 DUP2 SUB PUSH1 0x0 DUP4 ADD MSTORE PUSH2 0x3D16 DUP2 PUSH2 0x3CDA JUMP JUMPDEST SWAP1 POP SWAP2 SWAP1 POP JUMP JUMPDEST PUSH32 0x496E76616C69642070726F6F6600000000000000000000000000000000000000 PUSH1 0x0 DUP3 ADD MSTORE POP JUMP JUMPDEST PUSH1 0x0 PUSH2 0x3D53 PUSH1 0xD DUP4 PUSH2 0x2AA4 JUMP JUMPDEST SWAP2 POP PUSH2 0x3D5E DUP3 PUSH2 0x3D1D JUMP JUMPDEST PUSH1 0x20 DUP3 ADD SWAP1 POP SWAP2 SWAP1 POP JUMP JUMPDEST PUSH1 0x0 PUSH1 0x20 DUP3 ADD SWAP1 POP DUP2 DUP2 SUB PUSH1 0x0 DUP4 ADD MSTORE PUSH2 0x3D82 DUP2 PUSH2 0x3D46 JUMP JUMPDEST SWAP1 POP SWAP2 SWAP1 POP JUMP JUMPDEST PUSH32 0x4F776E61626C653A206E6577206F776E657220697320746865207A65726F2061 PUSH1 0x0 DUP3 ADD MSTORE PUSH32 0x6464726573730000000000000000000000000000000000000000000000000000 PUSH1 0x20 DUP3 ADD MSTORE POP JUMP JUMPDEST PUSH1 0x0 PUSH2 0x3DE5 PUSH1 0x26 DUP4 PUSH2 0x2AA4 JUMP JUMPDEST SWAP2 POP PUSH2 0x3DF0 DUP3 PUSH2 0x3D89 JUMP JUMPDEST PUSH1 0x40 DUP3 ADD SWAP1 POP SWAP2 SWAP1 POP JUMP JUMPDEST PUSH1 0x0 PUSH1 0x20 DUP3 ADD SWAP1 POP DUP2 DUP2 SUB PUSH1 0x0 DUP4 ADD MSTORE PUSH2 0x3E14 DUP2 PUSH2 0x3DD8 JUMP JUMPDEST SWAP1 POP SWAP2 SWAP1 POP JUMP JUMPDEST PUSH32 0x4F776E61626C653A2063616C6C6572206973206E6F7420746865206F776E6572 PUSH1 0x0 DUP3 ADD MSTORE POP JUMP JUMPDEST PUSH1 0x0 PUSH2 0x3E51 PUSH1 0x20 DUP4 PUSH2 0x2AA4 JUMP JUMPDEST SWAP2 POP PUSH2 0x3E5C DUP3 PUSH2 0x3E1B JUMP JUMPDEST PUSH1 0x20 DUP3 ADD SWAP1 POP SWAP2 SWAP1 POP JUMP JUMPDEST PUSH1 0x0 PUSH1 0x20 DUP3 ADD SWAP1 POP DUP2 DUP2 SUB PUSH1 0x0 DUP4 ADD MSTORE PUSH2 0x3E80 DUP2 PUSH2 0x3E44 JUMP JUMPDEST SWAP1 POP SWAP2 SWAP1 POP JUMP JUMPDEST PUSH1 0x0 DUP2 MLOAD SWAP1 POP SWAP2 SWAP1 POP JUMP JUMPDEST PUSH1 0x0 DUP3 DUP3 MSTORE PUSH1 0x20 DUP3 ADD SWAP1 POP SWAP3 SWAP2 POP POP JUMP JUMPDEST PUSH1 0x0 PUSH2 0x3EAE DUP3 PUSH2 0x3E87 JUMP JUMPDEST PUSH2 0x3EB8 DUP2 DUP6 PUSH2 0x3E92 JUMP JUMPDEST SWAP4 POP PUSH2 0x3EC8 DUP2 DUP6 PUSH1 0x20 DUP7 ADD PUSH2 0x2AB5 JUMP JUMPDEST PUSH2 0x3ED1 DUP2 PUSH2 0x2ADF JUMP JUMPDEST DUP5 ADD SWAP2 POP POP SWAP3 SWAP2 POP POP JUMP JUMPDEST PUSH1 0x0 PUSH1 0x80 DUP3 ADD SWAP1 POP PUSH2 0x3EF1 PUSH1 0x0 DUP4 ADD DUP8 PUSH2 0x2BE0 JUMP JUMPDEST PUSH2 0x3EFE PUSH1 0x20 DUP4 ADD DUP7 PUSH2 0x2BE0 JUMP JUMPDEST PUSH2 0x3F0B PUSH1 0x40 DUP4 ADD DUP6 PUSH2 0x2CE2 JUMP JUMPDEST DUP2 DUP2 SUB PUSH1 0x60 DUP4 ADD MSTORE PUSH2 0x3F1D DUP2 DUP5 PUSH2 0x3EA3 JUMP JUMPDEST SWAP1 POP SWAP6 SWAP5 POP POP POP POP POP JUMP JUMPDEST PUSH1 0x0 DUP2 MLOAD SWAP1 POP PUSH2 0x3F37 DUP2 PUSH2 0x2A0A JUMP JUMPDEST SWAP3 SWAP2 POP POP JUMP JUMPDEST PUSH1 0x0 PUSH1 0x20 DUP3 DUP5 SUB SLT ISZERO PUSH2 0x3F53 JUMPI PUSH2 0x3F52 PUSH2 0x29D4 JUMP JUMPDEST JUMPDEST PUSH1 0x0 PUSH2 0x3F61 DUP5 DUP3 DUP6 ADD PUSH2 0x3F28 JUMP JUMPDEST SWAP2 POP POP SWAP3 SWAP2 POP POP JUMP JUMPDEST PUSH32 0x4E487B7100000000000000000000000000000000000000000000000000000000 PUSH1 0x0 MSTORE PUSH1 0x12 PUSH1 0x4 MSTORE PUSH1 0x24 PUSH1 0x0 REVERT JUMPDEST PUSH1 0x0 DUP2 PUSH1 0x60 SHL SWAP1 POP SWAP2 SWAP1 POP JUMP JUMPDEST PUSH1 0x0 PUSH2 0x3FB1 DUP3 PUSH2 0x3F99 JUMP JUMPDEST SWAP1 POP SWAP2 SWAP1 POP JUMP JUMPDEST PUSH1 0x0 PUSH2 0x3FC3 DUP3 PUSH2 0x3FA6 JUMP JUMPDEST SWAP1 POP SWAP2 SWAP1 POP JUMP JUMPDEST PUSH2 0x3FDB PUSH2 0x3FD6 DUP3 PUSH2 0x2BCE JUMP JUMPDEST PUSH2 0x3FB8 JUMP JUMPDEST DUP3 MSTORE POP POP JUMP JUMPDEST PUSH1 0x0 DUP2 SWAP1 POP SWAP2 SWAP1 POP JUMP JUMPDEST PUSH2 0x3FFC PUSH2 0x3FF7 DUP3 PUSH2 0x2B4B JUMP JUMPDEST PUSH2 0x3FE1 JUMP JUMPDEST DUP3 MSTORE POP POP JUMP JUMPDEST PUSH1 0x0 PUSH2 0x400E DUP3 DUP6 PUSH2 0x3FCA JUMP JUMPDEST PUSH1 0x14 DUP3 ADD SWAP2 POP PUSH2 0x401E DUP3 DUP5 PUSH2 0x3FEB JUMP JUMPDEST PUSH1 0x20 DUP3 ADD SWAP2 POP DUP2 SWAP1 POP SWAP4 SWAP3 POP POP POP JUMP JUMPDEST PUSH32 0x4E487B7100000000000000000000000000000000000000000000000000000000 PUSH1 0x0 MSTORE PUSH1 0x32 PUSH1 0x4 MSTORE PUSH1 0x24 PUSH1 0x0 REVERT JUMPDEST PUSH1 0x0 PUSH2 0x4068 DUP3 PUSH2 0x2B4B JUMP JUMPDEST SWAP2 POP PUSH32 0xFFFFFFFFFFFFFFFFFFFFFFFFFFFFFFFFFFFFFFFFFFFFFFFFFFFFFFFFFFFFFFFF DUP3 SUB PUSH2 0x409A JUMPI PUSH2 0x4099 PUSH2 0x3873 JUMP JUMPDEST JUMPDEST PUSH1 0x1 DUP3 ADD SWAP1 POP SWAP2 SWAP1 POP JUMP INVALID LOG2 PUSH5 0x6970667358 0x22 SLT KECCAK256 SWAP9 SLOAD SWAP1 PUSH8 0xAAEAE6EC6D9E9BD2 DUP3 SWAP10 SGT CREATE CALLDATASIZE SWAP2 0xD3 0xE 0xB6 0xD3 SLT 0xDE 0x4F 0xEB 0xEC 0xA9 0xB8 0xC6 PUSH26 0x8164736F6C634300081100330000000000000000000000000000 "
		},
		"gasEstimates": {
			"creation": {
				"codeDepositCost": "3320600",
				"executionCost": "infinite",
				"totalCost": "infinite"
			},
			"external": {
				"approve(address,uint256)": "infinite",
				"balanceOf(address)": "2949",
				"getApproved(uint256)": "7412",
				"hiddenMetadataUri()": "infinite",
				"isApprovedForAll(address,address)": "infinite",
				"leftNeighborId(uint256)": "infinite",
				"linkShroom(uint256,bool)": "infinite",
				"maxMintAmountPerTx()": "2519",
				"maxSupply()": "2540",
				"mint(uint256)": "infinite",
				"mintForAddress(uint256,address)": "infinite",
				"mintWhiteList(uint256,uint256,bytes32[])": "infinite",
				"name()": "infinite",
				"numberMinted(address)": "2943",
				"owner()": "2590",
				"ownerOf(uint256)": "infinite",
				"publicCost()": "2562",
				"renounceOwnership()": "30487",
				"rightNeighborId(uint256)": "infinite",
				"safeTransferFrom(address,address,uint256)": "infinite",
				"safeTransferFrom(address,address,uint256,bytes)": "infinite",
				"setApprovalForAll(address,bool)": "infinite",
				"setCosts(uint256)": "24874",
				"setHiddenMetadataUri(string)": "infinite",
				"setMaxMintAmountPerTx(uint256)": "24895",
				"setState(uint8)": "27054",
				"setUriPrefix(string)": "infinite",
				"setWhitelistMerkleRoot(bytes32)": "24829",
				"state()": "2677",
				"supportsInterface(bytes4)": "768",
				"symbol()": "infinite",
				"tokenURI(uint256)": "infinite",
				"totalSupply()": "4652",
				"transferFrom(address,address,uint256)": "infinite",
				"transferOwnership(address)": "30876",
				"uriPrefix()": "infinite",
				"whitelistMerkleRoot()": "2518",
				"withdraw()": "infinite",
				"wlCost()": "2562"
			},
			"internal": {
				"_baseURI()": "infinite",
				"_leaf(address,uint256)": "infinite",
				"_startTokenId()": "23",
				"_verify(bytes32,bytes32[] memory)": "infinite"
			}
		},
		"methodIdentifiers": {
			"approve(address,uint256)": "095ea7b3",
			"balanceOf(address)": "70a08231",
			"getApproved(uint256)": "081812fc",
			"hiddenMetadataUri()": "a45ba8e7",
			"isApprovedForAll(address,address)": "e985e9c5",
			"leftNeighborId(uint256)": "8ac972a3",
			"linkShroom(uint256,bool)": "08a26771",
			"maxMintAmountPerTx()": "94354fd0",
			"maxSupply()": "d5abeb01",
			"mint(uint256)": "a0712d68",
			"mintForAddress(uint256,address)": "efbd73f4",
			"mintWhiteList(uint256,uint256,bytes32[])": "de9c4dc8",
			"name()": "06fdde03",
			"numberMinted(address)": "dc33e681",
			"owner()": "8da5cb5b",
			"ownerOf(uint256)": "6352211e",
			"publicCost()": "8693da20",
			"renounceOwnership()": "715018a6",
			"rightNeighborId(uint256)": "6ad7eea3",
			"safeTransferFrom(address,address,uint256)": "42842e0e",
			"safeTransferFrom(address,address,uint256,bytes)": "b88d4fde",
			"setApprovalForAll(address,bool)": "a22cb465",
			"setCosts(uint256)": "22284de6",
			"setHiddenMetadataUri(string)": "4fdd43cb",
			"setMaxMintAmountPerTx(uint256)": "b071401b",
			"setState(uint8)": "56de96db",
			"setUriPrefix(string)": "7ec4a659",
			"setWhitelistMerkleRoot(bytes32)": "bd32fb66",
			"state()": "c19d93fb",
			"supportsInterface(bytes4)": "01ffc9a7",
			"symbol()": "95d89b41",
			"tokenURI(uint256)": "c87b56dd",
			"totalSupply()": "18160ddd",
			"transferFrom(address,address,uint256)": "23b872dd",
			"transferOwnership(address)": "f2fde38b",
			"uriPrefix()": "62b99ad4",
			"whitelistMerkleRoot()": "aa98e0c6",
			"withdraw()": "3ccfd60b",
			"wlCost()": "d70a28d1"
		}
	},
	"abi": [
		{
			"inputs": [],
			"stateMutability": "nonpayable",
			"type": "constructor"
		},
		{
			"inputs": [],
			"name": "ApprovalCallerNotOwnerNorApproved",
			"type": "error"
		},
		{
			"inputs": [],
			"name": "ApprovalQueryForNonexistentToken",
			"type": "error"
		},
		{
			"inputs": [],
			"name": "BalanceQueryForZeroAddress",
			"type": "error"
		},
		{
			"inputs": [],
			"name": "MintERC2309QuantityExceedsLimit",
			"type": "error"
		},
		{
			"inputs": [],
			"name": "MintToZeroAddress",
			"type": "error"
		},
		{
			"inputs": [],
			"name": "MintZeroQuantity",
			"type": "error"
		},
		{
			"inputs": [],
			"name": "OwnerQueryForNonexistentToken",
			"type": "error"
		},
		{
			"inputs": [],
			"name": "OwnershipNotInitializedForExtraData",
			"type": "error"
		},
		{
			"inputs": [],
			"name": "TransferCallerNotOwnerNorApproved",
			"type": "error"
		},
		{
			"inputs": [],
			"name": "TransferFromIncorrectOwner",
			"type": "error"
		},
		{
			"inputs": [],
			"name": "TransferToNonERC721ReceiverImplementer",
			"type": "error"
		},
		{
			"inputs": [],
			"name": "TransferToZeroAddress",
			"type": "error"
		},
		{
			"inputs": [],
			"name": "URIQueryForNonexistentToken",
			"type": "error"
		},
		{
			"anonymous": false,
			"inputs": [
				{
					"indexed": true,
					"internalType": "address",
					"name": "owner",
					"type": "address"
				},
				{
					"indexed": true,
					"internalType": "address",
					"name": "approved",
					"type": "address"
				},
				{
					"indexed": true,
					"internalType": "uint256",
					"name": "tokenId",
					"type": "uint256"
				}
			],
			"name": "Approval",
			"type": "event"
		},
		{
			"anonymous": false,
			"inputs": [
				{
					"indexed": true,
					"internalType": "address",
					"name": "owner",
					"type": "address"
				},
				{
					"indexed": true,
					"internalType": "address",
					"name": "operator",
					"type": "address"
				},
				{
					"indexed": false,
					"internalType": "bool",
					"name": "approved",
					"type": "bool"
				}
			],
			"name": "ApprovalForAll",
			"type": "event"
		},
		{
			"anonymous": false,
			"inputs": [
				{
					"indexed": true,
					"internalType": "uint256",
					"name": "fromTokenId",
					"type": "uint256"
				},
				{
					"indexed": false,
					"internalType": "uint256",
					"name": "toTokenId",
					"type": "uint256"
				},
				{
					"indexed": true,
					"internalType": "address",
					"name": "from",
					"type": "address"
				},
				{
					"indexed": true,
					"internalType": "address",
					"name": "to",
					"type": "address"
				}
			],
			"name": "ConsecutiveTransfer",
			"type": "event"
		},
		{
			"anonymous": false,
			"inputs": [
				{
					"indexed": true,
					"internalType": "address",
					"name": "previousOwner",
					"type": "address"
				},
				{
					"indexed": true,
					"internalType": "address",
					"name": "newOwner",
					"type": "address"
				}
			],
			"name": "OwnershipTransferred",
			"type": "event"
		},
		{
			"anonymous": false,
			"inputs": [
				{
					"indexed": true,
					"internalType": "address",
					"name": "from",
					"type": "address"
				},
				{
					"indexed": true,
					"internalType": "address",
					"name": "to",
					"type": "address"
				},
				{
					"indexed": true,
					"internalType": "uint256",
					"name": "tokenId",
					"type": "uint256"
				}
			],
			"name": "Transfer",
			"type": "event"
		},
		{
			"inputs": [
				{
					"internalType": "address",
					"name": "to",
					"type": "address"
				},
				{
					"internalType": "uint256",
					"name": "tokenId",
					"type": "uint256"
				}
			],
			"name": "approve",
			"outputs": [],
			"stateMutability": "payable",
			"type": "function"
		},
		{
			"inputs": [
				{
					"internalType": "address",
					"name": "owner",
					"type": "address"
				}
			],
			"name": "balanceOf",
			"outputs": [
				{
					"internalType": "uint256",
					"name": "",
					"type": "uint256"
				}
			],
			"stateMutability": "view",
			"type": "function"
		},
		{
			"inputs": [
				{
					"internalType": "uint256",
					"name": "tokenId",
					"type": "uint256"
				}
			],
			"name": "getApproved",
			"outputs": [
				{
					"internalType": "address",
					"name": "",
					"type": "address"
				}
			],
			"stateMutability": "view",
			"type": "function"
		},
		{
			"inputs": [],
			"name": "hiddenMetadataUri",
			"outputs": [
				{
					"internalType": "string",
					"name": "",
					"type": "string"
				}
			],
			"stateMutability": "view",
			"type": "function"
		},
		{
			"inputs": [
				{
					"internalType": "address",
					"name": "owner",
					"type": "address"
				},
				{
					"internalType": "address",
					"name": "operator",
					"type": "address"
				}
			],
			"name": "isApprovedForAll",
			"outputs": [
				{
					"internalType": "bool",
					"name": "",
					"type": "bool"
				}
			],
			"stateMutability": "view",
			"type": "function"
		},
		{
			"inputs": [
				{
					"internalType": "uint256",
					"name": "_tokenId",
					"type": "uint256"
				}
			],
			"name": "leftNeighborId",
			"outputs": [
				{
					"internalType": "uint256",
					"name": "",
					"type": "uint256"
				}
			],
			"stateMutability": "view",
			"type": "function"
		},
		{
			"inputs": [
				{
					"internalType": "uint256",
					"name": "tokenId",
					"type": "uint256"
				},
				{
					"internalType": "bool",
					"name": "right",
					"type": "bool"
				}
			],
			"name": "linkShroom",
			"outputs": [],
			"stateMutability": "nonpayable",
			"type": "function"
		},
		{
			"inputs": [],
			"name": "maxMintAmountPerTx",
			"outputs": [
				{
					"internalType": "uint256",
					"name": "",
					"type": "uint256"
				}
			],
			"stateMutability": "view",
			"type": "function"
		},
		{
			"inputs": [],
			"name": "maxSupply",
			"outputs": [
				{
					"internalType": "uint256",
					"name": "",
					"type": "uint256"
				}
			],
			"stateMutability": "view",
			"type": "function"
		},
		{
			"inputs": [
				{
					"internalType": "uint256",
					"name": "amount",
					"type": "uint256"
				}
			],
			"name": "mint",
			"outputs": [],
			"stateMutability": "payable",
			"type": "function"
		},
		{
			"inputs": [
				{
					"internalType": "uint256",
					"name": "amount",
					"type": "uint256"
				},
				{
					"internalType": "address",
					"name": "_receiver",
					"type": "address"
				}
			],
			"name": "mintForAddress",
			"outputs": [],
			"stateMutability": "nonpayable",
			"type": "function"
		},
		{
			"inputs": [
				{
					"internalType": "uint256",
					"name": "amount",
					"type": "uint256"
				},
				{
					"internalType": "uint256",
					"name": "allowance",
					"type": "uint256"
				},
				{
					"internalType": "bytes32[]",
					"name": "proof",
					"type": "bytes32[]"
				}
			],
			"name": "mintWhiteList",
			"outputs": [],
			"stateMutability": "payable",
			"type": "function"
		},
		{
			"inputs": [],
			"name": "name",
			"outputs": [
				{
					"internalType": "string",
					"name": "",
					"type": "string"
				}
			],
			"stateMutability": "view",
			"type": "function"
		},
		{
			"inputs": [
				{
					"internalType": "address",
					"name": "_minter",
					"type": "address"
				}
			],
			"name": "numberMinted",
			"outputs": [
				{
					"internalType": "uint256",
					"name": "",
					"type": "uint256"
				}
			],
			"stateMutability": "view",
			"type": "function"
		},
		{
			"inputs": [],
			"name": "owner",
			"outputs": [
				{
					"internalType": "address",
					"name": "",
					"type": "address"
				}
			],
			"stateMutability": "view",
			"type": "function"
		},
		{
			"inputs": [
				{
					"internalType": "uint256",
					"name": "tokenId",
					"type": "uint256"
				}
			],
			"name": "ownerOf",
			"outputs": [
				{
					"internalType": "address",
					"name": "",
					"type": "address"
				}
			],
			"stateMutability": "view",
			"type": "function"
		},
		{
			"inputs": [],
			"name": "publicCost",
			"outputs": [
				{
					"internalType": "uint256",
					"name": "",
					"type": "uint256"
				}
			],
			"stateMutability": "view",
			"type": "function"
		},
		{
			"inputs": [],
			"name": "renounceOwnership",
			"outputs": [],
			"stateMutability": "nonpayable",
			"type": "function"
		},
		{
			"inputs": [
				{
					"internalType": "uint256",
					"name": "_tokenId",
					"type": "uint256"
				}
			],
			"name": "rightNeighborId",
			"outputs": [
				{
					"internalType": "uint256",
					"name": "",
					"type": "uint256"
				}
			],
			"stateMutability": "view",
			"type": "function"
		},
		{
			"inputs": [
				{
					"internalType": "address",
					"name": "from",
					"type": "address"
				},
				{
					"internalType": "address",
					"name": "to",
					"type": "address"
				},
				{
					"internalType": "uint256",
					"name": "tokenId",
					"type": "uint256"
				}
			],
			"name": "safeTransferFrom",
			"outputs": [],
			"stateMutability": "payable",
			"type": "function"
		},
		{
			"inputs": [
				{
					"internalType": "address",
					"name": "from",
					"type": "address"
				},
				{
					"internalType": "address",
					"name": "to",
					"type": "address"
				},
				{
					"internalType": "uint256",
					"name": "tokenId",
					"type": "uint256"
				},
				{
					"internalType": "bytes",
					"name": "_data",
					"type": "bytes"
				}
			],
			"name": "safeTransferFrom",
			"outputs": [],
			"stateMutability": "payable",
			"type": "function"
		},
		{
			"inputs": [
				{
					"internalType": "address",
					"name": "operator",
					"type": "address"
				},
				{
					"internalType": "bool",
					"name": "approved",
					"type": "bool"
				}
			],
			"name": "setApprovalForAll",
			"outputs": [],
			"stateMutability": "nonpayable",
			"type": "function"
		},
		{
			"inputs": [
				{
					"internalType": "uint256",
					"name": "_publicCost",
					"type": "uint256"
				}
			],
			"name": "setCosts",
			"outputs": [],
			"stateMutability": "nonpayable",
			"type": "function"
		},
		{
			"inputs": [
				{
					"internalType": "string",
					"name": "_hiddenMetadataUri",
					"type": "string"
				}
			],
			"name": "setHiddenMetadataUri",
			"outputs": [],
			"stateMutability": "nonpayable",
			"type": "function"
		},
		{
			"inputs": [
				{
					"internalType": "uint256",
					"name": "_maxMintAmountPerTx",
					"type": "uint256"
				}
			],
			"name": "setMaxMintAmountPerTx",
			"outputs": [],
			"stateMutability": "nonpayable",
			"type": "function"
		},
		{
			"inputs": [
				{
					"internalType": "enum Shroomelay.ContractMintState",
					"name": "_state",
					"type": "uint8"
				}
			],
			"name": "setState",
			"outputs": [],
			"stateMutability": "nonpayable",
			"type": "function"
		},
		{
			"inputs": [
				{
					"internalType": "string",
					"name": "_uriPrefix",
					"type": "string"
				}
			],
			"name": "setUriPrefix",
			"outputs": [],
			"stateMutability": "nonpayable",
			"type": "function"
		},
		{
			"inputs": [
				{
					"internalType": "bytes32",
					"name": "_whitelistMerkleRoot",
					"type": "bytes32"
				}
			],
			"name": "setWhitelistMerkleRoot",
			"outputs": [],
			"stateMutability": "nonpayable",
			"type": "function"
		},
		{
			"inputs": [],
			"name": "state",
			"outputs": [
				{
					"internalType": "enum Shroomelay.ContractMintState",
					"name": "",
					"type": "uint8"
				}
			],
			"stateMutability": "view",
			"type": "function"
		},
		{
			"inputs": [
				{
					"internalType": "bytes4",
					"name": "interfaceId",
					"type": "bytes4"
				}
			],
			"name": "supportsInterface",
			"outputs": [
				{
					"internalType": "bool",
					"name": "",
					"type": "bool"
				}
			],
			"stateMutability": "view",
			"type": "function"
		},
		{
			"inputs": [],
			"name": "symbol",
			"outputs": [
				{
					"internalType": "string",
					"name": "",
					"type": "string"
				}
			],
			"stateMutability": "view",
			"type": "function"
		},
		{
			"inputs": [
				{
					"internalType": "uint256",
					"name": "_tokenId",
					"type": "uint256"
				}
			],
			"name": "tokenURI",
			"outputs": [
				{
					"internalType": "string",
					"name": "",
					"type": "string"
				}
			],
			"stateMutability": "view",
			"type": "function"
		},
		{
			"inputs": [],
			"name": "totalSupply",
			"outputs": [
				{
					"internalType": "uint256",
					"name": "",
					"type": "uint256"
				}
			],
			"stateMutability": "view",
			"type": "function"
		},
		{
			"inputs": [
				{
					"internalType": "address",
					"name": "from",
					"type": "address"
				},
				{
					"internalType": "address",
					"name": "to",
					"type": "address"
				},
				{
					"internalType": "uint256",
					"name": "tokenId",
					"type": "uint256"
				}
			],
			"name": "transferFrom",
			"outputs": [],
			"stateMutability": "payable",
			"type": "function"
		},
		{
			"inputs": [
				{
					"internalType": "address",
					"name": "newOwner",
					"type": "address"
				}
			],
			"name": "transferOwnership",
			"outputs": [],
			"stateMutability": "nonpayable",
			"type": "function"
		},
		{
			"inputs": [],
			"name": "uriPrefix",
			"outputs": [
				{
					"internalType": "string",
					"name": "",
					"type": "string"
				}
			],
			"stateMutability": "view",
			"type": "function"
		},
		{
			"inputs": [],
			"name": "whitelistMerkleRoot",
			"outputs": [
				{
					"internalType": "bytes32",
					"name": "",
					"type": "bytes32"
				}
			],
			"stateMutability": "view",
			"type": "function"
		},
		{
			"inputs": [],
			"name": "withdraw",
			"outputs": [],
			"stateMutability": "nonpayable",
			"type": "function"
		},
		{
			"inputs": [],
			"name": "wlCost",
			"outputs": [
				{
					"internalType": "uint256",
					"name": "",
					"type": "uint256"
				}
			],
			"stateMutability": "view",
			"type": "function"
		}
	]
}